:020000040800F2
:1000000020230020BD350008210300082303000839
:10001000270300082B0300082F030008000000003E
:100020000000000000000000000000003303000892
:1000300035030008000000003703000839030008FA
:10004000D7350008D7350008D7350008D735000860
:10005000D7350008D7350008D7350008D735000850
:10006000D7350008D7350008D7350008D735000840
:10007000D7350008D7350008D7350008D735000830
:10008000D7350008D7350008D7350008D735000820
:10009000D7350008D7350008D7350008D735000810
:1000A000D7350008D7350008D7350008D735000800
:1000B000D73500084D330008D7350008D73500087C
:1000C000D7350008D7350008D7350008D7350008E0
:1000D000D735000831350008D7350008A52B0008B2
:1000E000D7350008D7350008D735000800F002F8EA
:1000F00000F065F80AA090E8000C82448344AAF15D
:100100000107DA4501D100F05AF8AFF2090EBAE85A
:100110000F0013F0010F18BFFB1A43F0010318473B
:10012000247E0000447E000010F8013B0A4413F0D6
:10013000030408BF10F8014B1D1108BF10F8015B44
:10014000641E05D010F8016B641E01F8016BF9D133
:10015000002D15D010F8014B03F00C030C2BA1EB74
:1001600004040ABF10F8013BA4EB8314A4EB03249E
:1001700005F1010314F8016B5B1E01F8016BF9D561
:10018000914238BF10F8013BD1D3704700230024BF
:1001900000250026103A28BF78C1FBD8520728BF97
:1001A00030C148BF0B607047732905F05E840020A2
:1001B00070471FB505F0E5FA1FBD10B510BD05F07D
:1001C00061FC1146FFF7F5FF00F022F805F07FFC17
:1001D00003B4FFF7F2FF03BC03F050F90B49D1F869
:1001E00000C04A685CF8043B1068184442F8040BED
:1001F0008C4528BFA1F1DC0C8A4228BFA1F1DC02AA
:10020000C1F800C04A6020F000407047B41C0020D4
:1002100003F0CAF801F001FF4FF4A06003F0EEF91B
:1002200002F095F902F037F84FF4E13002F0F1FCFA
:1002300003F05EF803F025F8002001F0B1FE05F0B0
:10024000F3F8002001F0ACFE2F49304801F0F7FF31
:1002500005F0F4F800202E49087017E040F2DC5059
:1002600003F0DFF802F059FA58B9AA2029490870BA
:1002700002F069FB02F091FA10B9AA2025498870B2
:1002800008E023480078401C214908702048007885
:100290000528E3DB00BF36E01F488078AA2804D198
:1002A00000201D49887003F00EF81B48C078AA286A
:1002B00028D100201849C87002F075F81249134877
:1002C00001F0BDFF13488078AA2805D002F065FA36
:1002D00010B9AA200F4988701048007830B1012861
:1002E00007D0022806D0032808D106E005F0A6F8BA
:1002F00005E004E005F012F901E000E000BF00BFF6
:1003000001F02CFE30BFC7E74B1500204A15002036
:100310000000002020150020261500205215002086
:10032000704700BFFEE700BFFEE700BFFEE700BF6B
:10033000FEE7704770477047704700000CB500201B
:10034000019000906C48006840F480306A49086071
:1003500000BF6948006800F4003000900198401C1C
:100360000190009818B90198B0F5A06FF1D16248DA
:10037000006800F4003010B10120009001E000207E
:1003800000900098012843D15C48006840F01000BC
:100390005A4908600846006820F0030008600846D3
:1003A000006840F0020008605348406852494860C5
:1003B0000846406848600846406840F480604860ED
:1003C0000846406820F47C1048600846406840F4C5
:1003D000E81048600846006840F08070086000BF80
:1003E0004548006800F000700028F9D04248406895
:1003F00020F00300404948600846406840F0020091
:10040000486000BF3C48406800F00C000828F9D163
:100410000CBD10B5FFF792FF10BD10B5364800684F
:1004200040F00100344908600846406834490840FB
:100430003149486008460068324908402E49086042
:100440000846006820F4802008600846406820F4D0
:10045000FE0048604FF41F008860FFF7DAFF4FF09E
:1004600000602949086010BD10B50021002000225D
:10047000214B5B6803F00C0121B1042906D0082947
:1004800028D107E0214B224C236027E01F4B204C52
:10049000236023E0184B5B6803F47010164B5B6815
:1004A00003F48032022303EB904022B9194B4343FB
:1004B000174C23600DE0104B5B6803F4003323B14D
:1004C000144B4343124C236003E0104B4343104C46
:1004D000236003E00D4B0E4C236000BF00BF064BB2
:1004E0005B68C3F303130C4CE15C094B1B68CB4006
:1004F000074C236010BD00000010024000200240A5
:100500000000FFF8FFFFF6FE08ED00E000127A00A1
:100510000400002000093D000800002008B500206C
:100520001023FEA2014600901C2001F0DFF90120FB
:100530001023FDA2194600900C2001F0D7F90120EC
:100540000823FDA227210090282001F0CFF90120E7
:100550001023FBA230210090042001F0C7F940F2E3
:10056000DC5002F05EFF40F2DC5002F05AFF08BDA2
:1005700008B500203F237F220146009000F05AFE7C
:1005800001201023F2A20A210090084601F0AEF9E2
:100590004FF47A7002F045FF01203F237F220021B3
:1005A0000090084600F046FE40F2DC5002F039FFB1
:1005B00008BD08B500203F231A460146009000F010
:1005C00039FE01203F237F2200210090402000F0CF
:1005D00031FE01203A231A4605210090084600F01A
:1005E000A8FE01203A237A2205210090442000F041
:1005F000A0FE4FF47A7002F014FF01203A231A464D
:1006000005210090084600F0B9FE00203A237A2226
:1006100005210090442000F0B1FE40F2DC5002F0D1
:1006200000FF08BD08B500203F231A460146009090
:1006300000F000FE01203F237F2200210090402097
:1006400000F0F8FD1B2301221F21084600F0EAFEFE
:100650001B2300221F215F2000F0E4FE4FF47A707C
:1006600002F0DFFE1B2301221F21084600F003FFDA
:100670001B2300221F215F2000F0FDFE40F2DC5012
:1006800002F0CFFE08BD0EB500203F231A460146FA
:10069000009000F0CFFD01203F237F220021009039
:1006A000402000F0C7FD01203A21009105231F22C0
:1006B000CDE90110184600F00EFF00203A217A2201
:1006C0000523CDE9002102905F22442000F003FFC2
:1006D0004FF47A7002F0A5FE01203A210091052323
:1006E0001F22CDE90110184600F02EFF00203A210C
:1006F0007A220523CDE9002102905F22442000F0F8
:1007000023FF40F2DC5002F08CFE0EBD08B5012044
:10071000082391A205210090002001F0E7F80120B4
:10072000102395A219210090002001F0DFF84FF46A
:100730007A7002F076FE0120082397A2052100902E
:10074000002001F0D3F8012010239BA21921009072
:10075000002001F0CBF840F2DC5002F062FE08BD50
:100760001CB500201F237F220146009000F062FD8F
:100770000120082398A200210090084601F0B6F855
:10078000012008210A239E4ACDE9001010211E20D5
:1007900001F0FAF84FF47A7002F043FE002001F005
:1007A000FFFB0120102397A200210090084601F0D2
:1007B0009DF8012010210A23914ACDE90010202143
:1007C000282001F0E1F840F2DC5002F02AFE00207F
:1007D00001F0E6FB1CBD08B50120082393A200210F
:1007E00000902D2001F082F8012092A31022142104
:1007F0000090104601F097FA4FF47A7002F011FE63
:10080000002001F0CDFB012008238EA200210090E2
:100810002D2001F06BF801208CA3182214210090E8
:10082000102001F080FA4FF47A7002F0FAFD0020F7
:1008300001F0B6FB0120082387A2002100902D20A3
:1008400001F054F8012081A32022142100900020FF
:1008500001F069FA4FF47A7002F0E3FD002001F034
:100860009FFB08BD1CB501207D4940233C22CDE9FA
:1008700000100021222001F08BFA01F06FFB6420B0
:1008800002F0CFFD0120774940233C22CDE9001042
:100890000021222001F07CFA01F060FB642002F0CC
:1008A000C0FD0120704940233C22CDE90010002109
:1008B000222001F06DFA01F051FB642002F0B1FD3D
:1008C00001206A4940233C22CDE90010002122206A
:1008D00001F05EFA01F042FB642002F0A2FD01206B
:1008E000634940233C22CDE900100021222001F081
:1008F0004FFA01F033FB642002F093FD01205D49C3
:1009000040233C22CDE900100021222001F040FAD2
:1009100001F024FB642002F084FDADE04F4C45441F
:100920002054455354000000302E393622205353B2
:10093000443133303600000036345831323800004C
:100940007777772E6C636477696B692E636F6D00C0
:10095000424C41434B0000003678383A6162636490
:1009600065666768696A6B6C6D6E6F7071727374BF
:1009700075767778797A0000387831363A61626333
:100980006465666768696A6B6C6D6E6F70717273AF
:100990007475767778797A003678383A41424344EC
:1009A00045464748494A4B4C4D4E4F50515253547F
:1009B00055565758595A0000387831363A41424313
:1009C0004445464748494A4B4C4D4E4F505152536F
:1009D0005455565758595A003678383A212223240C
:1009E00025262728292A2B2C2D2E2F3A3B3C3D3E0D
:1009F0003F405B5D5C5E5F607E7B7D7C0000000055
:100A0000D2029649387831363A21222324252627E6
:100A100028292A2B2C2D2E2F3A3B3C3D3E3F405B74
:100A20005D5C5E5F607E7B7D7C00000031367831EE
:100A300036000000C8ABB6AFB5E7D7D3BCBCCAF52B
:100A4000000000003234783234000000C8ABB6AF8A
:100A5000B5E7D7D30000000033327833320000000E
:100A6000E8060020E8080020E80A0020E80C002042
:100A7000E80E0020E81000200120FE4940233C221F
:100A8000CDE900100021222001F082F901F066FA80
:100A9000642002F0C6FC1CBD1CB5F74800780A2192
:100AA00090FBF1F0C0EBC00000EB4000F34901EB1C
:100AB000800401201C2314221A21CDE900400020CB
:100AC00001F066F9EC4800780A2190FBF1F201FB95
:100AD0001200C0EBC00000EB4000E84901EB8004CD
:100AE00001201C2314221A21CDE90040162001F018
:100AF0004FF9E149887800EBD0714910A0EB410132
:100B000051B10121DE481C230422CDE900011A2144
:100B10002C2001F03DF90AE00121D94854381C236A
:100B20000422CDE900011A212C2001F031F9D2482C
:100B300040780A2190FBF1F0C0EBC00000EB4000D0
:100B4000CE4901EB800401201C2314221A21CDE997
:100B50000040322001F01CF9C74840780A2190FB80
:100B6000F1F201FB1200C0EBC00000EB4000C349F2
:100B700001EB800401201C2314221A21CDE900403E
:100B8000482001F005F91CBD1CB5BE480078AA2814
:100B90000AD10120BC4910231A46CDE900100021DA
:100BA0005C2001F0F5F809E00120B84910231A464D
:100BB000CDE9001000215C2001F0EAF80120B449E1
:100BC00010231A46CDE9001000216F2001F0E0F853
:100BD0000120B0490A231A46CDE9001010215F20F8
:100BE00001F0D6F80120AC490A231A46CDE90010DD
:100BF0001C215F2001F0CCF80120A84908231A46E7
:100C0000CDE900101221772001F0C2F80120A4499B
:100C100008231A46CDE900101F21772001F0B8F80B
:100C20009848C0781A2850D2DFE800F00D0E0F1057
:100C30001B1C1D1E1F202B2C2D2E2F303132333428
:100C400035404142434400BF00BF00BF01209549E9
:100C500018231A46CDE900102721632001F098F8E7
:100C60003EE000BF00BF00BF00BF00BF01208E49B3
:100C700018231A46CDE900102721632001F088F8D7
:100C80002EE000BF00BF00BF00BF00BF00BF00BF1D
:100C900000BF00BF00BF0120844918231A46CDE9D8
:100CA00000102721632001F073F819E000BF00BF96
:100CB00000BF00BF01207E4918231A46CDE900106D
:100CC0002721632001F064F80AE001207549182308
:100CD0001A46CDE900102721632001F059F800BF22
:100CE00000BF1CBD0EB501200F237F220021009004
:100CF000084600F09FFA00206EA3102201460090E3
:100D0000202001F010F80623012218210A2000F00B
:100D100089FB0323012218210A2000F083FB06230C
:100D2000012228210A2000F07DFB03230122282133
:100D30000A2000F077FB0623012238210A2000F068
:100D400071FB0323012238210A2000F06BFB0120F4
:100D500010235BA219460090142000F0C7FD01206B
:100D600058A3102211460090242000F0DCFF01203F
:100D7000102357A220210090142000F0B7FD01207D
:100D800054A3102220210090242000F0CCFF012049
:100D9000102353A230210090142000F0A7FD012061
:100DA00050A3102230210090242000F0BCFF01202D
:100DB0003F237F2200210090084600F0BAFA01206C
:100DC0003F2375220F210090104600F05AFA0120AF
:100DD00014217E221023CDE9002102907A22762070
:100DE00000F0B2FB01203A217E223E23CDE9002112
:100DF00002907A22762000F0A7FB0323012218211B
:100E00000A2000F038FB01201F23632210210090EC
:100E1000142000F00FFA0020102329A21946009098
:100E2000142000F063FD002026A31022114600903C
:100E3000242000F078FF01201C237E22172100903F
:100E4000762000F0F7F940F2DC5002F0EAFA0323D2
:100E5000002218210A2000F00EFB03230122182192
:100E60000A2000F0DFFA00201F23632210210090E7
:100E700014203DE0E81200209819002018020020FC
:100E8000B405002020150020800100205815002006
:100E9000C0010020E0010020F40100200802002031
:100EA000100200201800002060000020A800002090
:100EB00038010020CFB5CDB3C9E8D6C3000000008B
:100EC000412E0000D2F4C1BFC9E8D6C30000000023
:100ED000422E0000D1D5C9ABC9E8D6C3000000003E
:100EE000432E0000CDF8C2E7C9E8D6C300000000D9
:100EF00000F0A0F901201023AFF23C021946009047
:100F0000142000F0F3FC0120AFF248031022114638
:100F10000090242000F007FF00201C237E221721D0
:100F20000090762000F086F90323012228210A2070
:100F300000F0A1FA01202F23632220210090142029
:100F400000F078F900201023AFF27C0220210090FD
:100F5000142000F0CBFC0020AFF2880310222021E7
:100F60000090242000F0DFFE01202A237E2225218C
:100F70000090762000F05EF940F2DC5002F051FA69
:100F80000323002228210A2000F075FA03230122FE
:100F900028210A2000F046FA00202F236322202176
:100FA0000090142000F046F901201023AFF2E00277
:100FB00020210090142000F099FC0120AFF2EC03F6
:100FC000102220210090242000F0ADFE00202A23D2
:100FD0007E2225210090762000F02CF903230122A7
:100FE00038210A2000F047FA01203F2363223021F4
:100FF0000090142000F01EF900201023AFF2201200
:1010000030210090142000F071FC0020AFF22C136E
:10101000102230210090242000F085FE012037238B
:101020007E2232210090762000F004F940F2DC505C
:1010300002F0F7F90EBD7CB5654804F08DFB012088
:101040000A237F2219460090002000F01AF901209F
:101050003F231A460B210090184600F012F9012098
:1010600024237F22194600903F2000F00AF9012036
:10107000082358A201460090002000F037FC012010
:10108000082357A2014600904E2000F02FFC0120BB
:10109000082356A2352100900E2000F027FC0120E5
:1010A000082354A20D210090412000F01FFC0223D0
:1010B000012219216C2000F0B5F9012010234FA264
:1010C00014210090712000F011FC012010234CA28B
:1010D00014210090482000F009FC012008234AA2B6
:1010E00027210090412000F001FC0120102348A29C
:1010F0002E210090442000F0F9FB012046492023D6
:101100003322CDE900101021062000F041FE002519
:101110005BE0FFF763F8044601201021CDE90010E1
:10112000E01704EB90708010A4EB800201231421DF
:10113000482000F029FCFFF751F80A2190FBF1F25A
:1011400001FB12040120102103462246CDE90010C4
:101150001421502000F018FCFFF740F80A2190FB02
:10116000F1F201FB12040120102103462246CDE9D1
:1011700000101421602000F007FCFFF72FF80A216F
:1011800090FBF1F201FB12040120102103462246DC
:10119000CDE900102E21442000F0F6FBFFF71EF8E9
:1011A0000A2190FBF1F201FB1204012010210346F9
:1011B0002246CDE900102E214C2000F0E5FB4FF433
:1011C000FA7002F02EF9681CC5B20F2DA1DB7CBDB0
:1011D00040E20100323031392D30382D31370000F6
:1011E000536174757264617900000000436C6F751F
:1011F0006479000054454D50000000004300000099
:1012000033322E3500000000504D322E35000000E4
:10121000393075672F6D33000806002070B504461D
:101220000D46164632462946204600F05AFE00F08A
:1012300095FE70BD2DE9F05F04460D469046994637
:10124000A8EB0400401C00F0FF0AA9EB0500401CBD
:1012500000F0FF0B00260EE0002708E0AA19D1B22B
:10126000E219D0B20A9A00F03CFE781CC7B257458A
:10127000F4DB701CC6B25E45EEDB00F06FFEBDE82D
:10128000F09F2DE9FF4F85B081468A4600200390EC
:1012900083460798A0EB09050898A0EB0A06CDF84D
:1012A0000890CDF804A0002D01DD012705E00DB95F
:1012B000002702E04FF0FF376D42002E02DD4FF0B5
:1012C000010806E016B94FF0000802E04FF0FF38C1
:1012D0007642B54201DD2C4600E034460020049001
:1012E0001EE0019AD1B2029AD0B2129A00F0F9FD32
:1012F000039828440390B3440398A04205DD039863
:10130000001B0390029838440290A34504DDABEB28
:10131000040B0198404401900498401C80B2049052
:10132000611C04988842DCDD00F018FE09B0BDE8BD
:10133000F08F2DE9F84305460E4617469846089C5F
:1013400033463A46314628460094FFF79AFF434613
:101350002A46314628460094FFF793FF43463A4613
:10136000414628460094FFF78CFF43463A463146F3
:1013700038460094FFF785FFBDE8F8832DE9F84370
:1013800004460D4616461F46DDF820803B46324691
:1013900029462046CDF80080FFF74CFFBDE8F883D2
:1013A0002DE9F04104460D4616461F46DDF818802B
:1013B000EA19D1B2A219D0B2424600F092FDEA1960
:1013C000D1B2A21BD0B2424600F08BFDEA1BD1B2D3
:1013D000A219D0B2424600F084FDEA1BD1B2A21B92
:1013E000D0B2424600F07DFDAA19D1B2E219D0B2C6
:1013F000424600F076FDAA19D1B2E21BD0B24246B5
:1014000000F06FFDAA1BD1B2E219D0B2424600F043
:1014100068FDAA1BD1B2E21BD0B2424600F061FDCA
:10142000BDE8F0812DE9F84F81468A4690461E4678
:10143000002435467000C0F1030716E0EBB2E2B2BB
:1014400051464846CDF80080FFF7AAFF002F04DA86
:10145000042000FB0470871D06E0601B042101FBD3
:10146000007000F10A076D1E641CAC42E6DD00F05E
:1014700075FDBDE8F88F2DE9F84F82468B46914601
:101480001E46002435467000C0F103081DE02746C3
:1014900008E0FBB2E2B259465046CDF80090FFF7A3
:1014A0007FFF7F1CAF42F4DDB8F1000F05DA0420A6
:1014B00000FB048000F1060806E0601B042101FB2C
:1014C000008000F10A086D1E641CAC42DFDD00F0F4
:1014D00045FDBDE8F88F2DE9F84F05460E46174645
:1014E0009846DDE90A9A0C9C43463A46314628461E
:1014F0000094FFF7C6FE53464A46414638460094DC
:10150000FFF7BFFE33462A46514648460094FFF790
:10151000B8FEBDE8F88F02780B7803700A70704748
:101520002DE9F04105460E461746984600242C4604
:1015300006E042463946204600F0D3FC601CC4B2A7
:10154000B442F6DDBDE8F0812DE9FF4F85B00026FD
:1015500000279DF818009DF82010884207DD08A993
:1015600006A8FFF7D8FF07A905A8FFF7D4FF9DF845
:1015700020009DF84C10884207DD08A913A8FFF74A
:10158000CAFF07A912A8FFF7C6FF9DF818009DF82B
:101590002010884207DD08A906A8FFF7BCFF07A9AD
:1015A00005A8FFF7B8FF9DF818009DF84C10884279
:1015B00035D19DF81400039004909DF81C009DF80F
:1015C0001010884203DA9DF81C00049008E09DF892
:1015D0001C009DF80C10884202DD9DF81C00039051
:1015E0009DF848009DF81010884203DA9DF84800E5
:1015F000049008E09DF848009DF80C10884202DD38
:101600009DF8480003909DF818209DF80C109DF857
:101610001000149BFFF784FF09B0BDE8F08F9DF820
:101620001C009DF81410A0EB010B9DF820009DF804
:101630001810401A02909DF848009DF81410451AA1
:101640009DF84C009DF81810A0EB01099DF848008A
:101650009DF81C10A0EB010A9DF84C009DF820108D
:10166000401A01909DF820009DF84C10884202D14C
:101670009DF8208004E09DF82000401E00F0FF0847
:101680009DF8184024E0029896FBF0F09DF81410A5
:101690000844C0B2049097FBF9F09DF81410084478
:1016A000C0B203905E442F449DF810009DF80C10CA
:1016B000884203DD03A904A8FFF72DFF22469DF809
:1016C0000C109DF81000149BFFF72AFF601CC4B299
:1016D0004445D8DD9DF82000201A00FB0AF69DF84D
:1016E0001800201A00FB05F724E0019896FBF0F0A3
:1016F0009DF81C100844C0B2049097FBF9F09DF8C7
:1017000014100844C0B2039056442F449DF81000B2
:101710009DF80C10884203DD03A904A8FFF7FBFE27
:1017200022469DF80C109DF81000149BFFF7F8FE60
:10173000601CC4B29DF84C008442D6DD00F00EFC63
:1017400000BF69E72DE9FC5F06460F4693469946C0
:101750004FF0000800240025B9F1120F04D1ABF1BD
:10176000300000F0FF0803E0ABF1200000F0FF08BC
:101770007F2E02DD0026B81CC7B2B9F1120F4BD183
:10178000002446E00C9838B108EBC80004EB800058
:10179000FB49085C019008E008EBC80004EB8000FE
:1017A000F749085CC043C0B2019000252DE08020BD
:1017B00028410199084098B1A24604EBDA7207EB80
:1017C0006202D1B204EBD4725210A4EB420206EBD7
:1017D000C2022A44D0B20122009400F082FB12E03F
:1017E000A24604EBDA7207EB6202D1B204EBD472C8
:1017F0005210A4EB420206EBC2022A44D0B20022ED
:10180000009400F06EFB681CC5B2082DCFDB601C95
:10181000C4B2242CB6DB67E0B9F1100F2FD100243D
:101820002AE00C9828B104EB0810D649085C019016
:1018300006E004EB0810D349085CC043C0B2019035
:10184000002515E0802028410199084038B13A1957
:10185000D1B27219D0B2012200F043FB06E03A196E
:10186000D1B27219D0B2002200F03BFB681CC5B2A5
:10187000082DE7DB601CC4B2102CD2DB34E0B9F1D8
:10188000080F2FD100242AE00C9828B1BE4800EBA5
:10189000C800005D019006E0BB4800EBC800005D99
:1018A000C043C0B20190002515E080202841019975
:1018B000084038B13A19D1B27219D0B2012200F001
:1018C00010FB06E03A19D1B27219D0B2002200F032
:1018D00008FB681CC5B2082DE7DB601CC4B2082CED
:1018E000D2DB01E0BDE8FC9F00BFFBE72DE9F84F2C
:1018F0000646894617461C46DDF828A04FF000082A
:10190000122C06D1204604EBD0714910C91DCDB26E
:1019100012E0102C05D1204604EBD071C1F347052D
:101920000AE0082C06D1204604EBD0714910891C2E
:10193000CDB201E0BDE8F88F15E0CDF800A017F8B2
:101940000820234649463046FFF7FCFE7019C6B210
:10195000782E04DD002609EB040000F0FF0908F1F1
:10196000010000F0FF0817F808000028E5D100BFCB
:10197000E0E710B50246012000E050430B1EA1F144
:101980000104E1B2F9D110BD2DE9FF4F83B08046CB
:1019900092461E46DDE9104B00200290102C05D126
:1019A000204604EBD071C1F347070BE0082C06D1A9
:1019B000204604EBD0714910891CCFB202E007B079
:1019C000BDE8F08F002530E0701B401EC1B20A2038
:1019D000FFF7CFFFBAFBF0F00A21B0FBF1F201FBF9
:1019E0001209029890B9701EA8420FDDB9F1000FDC
:1019F0000AD107FB0581C8B223462022CDF800B0EA
:101A00000499FFF79FFE0EE00120029009F13001DA
:101A1000CAB207FB0581C8B22346CDF800B00499CD
:101A2000FFF790FE00BF681CC5B2B542CCDB00BF1B
:101A3000C5E72DE9FF4F83B08046894692460A20CC
:101A40000190002562E005EB0510504911F81000E7
:101A50009AF80010884257D105EB05104B4901EB6D
:101A6000400040789AF8011088424DD1002448E0A7
:101A7000069840B105EB0510444901EB4000801C7D
:101A8000005D029009E005EB0510404901EB4000C4
:101A9000801C005DC043C0B2029000262DE0802073
:101AA00030410299084098B1274604EBD77209EB00
:101AB0006202D1B2A34604EBDB725210A4EB4202E5
:101AC00008EBC2023244D0B2012200F00AFA12E05E
:101AD000274604EBD77209EB6202D1B2A34604EBAE
:101AE000DB725210A4EB420208EBC2023244D0B2C5
:101AF000002200F0F6F9701CC6B2082ECFDB601C85
:101B0000C4B2202CB4DB04E0681CC5B20198854245
:101B100099DB00BF00F022FA07B0BDE8F08F2DE995
:101B2000FE4F0746884691469B46062002900025B8
:101B300077E005EB850000EB4510154911F8100022
:101B400099F8001088426AD105EB850000EB45103A
:101B50000F4901EB4000407899F8011088425ED1AE
:101B6000002459E0BBF1000F14D005EB850000EB19
:101B70004510074901EB4000801C10F804A015E057
:101B800000730008106D0008186A000862770008EA
:101B9000B678000805EB850000EB4510A64901EB7F
:101BA0004000801C005DC04300F0FF0A00262FE0CB
:101BB0008020304100EA0A00A0B1032094FBF0F03D
:101BC0004044C0B20190032094FBF0F100FB1140AF
:101BD00007EBC0003044C0B201220090019900F030
:101BE00080F913E0032094FBF0F04044C0B2019070
:101BF000032094FBF0F100FB114007EBC0003044E0
:101C0000C0B200220090019900F06BF9701CC6B2BE
:101C1000082ECDDB601CC4B2482CA3DB04E0681C9A
:101C2000C5B20298854284DB00BF00F097F9BDE899
:101C3000FE8F2DE9FF4F83B08046894692460620ED
:101C40000190002566E005EB85107C4911F8100035
:101C50009AF8001088425BD105EB8510774901EBBB
:101C6000400040789AF80110884251D100244CE09D
:101C7000069840B105EB8510704901EB4000801CCF
:101C8000005D029009E005EB85106C4901EB400016
:101C9000801C005DC043C0B20290002731E080206C
:101CA000384102990840A8B12646E21704EB927227
:101CB00009EBA202D1B2A346E21704EB9272921092
:101CC000A4EB820208EBC2023A44D0B2012200F037
:101CD00008F914E02646E21704EB927209EBA2021F
:101CE000D1B2A346E21704EB92729210A4EB8202E7
:101CF00008EBC2023A44D0B2002200F0F2F8781C9D
:101D0000C7B2082FCBDB601CC4B2802CB0DB04E070
:101D1000681CC5B20198854295DB00BF00F01EF932
:101D200007B0BDE8F08F2DE9F04106460F46144696
:101D30001D46DDF8188026E0102C06D143462A46C1
:101D400039463046FFF775FE13E0182C06D143469E
:101D50002A4639463046FFF7E2FE0AE0202C06D13B
:101D600043462A4639463046FFF763FF01E0BDE8A7
:101D7000F0813019C6B2C4F18000B04202DA002608
:101D80003819C7B2AD1C28780028D5D100BFEEE7BE
:101D90002DE9F84F8046894617469A46DDF828B067
:101DA000002545E000243AE00B9850B1F81DC1171A
:101DB00000EB5171C91005FB01411BF801100091A6
:101DC0000BE0F81DC11700EB5171C91005FB014173
:101DD0001BF80110C943C9B2009100261BE0802006
:101DE00030410099084050B109EB0502D1B208EB2F
:101DF000C4023244D0B2012200F073F809E009EBCA
:101E00000502D1B208EBC4023244D0B2002200F085
:101E100068F8701CC6B2082EE1DB601CC4B2F81D65
:101E2000C11700EB5171B4EBE10FBDDB681CC5B20B
:101E30005545B7DBBDE8F88FB6780008727A000820
:101E400070B504460D4625B11021AA4801F051FD98
:101E500003E01021A74801F04EFD0821A54801F03C
:101E60004AFDE0B200F04AF90821A24801F041FD24
:101E700070BD70B505460C462646E11704EB51715E
:101E8000C91001F1B0000021FFF7DAFFA91CC1F36E
:101E9000031141F010000021FFF7D2FFA91C01F04F
:101EA0000F000021FFF7CCFF70BD10B500218D2081
:101EB000FFF7C6FF00211420FFF7C2FF0021AF206B
:101EC000FFF7BEFF10BD10B500218D20FFF7B8FF52
:101ED00000211020FFF7B4FF0021AE20FFF7B0FF74
:101EE00010BDF0B503461446E4B1CD1701EB5575AE
:101EF000ED1003EBC515804E755D0A46CE1701EB5C
:101F00005676F610A1EBC6070126BE40F6B2354361
:101F10000846CE1701EB5676F61003EBC616764F41
:101F2000BD551AE0CD1701EB5575ED1003EBC51546
:101F3000714E755D0A46CE1701EB5676F610A1EB91
:101F4000C6070126BE40B5430846CE1701EB5676BC
:101F5000F61003EBC616684FBD55F0BD70B50024F2
:101F60001BE004F1B0000021FFF76AFF00210846E2
:101F7000FFF766FF00211020FFF762FF002508E051
:101F800005EBC4115C4A505C0121FFF759FF681C46
:101F9000C5B2802DF4DB601CC4B2082CE1DB70BD3F
:101FA00010B5044634B1FF224FF48061524803F06B
:101FB000C5FC04E04FF480614F4803F0C7FCFFF715
:101FC000CDFF10BD10B520214A4801F092FC6420DD
:101FD00001F027FA2021474801F08DFC642001F030
:101FE00020FA2021434801F084FC10BD08B50121EE
:101FF000042001F08DFEF820ADF8000010208DF8CF
:10200000030003208DF8020069463A4801F0C4FB42
:10201000F821384801F06DFC08BD10B5FFF7E6FF68
:10202000C82001F0FEF9FFF7CDFF0021AE20FFF739
:1020300007FF00210846FFF703FF00211020FFF7EC
:10204000FFFE00214020FFF7FBFE0021B020FFF73C
:10205000F7FE00218120FFF7F3FE0021FF20FFF7AC
:10206000EFFE0021A120FFF7EBFE0021A620FFF7E5
:10207000E7FE0021A820FFF7E3FE00213F20FFF745
:10208000DFFE0021C820FFF7DBFE0021D320FFF791
:10209000D7FE00210846FFF7D3FE0021D520FFF729
:1020A000CFFE00218020FFF7CBFE0021D920FFF7D3
:1020B000C7FE0021F120FFF7C3FE0021DA20FFF761
:1020C000BFFE00211220FFF7BBFE0021DB20FFF73F
:1020D000B7FE00213020FFF7B3FE00218D20FFF76F
:1020E000AFFE00211420FFF7ABFE0021AF20FFF769
:1020F000A7FE10BD000801409815002070B50446E9
:102100000025082517E004F0800020B140210B488D
:1021100001F0EFFB03E04021084801F0ECFB8021D7
:10212000064801F0E8FB8021044801F0E2FB60066C
:10213000040E681EC5B2002DE5DC70BD000801402C
:1021400010B56248006820F4706060490860084675
:10215000006840F44070086000205D490860142069
:1021600001F05FF901205B49C1F888011E2001F0F0
:1021700034F910BD10B500245448006820F4706094
:10218000524908600846006840F40060086004E0B6
:10219000601CC4B2012001F020F94D48803800686D
:1021A00008B1642CF4DB642C01DB012010BD002499
:1021B00004E0601CC4B2012001F00FF944488038EB
:1021C000006808B9642CF4DB642C01DB0120EDE726
:1021D0000020EBE710B5002404E0601CC4B201202D
:1021E00001F0FBF83A488038006808B1642CF4DB51
:1021F000002404E0601CC4B2012001F0EEF8344871
:102200008038006808B9642CF4DB282001F0E5F878
:102210002F488038006808B1012010BD0020FCE77D
:1022200070B50024002506E06006040EFFF7D2FF1B
:102230000443681CC5B2082DF6DB204670BD7CB592
:1022400005460E46FFF77CFFFFF794FFF8B9002420
:1022500005E0FFF7E5FF0DF80400601CC4B2052C93
:10226000F7DB9DF800009DF8011008449DF802106E
:1022700008449DF8031008449DF80410884208D1D2
:102280009DF8000030709DF80200287001E00120E8
:102290007CBD0020FCE708B50121042001F038FDD9
:1022A0000420ADF8000010208DF8030003208DF805
:1022B00002006946054801F06FFA0421034801F065
:1022C00018FBFFF73DFFFFF755FF08BD0008014071
:1022D000880121420000214208B503208DF800004A
:1022E00000208DF801008DF8020001208DF8030018
:1022F000684601F088F908BDF0B503460C4615465E
:10230000642093FBF0F0C6B2642093FBF0F700FB6F
:102310001730C1B2132E02DD01F16400C1B20846CC
:10232000CF1701EB977701EBA707BAB2072092FB13
:10233000F0F700FB172082B25719601EDFF870C358
:102340001CF80000384482B2CF1701EB9777BF101A
:10235000A1EB87071FB9032C01DA501E82B20720B8
:1023600092FBF0F700FB1720C0B2F0BD0146CA1780
:1023700001EB92729210A1EB820292B9642091FB60
:10238000F0F200FB121050B94FF4C87091FBF0F25C
:1023900000FB121008B9012070470020FCE7012063
:1023A000FAE70020F8E770B500260024002501F0C8
:1023B00033FD0646BF48B6FBF0F4BF480088A04294
:1023C0003CD0BD490C8040F2B27510E02846FFF7C2
:1023D000CDFF40B1B4F5B77F02D3A4F5B77404E0E4
:1023E000681C85B206E0A4F26D14681C85B2B4F5D1
:1023F000B67FEBD800BFB1488580002516E0AF4915
:102400008888FFF7B3FF30B1012D04D11D2C01D313
:102410001D3C09E00CE0AA48405DA04203D8A84852
:10242000405D241A00E003E0681C85B21C2CE6D253
:1024300000BF681CA1498871601CC8719D48B6FB2B
:10244000F0F100FB11644FF46160B4FBF0F09B49C4
:1024500008704FF46160B4FBF0F100FB11403C21C7
:10246000B0FBF1F0954948704FF46160B4FBF0F1B6
:1024700000FB11403C21B0FBF1F201FB12008F493F
:1024800088700B46DA7999799888FFF735FF8B4980
:102490000872002070BD2DE9F05F06460F46904699
:1024A0009946DDE90AAB002440F2B270864203DBB4
:1024B00040F63300864202DD0120BDE8F09F40F285
:1024C000B2750AE02846FFF751FF10B17D48044479
:1024D00001E07D480444681C85B2B542F2DB781EF9
:1024E000C7B2002510E07648405D40F2A321484382
:1024F00004EBC0143046FFF739FF18B1012D01D1AC
:102500006C480444681C85B2BD42ECDBA8F10100B4
:1025100040F2A321484304EBC014C9EB4910C0EBBF
:10252000092004EB0014CAEB0A1004EB80045C449D
:1025300001214FF0C05001F0F8FB012001F061FFD4
:10254000204601F072FC01F0A3FC0020B5E71CB5A9
:10255000002401214FF0C05001F0E7FB012001F001
:1025600050FF042001F015FF45F2500188423BD096
:1025700001F0DAFE012001F038FB04E0601CC4B277
:102580000A2000F04EFF412001F097FA08B9FA2C1A
:10259000F4DBFA2C01DB01201CBD4FF4807001F04C
:1025A00040FB012001F043FB01F072FC01F079FCDB
:1025B00001F06EFC01F01DFC47F6FF7001F042FCDB
:1025C00001F066FC002000900346012211460190B4
:1025D00040F2E670FFF75FFF01F014FC45F2500196
:1025E000042001F0CAFE03E001F05BFC01F050FCA6
:1025F000FFF7D9FE0020CFE72DE9F05F06460F4632
:1026000090469946DDE90AAB002440F2B27086425A
:1026100003DB40F63300864202DD0120BDE8F09F77
:1026200040F2B2750AE02846FFF7A0FE10B1254837
:10263000044401E024480444681C85B2B542F2DB3E
:10264000781EC7B2002510E01D48405D40F2A3216E
:10265000484304EBC0143046FFF788FE18B1012D43
:1026600001D114480444681C85B2BD42ECDBA8F1DA
:10267000010040F2A321484304EBC014C9EB491008
:10268000C0EB092004EB0014CAEB0A1004EB800431
:102690005C4401214FF0C05001F047FB012001F0E4
:1026A000B0FE204601F0DCFB01F0F2FB0020B5E7B4
:1026B0007E7D000880510100E81400209819002058
:1026C0008A7D00080085E2018033E10108B540F60B
:1026D000B830E64BE6A2E8A10090E94800F044FBE0
:1026E00008B1012008BD40F6B830E04BE0A2E5A1FA
:1026F0000090E34800F038FB08B10120F2E740F613
:10270000B830DA4BDAA2E1A10090DD4800F02CFBF2
:1027100008B10120E6E70020E4E708B540F6B8304C
:10272000D24BD3A2D4A10090D54800F01DFB08B134
:10273000012008BD40F6B830CC4BD74AD7A1009055
:10274000CF4800F011FB08B10120F2E70020F0E7CC
:1027500000B58FB0D5A0D9A3DCA23221009002A889
:1027600002F082FF40F6B830C04BC1A2C2A1009077
:10277000C34800F0F9FA10B101200FB000BD4FF4CA
:10278000FA50BA4BD7A202A90090BD4800F0ECFA6B
:1027900008B10120F1E70020EFE770B58EB02021ED
:1027A00006A803F0F5F840F6B830B04BB0A2B2A1DD
:1027B0000090B34800F0D8FA10B101200EB070BDFF
:1027C00040F6B830A94BAAA2CAA10090AC4800F0CC
:1027D000CBFA08B10120F1E74FF47A7000F021FE46
:1027E0000024ABE040F6B830A04BA1A2C6A10090F7
:1027F000A34800F0B9FA00287DD1C8A19B4802F097
:10280000C9FF002878D19948001F008801B20D2324
:10281000C4A2964802F0A9FD45B2B5F1FF3F6BD0C6
:10282000924805F10D028118182206A803F00FF84E
:102830009DF82C0000F00F004FF47A7148439DF88A
:102840002D1001F00F0101EBC10202EB011100EBB1
:1028500081009DF82E1001F00F0101EB810100EBCA
:1028600041009DF82F1001F00F01084480B2ADF82F
:102870001000032107A802F094FD8DF812009DF8C6
:10288000210000F00F009DF8201001F00F0101EB76
:10289000810100EB4100C0B28DF81300032106A8AE
:1028A00002F09EFD8DF814009DF8240000F00F004A
:1028B0009DF8231001F00F0101EB810100EB4100B5
:1028C000C0B28DF80C009DF8270000F00F009DF8B5
:1028D000261001F00F0101EB810100EB4100C0B2B5
:1028E0008DF80D009DF82A0000F00F009DF82910CA
:1028F00001F00F0101E019E01AE001EB810100EBAA
:102900004100C0B28DF80E009DF80E009DF80D102C
:10291000CDE900109DF80C309DF813209DF81210A1
:10292000BDF81000FFF7B7FD002047E7012045E79D
:102930004FF47A7000F075FD601CC4B2082CFFF6ED
:1029400051AF01203AE710B58EB07AA07AA37FA2EA
:102950003221009001A802F087FE40F6B830434BC8
:1029600043A245A10090464800F0FEF910B10120B5
:102970000EB010BD40F6B8303C4B3DA201A900900E
:102980003F4800F0F1F908B10120F1E740F6B83016
:10299000364B37A274A10090394800F0E5F908B130
:1029A0000120E5E740F6B830304B31A272A100902B
:1029B000334800F0D9F908B10120D9E740F6B83022
:1029C0002A4B71A2724900902D4800F0CDF908B150
:1029D0000120CDE72548001F008801B204236AA228
:1029E000224802F0C2FCB0F1FF3F28D01F48001F70
:1029F000008801B2042364A21C4802F0B6FCC4B2F1
:102A00001A4804F10801405C222807D11748E11D4B
:102A1000405C00F00F005F49C87010E0134804F1FB
:102A20000801405C00F00F021048E11D405C00F01E
:102A30000F0000EB800002EB40005649C870642094
:102A400000F0EFFC40F6B830084B53A254A10090C0
:102A50000B4800F089F908B1012089E74FF4FA70BA
:102A600000F0DFFC002083E770470000A61900207B
:102A70004F4B0D0A0000000041540D0A00000000F9
:102A800000480040415445300D0A000041542B528B
:102A900053540D0A00000000EC14002041542B4355
:102AA000574A41505F4445463F0D0A0067616F62D7
:102AB000696E79696E673132332E2E0048656C6C11
:102AC0006F7720776F726C640000000041542B43D5
:102AD000574A41503D222573222C222573220D0A8C
:102AE000000000005749464920474F542049500DE7
:102AF0000A00000041542B434950534E5450434662
:102B0000473D312C380D0A0041542B434950534E58
:102B1000545054494D453F0D0A00000031393730BB
:102B2000000000002B434950534E545054494D452A
:102B30003A000000383000006170692E73656E69DC
:102B400076657273652E636F6D00000041542B43F0
:102B5000495053544152543D22544350222C222573
:102B600073222C25730D0A0041542B4349504D4FBD
:102B700044453D310D0A000041542B434950534513
:102B80004E440D0A00000000636F64650000000001
:102B9000507E000820150020434C4F534544000050
:102BA0002B2B2B0010B540F225517B4801F078FB10
:102BB00070B340F22551784801F09CFB764801F053
:102BC000EFFAC4B275480088B0F5967F20DA7348F2
:102BD00001880088401C714A1080101D44540A2C42
:102BE00005D00D2C0BD155201146C8700FE06B4855
:102BF000C078552802D1AA206849C87007E0674804
:102C0000C078AA2802D000206449C87000BF00BF65
:102C100010BD10B586B004460121082001F078F8F7
:102C20000121880401F081F85B4801F079F94FF443
:102C30008060ADF8140003208DF8160018208DF880
:102C4000170005A9564800F0A7FD4FF40060ADF845
:102C5000140004208DF8170005A9514800F09CFDD0
:102C600001940020ADF80800ADF80A00ADF80C00A2
:102C7000ADF810000C20ADF80E0001A9464801F097
:102C800092F927208DF8000001208DF801008DF8C1
:102C900002008DF80300684600F0B5FC012240F206
:102CA00025513D4801F017FA01213B4801F007FA90
:102CB00006B010BD2DE9F04107460D46164600242A
:102CC0000CE000BF4021384601F0D4FA0128F9D1C8
:102CD000295D384601F060FA601C84B2B442F0DB32
:102CE00000BF4021384601F0C5FA0128F9D1BDE8FE
:102CF000F0812DE9F04106460C46204602F088FDA1
:102D000087B200250CE000BF4021304601F0B2FA46
:102D10000128F9D1615D304601F03EFA681C85B2A8
:102D2000BD42F0DB00BF4021304601F0A3FA01288C
:102D3000F9D1BDE8F0812DE9F04104460D46164673
:102D400000270DE0142000F06CFB2146284602F01D
:102D500021FD10B10020BDE8F08107F1140087B219
:102D6000B742EFDB0120F6E72DE9F04106460F46BA
:102D700014461D46DDF818804FF49871074802F09C
:102D8000E5FD39463046FFF7B4FF42462946204666
:102D9000FFF7D1FFBDE8F08100480040A2190020F4
:102DA000000C0140014600200A46D37B23B1012BD1
:102DB00006D0022B0DD107E0F94B1B68D8B209E011
:102DC000F84B1B68D8B205E0F64B1B1F1B68D8B246
:102DD00000E000BF00BF704700204BE000EB800127
:102DE000F14A02EB8101C873F04900EB8002EE4B1F
:102DF00043F82210002100EB800203EB82021171E4
:102E000000EB800203EB82025171012100EB800292
:102E100003EB8202D180322100EB800203EB8202BD
:102E200011814FF4967100EB800203EB8202518115
:102E3000002100EB800203EB8202117400EB8002A0
:102E400003EB8202918100EB800203EB820291731B
:102E500000EB800203EB82025174012801D00228AA
:102E600006D1AA2100EB8002CF4B03EB8202517402
:102E7000411CC8B20328B1DB704770B5002500249F
:102E800014E004EB8402C84B03EB820004EB8402E1
:102E900053F82210884704EB8401C34A02EB8101F6
:102EA000097C4840A0400543601CC4B2032CE8DB09
:102EB000284670BD30B50246002000216BE101EBD1
:102EC0008103B94C04EB83035B79012B20D101EB27
:102ED000810304EB83039B895B1C01EB8104B24DEE
:102EE00005EB8404A38101EB81032C4604EB8303EF
:102EF0009B894FF6FF74A3420ADB01EB81032C464A
:102F000004EB83035B8901EB810405EB8404A3815B
:102F100001EB8103A44C04EB83031B7933B1012B38
:102F200075D0022B71D0032B70D1CDE022FA01F3C2
:102F300003F0010373B301EB81039B4C04EB8303A8
:102F40005B7993B9002301EB8104974D05EB840471
:102F5000A38101EB810405EB8404A373012301EB3E
:102F6000810405EB840463714DE001EB81038E4C19
:102F700004EB83039B8901EB81048B4D05EB8404F7
:102F8000E488A3423FDB012301EB810405EB8404C9
:102F9000237138E001EB8103834C04EB83039B7BBB
:102FA000012B10DD002301EB81047F4D05EB840430
:102FB000A373032301EB810405EB840463710123F4
:102FC0008B4018431FE001EB8103774C04EB830334
:102FD0009B7B012B10D1002301EB8104724D05EB8B
:102FE0008404A373022301EB810405EB8404637161
:102FF00001238B40184306E0002301EB81046A4D56
:1030000005EB84046371C3E001E0B3E0BFE022FAA2
:1030100001F303F00103E3B301EB8103624C04EB22
:1030200083039B7B002B16DD002301EB81045E4DA7
:1030300005EB8404A373032301EB810405EB8404F3
:103040006371022301EB810405EB840423710123E6
:103050008B40184337E001EB8103534C04EB8303AF
:103060009B8901EB8104504D05EB84046489A342E4
:1030700029DB042301EB810405EB84046371022343
:1030800001EB810405EB8404237101238B40184379
:1030900019E0FFE7002301EB8104434D05EB8404B5
:1030A000A38101EB81032C4604EB83039B7B5B1C18
:1030B00001EB810405EB8404A373032301EB81047A
:1030C00005EB8404237163E022FA01F303F00103AA
:1030D00093B1002301EB8104334D05EB8404A381FC
:1030E00001EB810405EB84042371012301EB8104CE
:1030F00005EB840463713CE001EB81032A4C04EB93
:1031000083039B8901EB8104274D05EB840424890B
:10311000A3422EDB01EB81032C4604EB83039B7B54
:10312000012B0FDD002301EB810405EB8404A37365
:10313000032301EB810405EB8404637101238B40BD
:1031400018430FE0002301EB8104174D05EB8404C5
:10315000A373022301EB810405EB84046371012353
:103160008B401843002301EB81040F4D05EB8404D1
:1031700023710DE022FA01F303F0010333B90023B8
:1031800001EB8104084D05EB8404237100BF00BFEF
:1031900000BF4B1CD9B20329FFF691AE30BD000031
:1031A0000081214204012142D41A0020A52D0008EB
:1031B00000204A49497E022907D1484991F82D103B
:1031C000022901D1AA2000E05520704710B54349DB
:1031D000497E012903DC4149497E012943DD4049FB
:1031E000097879B1FFF7E4FF60B1AA2805D13C491D
:1031F0004978491C3A4B597004E039494978491ECD
:10320000374B59703749097831B1012911D002295A
:1032100025D0032925D123E03049497E042907D14F
:103220000121304B197055212D4B19700121597016
:1032300018E02A49497E022909D12A490978284BF0
:103240005B781944274B19700021254B597024498C
:103250004978042902DB0121214B597002E001E089
:1032600000E000BF00BF002208E0002102EB820363
:103270001A4C04EB83035971511CCAB2032AF4DBC4
:1032800010BD08B501210C2000F042FD0320ADF86F
:10329000000048208DF8030003208DF802006946E5
:1032A000114800F079FA0120ADF8000048208DF8AF
:1032B000030003208DF8020069460C4800F06CFA08
:1032C000FFF78AFD08BD10B5FFF7D7FD044620467D
:1032D000FFF7F0FD08B1FFF779FF10BDD41A002009
:1032E000541500205215002000080140000C014038
:1032F0001FB50121022000F018FD6420ADF8080080
:1033000040F2CF20ADF804000020ADF80A00ADF87F
:10331000060001A9214801F0A3F91D208DF8000045
:1033200000208DF8010003208DF8020001208DF8A7
:103330000300684600F067F901221146174801F0C2
:1033400006FD0121154801F0E7FC1FBD10B5012164
:10335000124801F0AAFFF8B10121104801F0B6FFB0
:103360000F480088401C0E490880084600880A2142
:1033700090FBF1F201FB120010B9AA2009498870F4
:10338000074800884FF47A7190FBF1F201FB1200BC
:1033900010B9AA200349C87010BD00000004004005
:1033A000241500202615002010B56FF0040000F051
:1033B00074F92E4800682E49B0FBF1F02D490870D1
:1033C0000846007800EB4001C1EBC0104FF6FF71DA
:1033D00001EAC0002849088010BD0146254A12783C
:1033E0004A434FF0E0235A6100229A611A4612695B
:1033F00042F001021A6100BF4FF0E022106900F0B4
:1034000001021AB100F48032002AF5D04FF0E02218
:10341000126922F001024FF0E0231A6100229A6142
:1034200070470146144A12884A434FF0E0235A611C
:1034300000229A611A46126942F001021A6100BF25
:103440004FF0E022106900F001021AB100F480325E
:10345000002AF5D04FF0E022126922F001024FF06D
:10346000E0231A6100229A617047000004000020E6
:1034700000127A002A1500202C15002000BF70478A
:1034800000BF4A4A128802F04002002AF9D0C2B2B4
:10349000464B1B1D1A80704710B586B004460121AB
:1034A00044F2040000F034FC4FF40070ADF8140056
:1034B00003208DF8160018208DF8170005A93C4848
:1034C00000F06AF94FF48060ADF8140004208DF824
:1034D000170005A9364800F05FF925208DF8000097
:1034E00003208DF801008DF8020001208DF8030003
:1034F000684600F088F801940020ADF80800ADF8A7
:103500000A00ADF80C00ADF810000C20ADF80E006C
:1035100001A9264800F047FD012240F22551234829
:1035200000F0D9FD0121214800F0C9FD06B010BD11
:1035300010B540F225511D4800F0B2FE10B31B48F3
:1035400000F02EFEC4B21B48008800F40040C8B949
:103550001848008800F4804060B10A2C03D0002095
:103560001449088020E01348008840F400401149C5
:10357000088019E00D2C06D10E48008840F48040E8
:103580000C49088010E00B480088C0F30D000A4980
:103590000C5408480088401C0649088008460088EA
:1035A000C72801DD0020088010BD00000038014060
:1035B0000008014034150020101B002009488047F6
:1035C00009480047FEE7FEE7FEE7FEE7FEE7FEE705
:1035D000FEE7FEE7FEE7FEE704480549054A064B1D
:1035E000704700001B040008ED000008201D0020AB
:1035F00020230020201F0020201F002031490143EC
:10360000314A1160704770B5002100230F22C47841
:1036100004B32D4C246804F4E064C4F5E064210A8A
:10362000C1F10403CA40447804FA03F184781440D9
:1036300021430901254C0678A155047804F01F05A3
:103640000124AC4005786D11AD0005F1E025C5F809
:10365000004109E0047804F01F050124AC401C4D32
:103660000678761145F8264070BD1A4A0A40024392
:10367000154B1B1F1A60704739B1134A121D12688F
:103680000243114B1B1D1A6006E00F4A121D1268FF
:1036900082430D4B1B1D1A607047042808D14FF060
:1036A000E021096941F004014FF0E022116107E0D7
:1036B0004FF0E021096921F004014FF0E02211618F
:1036C000704700000000FA050CED00E000E400E0A7
:1036D00080E100E080FFFF1F10B50446CC48844223
:1036E00008D10121042000F02DFB0021042000F06E
:1036F00029FB46E0C748844208D10121082000F098
:1037000021FB0021082000F01DFB3AE0C248844262
:1037100008D10121102000F015FB0021102000F03D
:1037200011FB2EE0BD48844208D10121202000F089
:1037300009FB0021202000F005FB22E0B84884426C
:1037400008D10121402000F0FDFA0021402000F0C6
:10375000F9FA16E0B348844208D10121802000F034
:10376000F1FA0021802000F0EDFA0AE0AE48844230
:1037700007D10121801500F0E5FA0021A01500F025
:10378000E1FA10BD10B50121084600F0DBFA002176
:10379000012000F0D7FA10BD2DE9F04102460025C6
:1037A0000026002000230024002791F803C00CF01D
:1037B0000F0591F803C00CF0100CBCF1000F03D002
:1037C00091F802C04CEA050591F800C0BCF1000F69
:1037D00031D0146800202BE04FF0010C0CFA00F3FC
:1037E000B1F800C00CEA03069E4220D183004FF0DE
:1037F0000F0C0CFA03F7BC4305FA03FC4CEA040473
:1038000091F803C0BCF1280F06D14FF0010C0CFA5F
:1038100000FCC2F814C00AE091F803C0BCF1480FE4
:1038200005D14FF0010C0CFA00FCC2F810C0401C8E
:103830000828D1D31460B1F800C0BCF1FF0F34DD0B
:10384000546800202EE000F1080C4FF0010808FA3F
:103850000CF3B1F800C00CEA03069E4221D18300AC
:103860004FF00F0C0CFA03F7BC4305FA03FC4CEACB
:10387000040491F803C0BCF1280F05D100F1080C35
:1038800008FA0CF8C2F8148091F803C0BCF1480F94
:1038900007D100F1080C4FF0010808FA0CF8C2F843
:1038A0001080401C0828CED35460BDE8F0814FF64C
:1038B000FF710180022181700421C17070470246AE
:1038C000002093680B400BB1012000E000207047FE
:1038D0000146886880B2704702460020D3680B40DA
:1038E0000BB1012000E0002070470146C86880B29B
:1038F000704701617047416170470AB1016100E0A2
:1039000041617047C16070474FF480320A43826161
:103910008161826182698269704702460020434B5F
:1039200018684FF68073184040EA021008433F4B76
:10393000186070473E49C8617047F0B50A460023D9
:1039400000240021002500F00046B6F1004F02D10E
:10395000364EF16901E0354E7168C0F3034583B21C
:1039600000F44016B6F5401F08D121F070612F4ECB
:10397000766826F070662D4F7E6012E000F48016A7
:10398000B6F5801F06D1032606FA05F4A14341F0DF
:10399000706106E0460D360103FA06F6B14341F0C8
:1039A000706122B1460D360103FA06F6314300F08C
:1039B0000046B6F1004F02D11C4EF16101E01B4EF2
:1039C0007160F0BD30B500228B071C0F0F2303FA86
:1039D00004F2164B08338C1053F824309343134CE5
:1039E00008348D1044F8253023468C1053F82430C9
:1039F0008C07240F00FA04F423430C4C08348D1078
:103A000044F8253030BD0A49DC31086070470000B9
:103A100000080140000C014000100140001401406A
:103A200000180140001C014000200140000001403E
:103A300000002042DF48006840F00100DD490860D6
:103A400008464068DC490840DA4948600846006892
:103A5000DA490840D74908600846006820F4802009
:103A600008600846406820F4FE0048604FF41F00DC
:103A700088607047CF49096821F48031CD4A1160D0
:103A80001146096821F480211160B0F5803F03D010
:103A9000B0F5802F0ED106E0C649096841F48031A7
:103AA000C44A116007E0C349096841F4A021C14A32
:103AB000116000E000BF00BF704710B50146002252
:103AC000002300204A11012A02D1BA4C236806E0E3
:103AD000022A02D1B74C236A01E0B64C636A01F0B6
:103AE0001F02012494401C400CB1012000E0002082
:103AF00010BD38B5002000900024002500BF312003
:103B0000FFF7DBFF05460098401C00900098B0F5D9
:103B1000A06F01D0002DF2D03120FFF7CEFF08B109
:103B2000012400E00024204638BD01460020A14ABF
:103B3000106820F0F80040EAC10010607047A0490A
:103B400008607047024600209A4B586820F47C10A9
:103B500042EA01031843974B58607047984908663A
:103B6000704701460020934A506820F00300084344
:103B7000506070478F48406800F00C007047014665
:103B800000208C4A506820F0F000084350607047D5
:103B900001460020874A506820F4E06008435060E6
:103BA000704701460020834A506820F4605040EA84
:103BB000C1005060704729B17E4A527A02437D4B62
:103BC0005A7204E07B4A527A82437A4B5A727047A7
:103BD0007B49D8310860704701460020754A50681B
:103BE00020F440400843506070470021714A203261
:103BF0001170704A82F82010012802D004280AD1DE
:103C000004E001216B4A2032117005E00521694A68
:103C10002032117000E000BF00BF704769490860A2
:103C200070476449096A0143624A116270476549F5
:103C300044390860704730B5002100220024002379
:103C40005C4D6D6805F00C0121B1042905D00829EF
:103C500023D105E05C4D056022E05B4D05601FE06F
:103C6000544D6D6805F47012524D6D6805F4803442
:103C7000022505EB92421CB9544D554305600BE0FB
:103C80004C4D6D6805F400351DB1504D5543056030
:103C900002E04D4D5543056002E04B4D056000BF0D
:103CA00000BF444D6D6805F0F0010909484D6B5C9B
:103CB0000568DD4045603F4D6D6805F4E061090A27
:103CC000434D6B5C4568DD4085603A4D6D6805F499
:103CD0006051C90A3E4D6B5C4568DD40C560354D9D
:103CE0006D6805F44041890B3A4D6B5CC568B5FBC6
:103CF000F3F5056130BD29B12E4A526902432D4BBF
:103D00005A6104E02B4A526982432A4B5A61704738
:103D100029B1284A92690243264B9A6104E0254A58
:103D200092698243234B9A61704729B1214AD26933
:103D30000243204BDA6104E01E4AD26982431D4BE4
:103D4000DA61704729B11B4AD2680243194BDA6025
:103D500004E0184AD2688243164BDA60704729B1F2
:103D6000144A12690243134B1A6104E0114A1269A2
:103D70008243104B1A6170471249403908607047FE
:103D80000F49C86470470B49C87170470948406AB9
:103D900040F0807007494862704701460020054A9C
:103DA00092680A400AB1012000E0002070470149F2
:103DB00088727047001002400000FFF8FFFFF6FE17
:103DC000000042428004424200127A0000093D0095
:103DD000361500204615002029B1504A12880243AA
:103DE0004E4B1A8004E04D4A128882434B4B1A8096
:103DF00070474A48001D008840F010004749091DDF
:103E0000088070474548001D00884FF6EF71084054
:103E10004249091D08807047002140481C30018834
:103E2000001F008841EA0040704700B50246FFF7D6
:103E3000E0FF100C394918310880091D0A80FFF78E
:103E4000E1FF00BD00B50246FFF7D3FFC2F3034018
:103E5000324908310880091D0A80FFF7D3FF00BDF1
:103E600000B50246FFF7C5FF100C2C492031088031
:103E7000091D0A80FFF7C6FF00BD00202749103149
:103E800009880907080B2549143109880843704738
:103E900000BF2248001D008800F020000028F8D054
:103EA00070471E48001D00884FF6F77108401B49F7
:103EB000091D088000BF1948001D008800F0080097
:103EC0000028F8D0704701460020144A121D1288BD
:103ED0000A400AB1012000E0002070470F49091D87
:103EE000098881430D4A121D118070470146002048
:103EF0000A4A121D12880A40D0B2084A12880A40A3
:103F000012B108B1012000E0002070470349091DEB
:103F100009888143014A121D118070470028004022
:103F200010B50446FB48844209D101218803FFF7FC
:103F300009FF00214FF48040FFF704FF32E0F6480C
:103F4000844209D101214804FFF709FF00214FF401
:103F50000030FFF704FF25E0F048844209D1012139
:103F60008804FFF7FCFE00214FF48020FFF7F7FEE6
:103F700018E0EB48844209D10121C804FFF7EFFEA5
:103F800000214FF40020FFF7EAFE0BE0E5488442F1
:103F900008D101210805FFF7E2FE00214FF480104F
:103FA000FFF7DDFE10BD2DE9F04786B005460E4651
:103FB0000024A24600BFA1460027B08900B100BF7F
:103FC0002F462C8A4CF6FF700440F08804432C8264
:103FD000AC894EF6F3100440B088318908437189EA
:103FE00008430443AC81AC8A4FF6FF400440B089DB
:103FF0000443AC8201A8FFF71EFEC648874202D1E7
:10400000DDF810A001E0DDF80CA0A88900F4004064
:1040100040B10AEBCA0000EB0A1031684900B0FB5E
:10402000F1F807E00AEBCA0000EB0A1031688900DA
:10403000B0FBF1F86420B8FBF0F004012009642122
:1040400001FB1089A88900F4004040B1322000EB48
:10405000C900B0FBF1F000F00700044308E0322093
:1040600000EB09106421B0FBF1F000F00F000443F5
:104070002C8106B0BDE8F0874FF416510160002195
:104080008180C18001810C214181002181817047A3
:1040900010B502460020108A4FF2FF0318400B882B
:1040A0004C8823438C882343CC88234318431082B5
:1040B00010BD0021018041808180C180704721B105
:1040C000828942F40052828104E082894DF6FF73B6
:1040D0001A4082817047F0B503460024002600256F
:1040E000002040F66A17B94200D100BF1846C1F35C
:1040F000421401F01F06012707FA06F5012C01D131
:104100000C3004E0022C01D1103000E014301AB160
:1041100007682F43076002E00768AF430760F0BD00
:104120001AB1838A0B43838202E0838A8B438382A2
:104130007047028A4FF6F0731A400282028A0A43DD
:104140000282704782894FF2FF731A40828182890E
:104150000A438281704721B1828942F00202828142
:1041600004E082894FF6FD731A4082817047028A0B
:104170004FF6DF731A400282028A0A4302827047B6
:1041800021B1028A42F48042028204E0028A4BF6A4
:10419000FF731A4002827047C1F3080282807047A1
:1041A00001468888C0F308007047818941F0010109
:1041B00081817047028BD2B20283028B42EA0122D4
:1041C00002837047028B02F47F420283028B0A4310
:1041D0000283704721B1828A42F02002828204E089
:1041E000828A4FF6DF731A408282704721B1828A39
:1041F00042F01002828204E0828A4FF6EF731A4086
:104200008282704721B1828A42F00802828204E0F1
:10421000828A4FF6F7731A408282704721B18289F1
:1042200042F40042828103E08289C2F30E0282815D
:10423000704721B1828A42F40062828204E0828A5D
:104240004FF2FF731A4082827047828A4FF6FB73E7
:104250001A408282828A0A438282704721B1828A0E
:1042600042F00202828204E0828A4FF6FD731A4015
:104270008282704702460020B1F5007F00D100BF66
:1042800013880B400BB1012000E00020704701F4BF
:104290000072B2F5007F00D100BFCA4302807047B0
:1042A00070B50246002400230025002040F66A165F
:1042B000B14200D100BFC1F3421501F01F03012636
:1042C00006FA03F3012D02D19689334006E0022D50
:1042D00002D1168A334001E0968A33400C1201263F
:1042E00006FA04F41688344013B10CB1012000E042
:1042F000002070BD10B50022002340F66A14A142D0
:1043000000D100BF0A1201249440A3B2DC43048010
:1043100010BD00000038014000440040004800404B
:10432000004C00400050004010B50120FFF724FD74
:104330000020FFF721FD10BD2A4908607047294978
:10434000091F08607047274984310860704701469B
:104350000020254A10884FF67F4210400843224A29
:1043600010807047014600201F4A10884FF6807267
:10437000104008431C4A1080704708B50022009284
:10438000194A2C3A0092009A02440092009A116055
:1043900008BD08B501460020009013482C38009055
:1043A0000098084400900098008808BD0D489C3093
:1043B0000068C0B270470C480830008840F0010027
:1043C00009490831088070470648A0300068C0B22B
:1043D000704705480830008840F002000249083163
:1043E0000880704704860D422C6C004010B50121F6
:1043F0000807FFF7B4FC00214FF08050FFF7AFFC37
:1044000010BD2A4908627047284908617047014673
:104410000020274A106820F0E00008431060704731
:104420002249A0310860704710B502460020204B99
:10443000186820F00300104318601E4B1B6843F0FF
:1044400004031C4C2360012901D130BF00E020BFD0
:10445000184B1B6823F00403164C236010BD14484E
:10446000006840F00400124908600846006840F007
:10447000020008600F48006840F004000D49086021
:1044800000BF00BF30BF704701460020084A526895
:104490000A400AB1012000E0002070470449096881
:1044A00041EA8001024A11607047000000000E429C
:1044B0000070004010ED00E010B50446FE48844254
:1044C00008D10121C014FFF73DFC0021E014FFF7E3
:1044D00039FCC4E0B4F1804F08D101210846FFF750
:1044E0003EFC00210120FFF73AFCB8E0F34884428B
:1044F00008D101210220FFF732FC00210220FFF742
:104500002EFCACE0EE48844208D101210420FFF7E4
:1045100026FC00210420FFF722FCA0E0E9488442A9
:1045200008D101210820FFF71AFC00210820FFF71D
:1045300016FC94E0E448844208D101211020FFF7E2
:104540000EFC00211020FFF70AFC88E0DF488442BF
:1045500008D101212020FFF702FC00212020FFF7D5
:10456000FEFB7CE0DA48844208D101214014FFF7C9
:10457000E9FB00216014FFF7E5FB70E0D5488442B9
:1045800009D10121C804FFF7DDFB00214FF4002011
:10459000FFF7D8FB63E0D048844209D10121080528
:1045A000FFF7D0FB00214FF48010FFF7CBFB56E064
:1045B000CA48844209D101214805FFF7C3FB002105
:1045C0004FF40010FFF7BEFB49E0C548844208D114
:1045D00001214020FFF7C3FB00214020FFF7BFFB74
:1045E0003DE0C048844208D101218020FFF7B7FB9D
:1045F00000218020FFF7B3FB31E0BB48844208D1A3
:1046000001218015FFF7ABFB0021A015FFF7A7FBE9
:1046100025E0B648844209D101210804FFF792FB46
:1046200000214FF48030FFF78DFB18E0B048844242
:1046300009D101214804FFF785FB00214FF4003028
:10464000FFF780FB0BE0AB48844208D101218804CE
:10465000FFF778FB00214FF48020FFF773FB10BDBC
:1046600000220288944B98420ED0994B98420BD06E
:10467000B0F1804F08D0914B984205D0904B9842B2
:1046800002D0904B984204D14FF68F731A404B885A
:104690001A438D4B984207D08C4B984204D04FF66A
:1046A000FF431A40CB881A4302808B8883850B888E
:1046B0000385814B98420BD0854B984208D08B4B99
:1046C000984205D08A4B984202D08A4B984201D139
:1046D0000B7A038601238382704770B50024002281
:1046E0000023058C4FF6FE7635400584028C8388C6
:1046F000048B4FF68F752C40B51E2C400D882C4333
:10470000751E2A400D892A434D882A436A4DA842C6
:104710000BD06F4DA84208D0744DA84205D0744DFF
:10472000A84202D0734DA84213D14FF6F7752A4024
:104730004D892A434FF6FB752A408D882A434FF650
:10474000FF652B404FF6FF552B408D892B43CD89BC
:104750002B4383800483CD888586028470BD70B529
:10476000002400220023058C4FF6EF7635400584A7
:10477000028C8388048B48F6FF752C404FF6FF456A
:104780002C400D884FF6FF7606EA05252C434FF6A0
:10479000DF752A400D8906EA05152A434D8806EA89
:1047A00005152A43444DA84202D0494DA8421DD1C7
:1047B0004FF67F752A404D894FF6FF7606EA0515BC
:1047C0002A434FF6BF752A408D8806EA05152A430D
:1047D0004FF6FF352B404FF2FF752B408D8906EACF
:1047E00085052B43CD8906EA85052B438380048309
:1047F000CD880587028470BD70B500240022002397
:10480000058C4FF6FF6635400584028C8388848BC7
:104810004FF68F752C404FF6FC752C400D882C43BD
:104820004FF6FF552A400D894FF6FF7606EA05251B
:104830002A434D8806EA05252A431F4DA84202D087
:10484000234DA8421DD14FF2FF752A404D894FF6E6
:10485000FF7606EA05252A434FF6FF352A408D8864
:1048600006EA05252A434EF6FF752B404DF6FF75E7
:104870002B408D8906EA05152B43CD8906EA0515DF
:104880002B4383808483CD888587028470BD70B577
:10489000002200230024058C4EF6FF763540058467
:1048A000038C8488828B48F6FF752A404FF6FF45BB
:1048B0002A400D8820E00000002C01400004004048
:1048C00000080040000C00400010004000140040B0
:1048D00000340140004C01400050014000540140B0
:1048E00000180040001C0040002000400040014033
:1048F00000440140004801404FF6FF7606EA0525D6
:104900002A434DF6FF752B400D8906EA05352B43EA
:104910004D8806EA05352B43FA4DA84202D0FA4DE0
:10492000A84208D14BF6FF752C408D894FF6FF76D3
:1049300006EA85152C4384808283CD88A0F84050F8
:10494000038470BD828B4FF2FF331A408283828BC7
:104950004FF6FF7303EA01231A4382837047F0B5D1
:104960000C461546002200210026078C4EF6FF7CDF
:1049700007EA0C070784828B018C4FF6FF7707EA62
:10498000043640F6FF473A404FF6FF7707EA05271F
:104990003A434FF6FF7707EA03373A43D94FB84215
:1049A0000ED0D94FB8420BD0B0F1804F08D0D74FBE
:1049B000B84205D0D64FB84202D0D64FB84206D141
:1049C0004DF6FF77394046F48057394305E047F606
:1049D000FF57394044F48057394382830184F0BD46
:1049E000828B4FF6F3731A408283828B0A43828351
:1049F0007047F0B50C461546002200210026078CB2
:104A00004FF6FF6C07EA0C070784828B018C4FF688
:104A1000FF7707EA04264FF60C773A404FF6FF7708
:104A200007EA03172F433A43B64FB8420ED0B64FAA
:104A3000B8420BD0B0F1804F08D0B44FB84205D087
:104A4000B34FB84202D0B34FB84206D14FF6FF572A
:104A5000394046F48077394305E04FF2FF5739403B
:104A600044F48077394382830184F0BD028B4FF296
:104A7000FF331A400283028B4FF6FF7303EA0123D0
:104A80001A4302837047F0B50C46154600220021F8
:104A90000026078C4FF6EF7C07EA0C070784028B91
:104AA000018C4FF6FF7707EA041640F6FF473A40BD
:104AB0004FF6FF7707EA03373A434FF6FF7707EAE7
:104AC00005273A438F4FB8420ED08F4FB8420BD0D4
:104AD000B0F1804F08D08D4FB84205D08C4FB8420E
:104AE00002D08C4FB84206D14FF6DF77394046F0FE
:104AF0001007394305E04FF65F77394044F010075F
:104B0000394302830184F0BD028B4FF6F3731A40E0
:104B10000283028B0A4302837047F0B50C461546A8
:104B200000220021068C4FF6FE773E400684028B61
:104B3000018C4FF60C7632407E1C06EA03162E439B
:104B40003243704EB0420ED06F4EB0420BD0B0F137
:104B5000804F08D06D4EB04205D06D4EB04202D0AD
:104B60006C4EB04206D14FF6FD76314044F001065E
:104B7000314305E04FF6F576314044F0010631430C
:104B800002830184F0BD70B505460C465D48854240
:104B90000ED05D4885420BD0B5F1804F08D05B4800
:104BA000854205D05A48854202D05A48854200D1F4
:104BB00000E000BF208850B92389A2886188284678
:104BC000FFF7ABFFE1882846FFF79EFF25E020882E
:104BD00004280AD12389A28861882846FFF753FF59
:104BE000E1882846FFF742FF17E0208808280AD10D
:104BF0002389A28861882846FFF7FBFEE1882846C2
:104C0000FFF7EEFE09E02389A28861882846FFF7B6
:104C1000A6FEE1882846FFF795FE70BD2DE9F0411C
:104C200005460C4600260127608808B9022600E0E8
:104C30000026A088012801D1022700E00127208852
:104C4000A0B92389A28861882846FFF766FFE1881A
:104C50002846FFF759FF23893A4631462846FFF791
:104C600012FFE1882846FFF701FF13E02389A2889D
:104C700061882846FFF707FFE1882846FFF7F6FE20
:104C800023893A4631462846FFF747FFE188284600
:104C9000FFF73AFFBDE8F0810A884B881A438B88FA
:104CA0001A43CB881A430B891A434B891A438B89C1
:104CB0001A43A0F8442070474FF6FF71818000210D
:104CC0000180C180418001727047002101804180D4
:104CD0008180C180018141818181C1817047002132
:104CE00001804180012181800021C18001817047C4
:104CF0000021018041808180C180018141818181C9
:104D000070470000002C01400034014000040040C6
:104D100000080040000C004021B1028842F001026E
:104D2000028004E002884FF6FE731A40028070474A
:104D300031B1B0F8442042F40042A0F8442005E02C
:104D4000B0F84420C2F30E02A0F8442070471AB114
:104D500083890B43838102E083898B43838170477E
:104D60008182704741EA0203A0F8483070471AB1C7
:104D700083890B43838102E083898B43838170475E
:104D800001894FF6F8721140018170470A460021EF
:104D900001894FF68F73194011430181704730B577
:104DA00004460D4629462046FFF7F0FF208940F0D3
:104DB0000700208130BD2DE9F04104460D4616461E
:104DC0001F46602D06D13B46012231462046FFF7A3
:104DD0005AFE05E03B46012231462046FFF79DFE84
:104DE00029462046FFF7D2FF208940F007002081A6
:104DF000BDE8F08130B50C4600210189C9B24FF6FB
:104E0000FF7505EA0325154325432943018130BD7C
:104E10002DE9F04105460E461746984600244346C4
:104E20003A4631462846FFF7E5FF2C894FF6F870E1
:104E3000044044F007044FF68F70044044F07004BF
:104E40002C81BDE8F081F0B504460D4616461F469C
:104E50003B46324629462046FFF7CCFF208940F4E6
:104E600080402081F0BD0185828270470A46002182
:104E700001884FF68F731940114301807047F0B5D8
:104E80000C4615461E460021002200230189028B94
:104E9000038C4FF6F877394021434FF6FC473A40F0
:104EA00040F201173A434FF6DD773B404FF6FF776C
:104EB00007EA06172F433B43018102830384F0BDB9
:104EC0000A460021018B4FF68F731940114301836D
:104ED00070470A460021018B48F6FF7319404FF6D0
:104EE000FF7303EA02231943018370470A46002136
:104EF000818B4FF68F7319401143818370470A46A7
:104F00000021818B48F6FF7319404FF6FF7303EAC7
:104F1000022319438183704721B1028842F0800245
:104F2000028004E002884FF67F731A4002807047C7
:104F300021B1828842F00402828004E082884FF628
:104F4000FB731A408280704721B1828842F00802C8
:104F5000828004E082884FF6F7731A40828070479F
:104F600021B1828842F00102828004E082884FF6FB
:104F7000FE731A40828070470A460021018B4FF66B
:104F8000F77319401143018370470A460021018BD2
:104F90004FF2FF7319404FF6FF7303EA02231943E0
:104FA000018370470A460021818B4FF6F773194041
:104FB0001143818370470A460021818B4FF2FF73B2
:104FC00019404FF6FF7303EA0223194381837047A8
:104FD0000A460021018B4FF6FB73194011430183F0
:104FE00070470A460021018B4FF6FF3319404FF6F8
:104FF000FF7303EA02231943018370470A46002125
:10500000818B4FF6FB7319401143818370470A4629
:105010000021818B4FF6FF3319404FF6FF7303EAEF
:1050200002231943818370470A460021018B4FF602
:105030007F7319401143018370470A460021018B99
:10504000C1F30E014FF6FF7303EA022319430183F4
:1050500070470A460021818B4FF67F731940114338
:10506000818370470A460021818BC1F30E014FF600
:10507000FF7303EA02231943818370470A46002124
:10508000018C4FF6FD7319401143018470470A46A5
:105090000021018C4FF6F7731940114301847047CA
:1050A0000A460021018C4FF6DF7319404FF6FF735B
:1050B00003EA02131943018470470A460021018C58
:1050C0004FF67F7319404FF6FF7303EA021319433B
:1050D000018470470A460021018C4FF6FF531940A6
:1050E0004FF6FF7303EA02231943018470470A460F
:1050F0000021018C4FF2FF7319404FF6FF7303EA52
:1051000002231943018470470A460021018C4DF6A1
:10511000FF7319404FF6FF7303EA0233194301840A
:10512000704730B5002301248C40A3B2048C9C430B
:105130000484048C02FA01F5ADB22C43048430BD22
:1051400030B5002304248C40A3B2048C9C43048417
:10515000048C02FA01F5ADB22C43048430BD70B565
:105160000346002000241846183001258D40ACB2BB
:105170001D8CA5431D8409B1082909D100EB6100EC
:10518000056825F0700505600568154305600EE0AB
:105190000D1FC5F34E052844056825F4E04505605C
:1051A00005684FF6FF7606EA02263543056070BDB6
:1051B00021B1028842F00202028004E002884FF628
:1051C000FD731A400280704721B1028842F0040248
:1051D000028004E002884FF6FB731A400280704799
:1051E00021B1828842F08002828004E082884FF6FA
:1051F0007F731A408280704702884FF6F7731A4017
:10520000028002880A430280704782884FF68F73BB
:105210001A40828082880A438280704702894FF652
:10522000F8731A40028102890A4302817047028999
:105230004FF67F731A40028102890A430281704748
:1052400081847047818570478186704701877047E8
:1052500081877047A0F84010704702884FF6FF43DF
:105260001A40028002880A43028070470146888EF5
:1052700070470146088F70470146888F7047014686
:10528000B1F8400070470146888C70470146088D90
:10529000704702460020138A0B400BB1012000E04A
:1052A00000207047CA430282704730B50246002092
:1052B00000230024158A05EA0103958905EA010403
:1052C00013B10CB1012000E0002030BDCA430282BE
:1052D000704700002DE9F041044654B1204601F02A
:1052E0001BF9054600F012FE074601F0D1F8401CFC
:1052F00000E00120C0B2BDE8F0812DE9F047804612
:105300000E46914626B94046FFF7E4FF044600E00A
:1053100034464746254600BF681EC5B20A20B7FB83
:10532000F0F100FB1170303009F805000A20B7FBDE
:10533000F0F7002DF0D12046BDE8F08701460A20A5
:1053400091FBF0F200FB12100A2291FBF2F240EA0C
:105350000210C0B27047014601F00F000A1102EBC3
:10536000820200EB4200C0B270472DE9F0470646CA
:105370000F4690461D46781B401C0FFA80F900240A
:105380000AE030192A46414600F016FA10B92046C4
:10539000BDE8F087601C04B24C45F2DB4FF0FF30F3
:1053A000F6E7F0B58DB005460E46002730221D49C0
:1053B00001A800F091FA00240EE0781CC7B201A900
:1053C00051F824003246294600F0F6F910B9384663
:1053D0000DB0F0BD601CC4B20C2CEEDB0020F7E772
:1053E000F0B593B005460E4648220E49303101A86B
:1053F00000F072FA002410E0781CC7B204EB8401BC
:1054000001AA02EB41003246294600F0D5F910B955
:10541000384613B0F0BD601CC4B2072CECDB002092
:10542000F7E70000987D000810B5002403E0FBF7C3
:1054300019FA601CC4B2052CF9DB10BD00B589B0A7
:105440000020079008900690059004900390029029
:1054500073484078AA2805D0AA20714948700020D6
:10546000FCF79EFDFBF790FB6E49888807AA042194
:10547000FFF743FF6B49887906AA0221FFF73DFF3A
:105480006849C87905AA0221FFF737FF01200823E0
:1054900007AA194600900020FCF728FA01200823EB
:1054A00061A2194600901820FCF720FA0120082379
:1054B00006AA194600901E20FCF718FA01200823BE
:1054C00059A2194600902A20FCF710FA012008235F
:1054D00005AA194600903020FCF708FAFBF7DCFA21
:1054E000524A022152480078FFF707FF514A022131
:1054F00051480078FFF701FF012008234B4A122191
:1055000000906920FCF7F2F901200823494A1F2185
:1055100000906920FCF7EAF909B000BD1CB54048CD
:105520004078AA2848D0AA203D4948700020FCF7BE
:1055300037FD012041A31022002100900846FCF70E
:10554000F2FB01203FA31022114600900020FCF73F
:10555000EAFB012010233DA2202100900020FCF74F
:10556000C5F9012010233AA2302100900020FCF759
:10557000BDF901201023384A002100902820FCF7B3
:10558000B5F901201023344A15321946009028201D
:10559000FCF7ACF9012000902F4810232021C26AAB
:1055A0001820FCF7A3F9012000902B48102330218C
:1055B000026B0846FCF79AF92848007870B3274830
:1055C000407827490978884215D02348244909782A
:1055D000405C01900120224900900978282202EBCA
:1055E000C101C8B2102301AA1946FCF77FF91B4874
:1055F00040781B490870194840781749085C0190A9
:1056000016488078154900904978282202EBC1019C
:10561000C8B2102301AA1946FCF768F91CBD0000A6
:1056200052150020981900202D0000004C15002074
:105630004A1500204F1500204B150020C3FBB3C6B0
:10564000A3BA0000C3DCC2EBA3BA0000543A2000A6
:10565000506F72743A200000EC14002054150020A2
:1056600057150020704700000FB41CB50C0007AAA6
:10567000009001D02044401E074B7B4469460190B6
:10568000069800F0C0F9002C03D06946002000F015
:10569000CDF91CBC5DF814FBB90300002DE9F04105
:1056A0000E460446002020622046E168884730B359
:1056B000252805D0D4E901219047206A401CF2E753
:1056C000E168204600278847050018D0A5F1410071
:1056D000192802D820354FF4006732462946204663
:1056E0002760FAF761FD40B1012804D0F61D26F0CD
:1056F00007060836D8E7361DD6E72846DAE7206AD7
:10570000BDE8F08170B50C460546012A05D0287821
:10571000800600D5EA69002302E0012305E05B1C56
:10572000934202D2E05C0028F9D1A869E618C01AB9
:10573000A861286A184428622846AFF3008004E074
:10574000D5E9012114F8010B9047B442F8D328465B
:10575000AFF3008070BD00000B4910B5A1F17C02D1
:105760000A4CC2E93712372106E000EB104342F839
:105770002130074B00FB03400B1EA1F10101F4DCBB
:1057800010BD0120E8E70000541C0020E119D66696
:10579000CD0D010030B505460B462A4613F8014BE6
:1057A00012F8010B08B1A042F8D01CB1002802D0B9
:1057B0006D1CF1E7284630BD40EA010310B59B0798
:1057C0000FD1042A0DD310C808C9121F9C42F8D06B
:1057D00020BA19BA884201D9012010BD4FF0FF301C
:1057E00010BD1AB1D30703D0521C07E0002010BD32
:1057F00010F8013B11F8014B1B1B07D110F8013BBE
:1058000011F8014B1B1B01D1921EF1D1184610BD9E
:1058100010B5431C02E010F8011B71B18107FAD1E9
:105820004FF0013202C88C1A8C4314EAC211F9D02D
:10583000C01A0A0603D0C01E10BDC01A10BD0A044B
:1058400001D0801E10BD0902FCD0401E10BD032AED
:1058500040F2308010F0030C00F0158011F8013B8D
:10586000BCF1020F624498BF11F801CB00F8013B74
:1058700038BF11F8013BA2F1040298BF00F801CB38
:1058800038BF00F8013B11F0030300F02580083A0F
:10589000C0F0088051F8043B083A51F804CBA0E866
:1058A0000810F5E7121D5CBF51F8043B40F8043BBB
:1058B000AFF30080D20724BF11F8013B11F801CBF0
:1058C00048BF11F8012B24BF00F8013B00F801CBC1
:1058D00048BF00F8012B704710B5203AC0F00B808C
:1058E000B1E81850203AA0E81850B1E81850A0E8E4
:1058F0001850BFF4F5AF5FEA027C24BFB1E818503E
:10590000A0E8185044BF18C918C0BDE810405FEAAD
:10591000827C24BF51F8043B40F8043B08BF704729
:10592000D20728BF31F8023B48BF11F8012B28BF2E
:1059300020F8023B48BF00F8012B704702F0FF033C
:1059400043EA032242EA024200F002B84FF00002AA
:105950000429C0F0128010F0030C00F01B80CCF181
:10596000040CBCF1020F18BF00F8012BA8BF20F8EF
:10597000022BA1EB0C0100F00DB85FEAC17C24BF43
:1059800000F8012B00F8012B48BF00F8012B7047ED
:105990004FF0000200B5134694469646203922BFC8
:1059A000A0E80C50A0E80C50B1F12001BFF4F7AF13
:1059B000090728BFA0E80C5048BF0CC05DF804EBF5
:1059C000890028BF40F8042B08BF704748BF20F863
:1059D000022B11F0804F18BF00F8012B7047704761
:1059E00070477047704710B500F044F8006810BD6C
:1059F00010B5044600F03EF8046010BD01694A1C71
:105A000002610878704700B58FB0CDE901310021FF
:105A1000059105497944CDE9031011466846FFF721
:105A20003DFE0FB000BD0000E5FFFFFF0A6802F871
:105A3000010B0A607047D1E900239A4202D2531C3D
:105A40000B601070704710B5436913B1AFF300805D
:105A500001E0FFF757FE012010BD127800F124018C
:105A60000A7000224A700122EDE711684FF0FF3200
:105A7000E9E7000000487047BC1C00200048704760
:105A8000BC1C00207546FFF7F9FFAE4605006946CD
:105A9000534620F00700854618B020B5FDF79CFD61
:105AA000BDE820404FF000064FF000074FF000081F
:105AB0004FF0000B21F00701AC46ACE8C009ACE8A0
:105AC000C009ACE8C009ACE8C0098D46704710B504
:105AD0000446AFF300802046BDE81040FAF778BBDB
