:020000040800F2
:10000000C82200204D3100080D0300080F0300082E
:1000100013030008170300081B030008000000007A
:100020000000000000000000000000001F030008A6
:100030002103000800000000230300082503000836
:100040006731000867310008673100087D27000824
:10005000673100086731000867310008392400085B
:100060006731000867310008673100086731000810
:100070006731000867310008673100086731000800
:1000800067310008673100086731000867310008F0
:1000900067310008673100086731000867310008E0
:1000A00067310008673100086731000867310008D0
:1000B00067310008673100086731000867310008C0
:1000C00067310008673100086731000867310008B0
:1000D00067310008C130000867310008392D000879
:1000E00067310008673100086731000800F002F846
:1000F00000F065F80AA090E8000C82448344AAF15D
:100100000107DA4501D100F05AF8AFF2090EBAE85A
:100110000F0013F0010F18BFFB1A43F0010318473B
:10012000A46C0000C46C000010F8013B0A4413F0FA
:10013000030408BF10F8014B1D1108BF10F8015B44
:10014000641E05D010F8016B641E01F8016BF9D133
:10015000002D15D010F8014B03F00C030C2BA1EB74
:1001600004040ABF10F8013BA4EB8314A4EB03249E
:1001700005F1010314F8016B5B1E01F8016BF9D561
:10018000914238BF10F8013BD1D3704700230024BF
:1001900000250026103A28BF78C1FBD8520728BF97
:1001A00030C148BF0B607047732904F09E83002064
:1001B00070471FB504F025FA1FBD10B510BD04F03F
:1001C000A1FB1146FFF7F5FF00F022F804F0BFFB9A
:1001D00003B4FFF7F2FF03BC02F018FF0B49D1F89C
:1001E00000C04A685CF8043B1068184442F8040BED
:1001F0008C4528BFA1F1DC0C8A4228BFA1F1DC02AA
:10020000C1F800C04A6020F0004070475C1C00202C
:1002100002F092FE01F0F7FE4FF4A06002F0B6FF8C
:1002200002F04DFA02F02DF802F04CF84FF4E130F4
:1002300002F0B9FD02F0DAF8002001F0A7FE04F0A8
:100240003BF8002001F0A2FE29492A4801F0EDFF09
:1002500004F03CF800202849087017E040F2DC5018
:1002600002F0A7FE02F029FB58B9AA202349087022
:1002700002F039FC02F061FB10B9AA201F49887016
:1002800008E01D480078401C1B4908701A48007897
:100290000528E3DB00BF29E019488078194909786F
:1002A00088420FD016488078164908701348807825
:1002B000AA2805D002F041FB10B9AA200F49887086
:1002C00004F004F8104800781E2190FBF1F201FBC5
:1002D000120018B90649074801F0A7FF642002F090
:1002E00068FE09480078401C07490870D4E7000000
:1002F0002F1500202E150020000000200C150020D6
:100300007C1900200200002001000020704700BF7F
:10031000FEE700BFFEE700BFFEE700BFFEE7704755
:1003200070477047704700000CB5002001900090A6
:100330006C48006840F480306A49086000BF694832
:10034000006800F4003000900198401C0190009873
:1003500018B90198B0F5A06FF1D16248006800F4B7
:10036000003010B10120009001E0002000900098C2
:10037000012843D15C48006840F010005A490860E9
:100380000846006820F0030008600846006840F056
:100390000200086053484068524948600846406877
:1003A00048600846406840F48060486008464068FD
:1003B00020F47C1048600846406840F4E81048602B
:1003C0000846006840F08070086000BF454800683B
:1003D00000F000700028F9D04248406820F0030087
:1003E000404948600846406840F00200486000BF4D
:1003F0003C48406800F00C000828F9D10CBD10B54D
:10040000FFF792FF10BD10B53648006840F00100BC
:10041000344908600846406834490840314948601A
:1004200008460068324908402E49086008460068BE
:1004300020F4802008600846406820F4FE004860F0
:100440004FF41F008860FFF7DAFF4FF00060294982
:10045000086010BD10B5002100200022214B5B6810
:1004600003F00C0121B1042906D0082928D107E0A6
:10047000214B224C236027E01F4B204C236023E0BC
:10048000184B5B6803F47010164B5B6803F4803202
:10049000022303EB904022B9194B4343174C2360CE
:1004A0000DE0104B5B6803F4003323B1144B43435E
:1004B000124C236003E0104B4343104C236003E0D5
:1004C0000D4B0E4C236000BF00BF064B5B68C3F3AF
:1004D00003130C4CE15C094B1B68CB40074C2360B9
:1004E00010BD000000100240002002400000FFF894
:1004F000FFFFF6FE08ED00E000127A000400002085
:1005000000093D000800002008B500201023FEA2CD
:10051000014600901C2001F0DFF901201023FDA20C
:10052000194600900C2001F0D7F901200823FDA204
:1005300027210090282001F0CFF901201023FBA2F1
:1005400030210090042001F0C7F940F2DC5002F0A5
:1005500030FD40F2DC5002F02CFD08BD08B5002053
:100560003F237F220146009000F05AFE0120102315
:10057000F2A20A210090084601F0AEF94FF47A7019
:1005800002F017FD01203F237F2200210090084642
:1005900000F046FE40F2DC5002F00BFD08BD08B54D
:1005A00000203F231A460146009000F039FE01204A
:1005B0003F237F2200210090402000F031FE0120E7
:1005C0003A231A4605210090084600F0A8FE0120B3
:1005D0003A237A2205210090442000F0A0FE4FF437
:1005E0007A7002F0E6FC01203A231A4605210090B9
:1005F000084600F0B9FE00203A237A220521009037
:10060000442000F0B1FE40F2DC5002F0D2FC08BD04
:1006100008B500203F231A460146009000F000FE76
:1006200001203F237F2200210090402000F0F8FDB0
:100630001B2301221F21084600F0EAFE1B23002293
:100640001F215F2000F0E4FE4FF47A7002F0B1FC4D
:100650001B2301221F21084600F003FF1B23002259
:100660001F215F2000F0FDFE40F2DC5002F0A1FCF3
:1006700008BD0EB500203F231A460146009000F049
:10068000CFFD01203F237F2200210090402000F079
:10069000C7FD01203A21009105231F22CDE9011059
:1006A000184600F00EFF00203A217A220523CDE9FA
:1006B000002102905F22442000F003FF4FF47A7083
:1006C00002F077FC01203A21009105231F22CDE999
:1006D0000110184600F02EFF00203A217A2205234F
:1006E000CDE9002102905F22442000F023FF40F278
:1006F000DC5002F05EFC0EBD08B50120082391A27B
:1007000005210090002001F0E7F80120102395A2B8
:1007100019210090002001F0DFF84FF47A7002F008
:1007200048FC0120082397A205210090002001F039
:10073000D3F8012010239BA219210090002001F082
:10074000CBF840F2DC5002F034FC08BD1CB50020B0
:100750001F237F220146009000F062FD0120082344
:1007600098A200210090084601F0B6F80120082167
:100770000A239E4ACDE9001010211E2001F0FAF84C
:100780004FF47A7002F015FC002001F0FFFB01200D
:10079000102397A200210090084601F09DF8012047
:1007A00010210A23914ACDE900102021282001F0D0
:1007B000E1F840F2DC5002F0FCFB002001F0E6FB27
:1007C0001CBD08B50120082393A2002100902D2014
:1007D00001F082F8012092A310221421009010460B
:1007E00001F097FA4FF47A7002F0E3FB002001F079
:1007F000CDFB012008238EA2002100902D2001F0C6
:100800006BF801208CA3182214210090102001F015
:1008100080FA4FF47A7002F0CCFB002001F0B6FBB6
:100820000120082387A2002100902D2001F054F818
:10083000012081A3202214210090002001F069FAF8
:100840004FF47A7002F0B5FB002001F09FFB08BD69
:100850001CB501207D4940233C22CDE90010002138
:10086000222001F08BFA01F06FFB642002F0A1FB63
:100870000120774940233C22CDE9001000212220AD
:1008800001F07CFA01F060FB642002F092FB012091
:10089000704940233C22CDE900100021222001F0C4
:1008A0006DFA01F051FB642002F083FB01206A49DC
:1008B00040233C22CDE900100021222001F05EFA05
:1008C00001F042FB642002F074FB012063494023E5
:1008D0003C22CDE900100021222001F04FFA01F066
:1008E00033FB642002F065FB01205D4940233C227C
:1008F000CDE900100021222001F040FA01F024FB94
:10090000642002F056FBADE04F4C45442054455363
:1009100054000000302E39362220535344313330F6
:100920003600000036345831323800007777772EA1
:100930006C636477696B692E636F6D00424C414351
:100940004B0000003678383A616263646566676818
:10095000696A6B6C6D6E6F7071727374757677788F
:10096000797A0000387831363A6162636465666787
:1009700068696A6B6C6D6E6F70717273747576777F
:1009800078797A003678383A4142434445464748B8
:10099000494A4B4C4D4E4F5051525354555657584F
:1009A000595A0000387831363A4142434445464767
:1009B00048494A4B4C4D4E4F50515253545556573F
:1009C00058595A003678383A2122232425262728D8
:1009D000292A2B2C2D2E2F3A3B3C3D3E3F405B5D80
:1009E0005C5E5F607E7B7D7C00000000D2029649E9
:1009F000387831363A2122232425262728292A2B04
:100A00002C2D2E2F3A3B3C3D3E3F405B5D5C5E5FB4
:100A1000607E7B7D7C00000031367831360000003E
:100A2000C8ABB6AFB5E7D7D3BCBCCAF50000000071
:100A30003234783234000000C8ABB6AFB5E7D7D354
:100A4000000000003332783332000000E806002056
:100A5000E8080020E80A0020E80C0020E80E00204A
:100A6000E81000200120FE4940233C22CDE900107F
:100A70000021222001F082F901F066FA642002F0E0
:100A800098FA1CBD1CB5F74800780A2190FBF1F0DC
:100A9000C0EBC00000EB4000F34901EB80040120F3
:100AA0001C2314221A21CDE90040002001F066F930
:100AB000EC4800780A2190FBF1F201FB1200C0EB38
:100AC000C00000EB4000E84901EB800401201C233A
:100AD00014221A21CDE90040162001F04FF9E14916
:100AE000887800EBD0714910A0EB410151B1012190
:100AF000DE481C230422CDE900011A212C2001F03C
:100B00003DF90AE00121D94854381C230422CDE9DB
:100B100000011A212C2001F031F9D24840780A2135
:100B200090FBF1F0C0EBC00000EB4000CE4901EBC0
:100B3000800401201C2314221A21CDE90040322018
:100B400001F01CF9C74840780A2190FBF1F201FB43
:100B50001200C0EBC00000EB4000C34901EB800471
:100B600001201C2314221A21CDE90040482001F065
:100B700005F91CBD1CB5BE480078AA280AD1012081
:100B8000BC4910231A46CDE9001000215C2001F079
:100B9000F5F809E00120B84910231A46CDE9001004
:100BA00000215C2001F0EAF80120B44910231A4624
:100BB000CDE9001000216F2001F0E0F80120B049DC
:100BC0000A231A46CDE9001010215F2001F0D6F863
:100BD0000120AC490A231A46CDE900101C215F20F0
:100BE00001F0CCF80120A84908231A46CDE90010ED
:100BF0001221772001F0C2F80120A44908231A46E7
:100C0000CDE900101F21772001F0B8F89848C0788E
:100C10001A2850D2DFE800F00D0E0F101B1C1D1E0D
:100C20001F202B2C2D2E2F303132333435404142B2
:100C3000434400BF00BF00BF0120954918231A4656
:100C4000CDE900102721632001F098F83EE000BFB5
:100C500000BF00BF00BF00BF01208E4918231A4605
:100C6000CDE900102721632001F088F82EE000BFB5
:100C700000BF00BF00BF00BF00BF00BF00BF00BF7C
:100C800000BF0120844918231A46CDE9001027210E
:100C9000632001F073F819E000BF00BF00BF00BF80
:100CA00001207E4918231A46CDE900102721632030
:100CB00001F064F80AE00120754918231A46CDE9CD
:100CC00000102721632001F059F800BF00BF1CBDB0
:100CD0000EB501200F237F2200210090084600F06E
:100CE0009FFA00206EA3102201460090202001F000
:100CF00010F80623012218210A2000F089FB0323A3
:100D0000012218210A2000F083FB0623012228215A
:100D10000A2000F07DFB0323012228210A2000F095
:100D200077FB0623012238210A2000F071FB032300
:100D3000012238210A2000F06BFB012010235BA266
:100D400019460090142000F0C7FD012058A310227E
:100D500011460090242000F0DCFF0120102357A250
:100D600020210090142000F0B7FD012054A3102290
:100D700020210090242000F0CCFF0120102353A25A
:100D800030210090142000F0A7FD012050A3102274
:100D900030210090242000F0BCFF01203F237F225F
:100DA00000210090084600F0BAFA01203F23752286
:100DB0000F210090104600F05AFA012014217E22E3
:100DC0001023CDE9002102907A22762000F0B2FBB8
:100DD00001203A217E223E23CDE9002102907A2291
:100DE000762000F0A7FB0323012218210A2000F03F
:100DF00038FB01201F23632210210090142000F0F3
:100E00000FFA0020102329A219460090142000F0A8
:100E100063FD002026A3102211460090242000F03C
:100E200078FF01201C237E2217210090762000F0FD
:100E3000F7F940F2DC5002F0BCF80323002218213D
:100E40000A2000F00EFB0323012218210A2000F0E3
:100E5000DFFA00201F2363221021009014203DE0C0
:100E6000E81200207C19002018020020B4050020A0
:100E70000C150020800100203C150020C00100203E
:100E8000E0010020F40100200802002010020020F0
:100E90001800002060000020A80000203801002079
:100EA000CFB5CDB3C9E8D6C300000000412E000085
:100EB000D2F4C1BFC9E8D6C300000000422E000032
:100EC000D1D5C9ABC9E8D6C300000000432E00004D
:100ED000CDF8C2E7C9E8D6C30000000000F0A0F9D1
:100EE00001201023AFF23C0219460090142000F0BC
:100EF000F3FC0120AFF24803102211460090242099
:100F000000F007FF00201C237E221721009076208E
:100F100000F086F90323012228210A2000F0A1FA1B
:100F200001202F23632220210090142000F078F963
:100F300000201023AFF27C0220210090142000F04A
:100F4000CBFC0020AFF28803102220210090242047
:100F500000F0DFFE01202A237E222521009076204A
:100F600000F05EF940F2DC5002F023F80323002287
:100F700028210A2000F075FA0323012228210A20E3
:100F800000F046FA00202F23632220210090142035
:100F900000F046F901201023AFF2E002202100907A
:100FA000142000F099FC0120AFF2EC031022202164
:100FB0000090242000F0ADFE00202A237E2225216F
:100FC0000090762000F02CF90323012238210A201A
:100FD00000F047FA01203F236322302100901420C3
:100FE00000F01EF900201023AFF2201230210090F3
:100FF000142000F071FC0020AFF22C1310223021DD
:101000000090242000F085FE012037237E2232212B
:101010000090762000F004F940F2DC5001F0C9FFA6
:101020000EBD7CB5654803F0D7FA01200A237F2264
:1010300019460090002000F01AF901203F231A46BB
:101040000B210090184600F012F9012024237F2282
:10105000194600903F2000F00AF90120082358A209
:1010600001460090002000F037FC0120082357A221
:10107000014600904E2000F02FFC0120082356A2CC
:10108000352100900E2000F027FC0120082354A2F7
:101090000D210090412000F01FFC022301221921A4
:1010A0006C2000F0B5F9012010234FA2142100900C
:1010B000712000F011FC012010234CA2142100909B
:1010C000482000F009FC012008234AA227210090B3
:1010D000412000F001FC0120102348A22E210090A5
:1010E000442000F0F9FB0120464920233322CDE9BA
:1010F00000101021062000F041FE00255BE0FFF704
:101100006DF8044601201021CDE90010E01704EB32
:1011100090708010A4EB800201231421482000F07D
:1011200029FCFFF75BF80A2190FBF1F201FB1204A6
:101130000120102103462246CDE900101421502041
:1011400000F018FCFFF74AF80A2190FBF1F201FBCE
:1011500012040120102103462246CDE9001014217B
:10116000602000F007FCFFF739F80A2190FBF1F24C
:1011700001FB12040120102103462246CDE9001094
:101180002E21442000F0F6FBFFF728F80A2190FBFF
:10119000F1F201FB12040120102103462246CDE9A1
:1011A00000102E214C2000F0E5FB4FF4FA7001F006
:1011B00000FF681CC5B20F2DA1DB7CBD40E2010021
:1011C000323031392D30382D31370000536174758C
:1011D0007264617900000000436C6F7564790000EF
:1011E00054454D50000000004300000033322E35BE
:1011F00000000000504D322E350000003930756778
:101200002F6D33000806002070B504460D461646C3
:1012100032462946204600F05AFE00F095FE70BD89
:101220002DE9F05F04460D4690469946A8EB040070
:10123000401C00F0FF0AA9EB0500401C00F0FF0B6A
:1012400000260EE0002708E0AA19D1B2E219D0B2B8
:101250000A9A00F03CFE781CC7B25745F4DB701CBC
:10126000C6B25E45EEDB00F06FFEBDE8F09F2DE9F3
:10127000FF4F85B081468A46002003908346079839
:10128000A0EB09050898A0EB0A06CDF80890CDF868
:1012900004A0002D01DD012705E00DB9002702E0C3
:1012A0004FF0FF376D42002E02DD4FF0010806E0DF
:1012B00016B94FF0000802E04FF0FF387642B54211
:1012C00001DD2C4600E03446002004901EE0019A27
:1012D000D1B2029AD0B2129A00F0F9FD03982844D4
:1012E0000390B3440398A04205DD0398001B0390CC
:1012F000029838440290A34504DDABEB040B01983F
:10130000404401900498401C80B20490611C0498F1
:101310008842DCDD00F018FE09B0BDE8F08F2DE951
:10132000F84305460E4617469846089C33463A460B
:10133000314628460094FFF79AFF43462A46314635
:1013400028460094FFF793FF43463A464146284615
:101350000094FFF78CFF43463A46314638460094E6
:10136000FFF785FFBDE8F8832DE9F84304460D46F5
:1013700016461F46DDF820803B4632462946204669
:10138000CDF80080FFF74CFFBDE8F8832DE9F04170
:1013900004460D4616461F46DDF81880EA19D1B2FC
:1013A000A219D0B2424600F092FDEA19D1B2A21BB6
:1013B000D0B2424600F08BFDEA1BD1B2A219D0B2E6
:1013C000424600F084FDEA1BD1B2A21BD0B24246D5
:1013D00000F07DFDAA19D1B2E219D0B2424600F068
:1013E00076FDAA19D1B2E21BD0B2424600F06FFDE1
:1013F000AA1BD1B2E219D0B2424600F068FDAA1B86
:10140000D1B2E21BD0B2424600F061FDBDE8F081EE
:101410002DE9F84F81468A4690461E4600243546FF
:101420007000C0F1030716E0EBB2E2B25146484645
:10143000CDF80080FFF7AAFF002F04DA042000FB9C
:101440000470871D06E0601B042101FB007000F1A1
:101450000A076D1E641CAC42E6DD00F075FDBDE8B8
:10146000F88F2DE9F84F82468B4691461E460024A0
:1014700035467000C0F103081DE0274608E0FBB2C6
:10148000E2B259465046CDF80090FFF77FFF7F1C2F
:10149000AF42F4DDB8F1000F05DA042000FB048050
:1014A00000F1060806E0601B042101FB008000F14A
:1014B0000A086D1E641CAC42DFDD00F045FDBDE88E
:1014C000F88F2DE9F84F05460E4617469846DDE998
:1014D0000A9A0C9C43463A46314628460094FFF748
:1014E000C6FE53464A46414638460094FFF7BFFEC3
:1014F00033462A46514648460094FFF7B8FEBDE8F9
:10150000F88F02780B7803700A7070472DE9F0416C
:1015100005460E461746984600242C4606E04246ED
:101520003946204600F0D3FC601CC4B2B442F6DD5C
:10153000BDE8F0812DE9FF4F85B0002600279DF81A
:1015400018009DF82010884207DD08A906A8FFF7BB
:10155000D8FF07A905A8FFF7D4FF9DF820009DF844
:101560004C10884207DD08A913A8FFF7CAFF07A996
:1015700012A8FFF7C6FF9DF818009DF820108842BA
:1015800007DD08A906A8FFF7BCFF07A905A8FFF714
:10159000B8FF9DF818009DF84C10884235D19DF891
:1015A0001400039004909DF81C009DF810108842D0
:1015B00003DA9DF81C00049008E09DF81C009DF8DB
:1015C0000C10884202DD9DF81C0003909DF8480035
:1015D0009DF81010884203DA9DF84800049008E056
:1015E0009DF848009DF80C10884202DD9DF84800E7
:1015F00003909DF818209DF80C109DF81000149B86
:10160000FFF784FF09B0BDE8F08F9DF81C009DF83E
:101610001410A0EB010B9DF820009DF81810401A43
:1016200002909DF848009DF81410451A9DF84C0052
:101630009DF81810A0EB01099DF848009DF81C10BA
:10164000A0EB010A9DF84C009DF82010401A019073
:101650009DF820009DF84C10884202D19DF8208012
:1016600004E09DF82000401E00F0FF089DF818409F
:1016700024E0029896FBF0F09DF814100844C0B2E4
:10168000049097FBF9F09DF814100844C0B2039041
:101690005E442F449DF810009DF80C10884203DD35
:1016A00003A904A8FFF72DFF22469DF80C109DF812
:1016B0001000149BFFF72AFF601CC4B24445D8DD1C
:1016C0009DF82000201A00FB0AF69DF81800201A49
:1016D00000FB05F724E0019896FBF0F09DF81C1044
:1016E0000844C0B2049097FBF9F09DF81410084428
:1016F000C0B2039056442F449DF810009DF80C1082
:10170000884203DD03A904A8FFF7FBFE22469DF8EB
:101710000C109DF81000149BFFF7F8FE601CC4B27B
:101720009DF84C008442D6DD00F00EFC00BF69E756
:101730002DE9FC5F06460F46934699464FF0000898
:1017400000240025B9F1120F04D1ABF1300000F0F4
:10175000FF0803E0ABF1200000F0FF087F2E02DD60
:101760000026B81CC7B2B9F1120F4BD1002446E0D5
:101770000C9838B108EBC80004EB8000FB49085C0A
:10178000019008E008EBC80004EB8000F749085C12
:10179000C043C0B2019000252DE08020284101996E
:1017A000084098B1A24604EBDA7207EB6202D1B2AC
:1017B00004EBD4725210A4EB420206EBC2022A449C
:1017C000D0B20122009400F082FB12E0A24604EBAA
:1017D000DA7207EB6202D1B204EBD4725210A4EBBE
:1017E000420206EBC2022A44D0B20022009400F06A
:1017F0006EFB681CC5B2082DCFDB601CC4B2242C64
:10180000B6DB67E0B9F1100F2FD100242AE00C9865
:1018100028B104EB0810D649085C019006E004EBFF
:101820000810D349085CC043C0B20190002515E000
:10183000802028410199084038B13A19D1B2721973
:10184000D0B2012200F043FB06E03A19D1B272197E
:10185000D0B2002200F03BFB681CC5B2082DE7DBCC
:10186000601CC4B2102CD2DB34E0B9F1080F2FD1C8
:1018700000242AE00C9828B1BE4800EBC800005DA7
:10188000019006E0BB4800EBC800005DC043C0B259
:101890000190002515E0802028410199084038B1C9
:1018A0003A19D1B27219D0B2012200F010FB06E051
:1018B0003A19D1B27219D0B2002200F008FB681CAC
:1018C000C5B2082DE7DB601CC4B2082CD2DB01E0F6
:1018D000BDE8FC9F00BFFBE72DE9F84F06468946AF
:1018E00017461C46DDF828A04FF00008122C06D140
:1018F000204604EBD0714910C91DCDB212E0102C66
:1019000005D1204604EBD071C1F347050AE0082C4D
:1019100006D1204604EBD0714910891CCDB201E0FC
:10192000BDE8F88F15E0CDF800A017F80820234691
:1019300049463046FFF7FCFE7019C6B2782E04DD2A
:10194000002609EB040000F0FF0908F1010000F097
:10195000FF0817F808000028E5D100BFE0E710B540
:101960000246012000E050430B1EA1F10104E1B248
:10197000F9D110BD2DE9FF4F83B0804692461E4637
:10198000DDE9104B00200290102C05D1204604EB1D
:10199000D071C1F347070BE0082C06D1204604EBB9
:1019A000D0714910891CCFB202E007B0BDE8F08FBA
:1019B000002530E0701B401EC1B20A20FFF7CFFFA8
:1019C000BAFBF0F00A21B0FBF1F201FB1209029818
:1019D00090B9701EA8420FDDB9F1000F0AD107FBC4
:1019E0000581C8B223462022CDF800B00499FFF744
:1019F0009FFE0EE00120029009F13001CAB207FB00
:101A00000581C8B22346CDF800B00499FFF790FED7
:101A100000BF681CC5B2B542CCDB00BFC5E72DE9ED
:101A2000FF4F83B08046894692460A2001900025E8
:101A300062E005EB0510504911F810009AF800100B
:101A4000884257D105EB05104B4901EB4000407827
:101A50009AF8011088424DD1002448E0069840B120
:101A600005EB0510444901EB4000801C005D02902D
:101A700009E005EB0510404901EB4000801C005DCA
:101A8000C043C0B2029000262DE080203041029970
:101A9000084098B1274604EBD77209EB6202D1B235
:101AA000A34604EBDB725210A4EB420208EBC20225
:101AB0003244D0B2012200F00AFA12E0274604EBC9
:101AC000D77209EB6202D1B2A34604EBDB7252106B
:101AD000A4EB420208EBC2023244D0B2002200F072
:101AE000F6F9701CC6B2082ECFDB601CC4B2202CE5
:101AF000B4DB04E0681CC5B20198854299DB00BFE5
:101B000000F022FA07B0BDE8F08F2DE9FE4F07463E
:101B1000884691469B4606200290002577E005EB1B
:101B2000850000EB4510154911F8100099F80010D8
:101B300088426AD105EB850000EB45100F4901EBA7
:101B40004000407899F8011088425ED1002459E0A5
:101B5000BBF1000F14D005EB850000EB45100749E1
:101B600001EB4000801C10F804A015E08061000823
:101B7000905B000898580008E26500083667000886
:101B800005EB850000EB4510A64901EB4000801CE9
:101B9000005DC04300F0FF0A00262FE080203041A6
:101BA00000EA0A00A0B1032094FBF0F04044C0B268
:101BB0000190032094FBF0F100FB114007EBC00003
:101BC0003044C0B201220090019900F080F913E086
:101BD000032094FBF0F04044C0B20190032094FB3A
:101BE000F0F100FB114007EBC0003044C0B200220E
:101BF0000090019900F06BF9701CC6B2082ECDDB85
:101C0000601CC4B2482CA3DB04E0681CC5B2029877
:101C1000854284DB00BF00F097F9BDE8FE8F2DE917
:101C2000FF4F83B0804689469246062001900025EA
:101C300066E005EB85107C4911F810009AF8001059
:101C400088425BD105EB8510774901EB4000407875
:101C50009AF80110884251D100244CE0069840B116
:101C600005EB8510704901EB4000801C005D02907F
:101C700009E005EB85106C4901EB4000801C005D1C
:101C8000C043C0B20290002731E080203841029961
:101C90000840A8B12646E21704EB927209EBA202B3
:101CA000D1B2A346E21704EB92729210A4EB820227
:101CB00008EBC2023A44D0B2012200F008F914E065
:101CC0002646E21704EB927209EBA202D1B2A346B8
:101CD000E21704EB92729210A4EB820208EBC202AC
:101CE0003A44D0B2002200F0F2F8781CC7B2082FB4
:101CF000CBDB601CC4B2802CB0DB04E0681CC5B236
:101D00000198854295DB00BF00F01EF907B0BDE8E1
:101D1000F08F2DE9F04106460F4614461D46DDF8CA
:101D2000188026E0102C06D143462A463946304614
:101D3000FFF775FE13E0182C06D143462A463946B4
:101D40003046FFF7E2FE0AE0202C06D143462A4641
:101D500039463046FFF763FF01E0BDE8F0813019F6
:101D6000C6B2C4F18000B04202DA00263819C7B208
:101D7000AD1C28780028D5D100BFEEE72DE9F84F3B
:101D80008046894617469A46DDF828B0002545E08A
:101D900000243AE00B9850B1F81DC11700EB5171C7
:101DA000C91005FB01411BF8011000910BE0F81D63
:101DB000C11700EB5171C91005FB01411BF801105F
:101DC000C943C9B2009100261BE080203041009930
:101DD000084050B109EB0502D1B208EBC40232440D
:101DE000D0B2012200F073F809E009EB0502D1B28C
:101DF00008EBC4023244D0B2002200F068F8701C34
:101E0000C6B2082EE1DB601CC4B2F81DC11700EB9E
:101E10005171B4EBE10FBDDB681CC5B25545B7DBB2
:101E2000BDE8F88F36670008F268000870B5044610
:101E30000D4625B11021AA4801F023FB03E0102133
:101E4000A74801F020FB0821A54801F01CFBE0B2E7
:101E500000F04AF90821A24801F013FB70BD70B5EB
:101E600005460C462646E11704EB5171C91001F1F5
:101E7000B0000021FFF7DAFFA91CC1F3031141F004
:101E800010000021FFF7D2FFA91C01F00F00002174
:101E9000FFF7CCFF70BD10B500218D20FFF7C6FF06
:101EA00000211420FFF7C2FF0021AF20FFF7BEFF83
:101EB00010BD10B500218D20FFF7B8FF00211020C4
:101EC000FFF7B4FF0021AE20FFF7B0FF10BDF0B563
:101ED00003461446E4B1CD1701EB5575ED1003EB45
:101EE000C515804E755D0A46CE1701EB5676F61085
:101EF000A1EBC6070126BE40F6B235430846CE1711
:101F000001EB5676F61003EBC616764FBD551AE078
:101F1000CD1701EB5575ED1003EBC515714E755DD1
:101F20000A46CE1701EB5676F610A1EBC60701263E
:101F3000BE40B5430846CE1701EB5676F61003EBCC
:101F4000C616684FBD55F0BD70B500241BE004F106
:101F5000B0000021FFF76AFF00210846FFF766FF87
:101F600000211020FFF762FF002508E005EBC411F7
:101F70005C4A505C0121FFF759FF681CC5B2802DF7
:101F8000F4DB601CC4B2082CE1DB70BD10B5044664
:101F900034B1FF224FF48061524802F00FFC04E09C
:101FA0004FF480614F4802F011FCFFF7CDFF10BDE8
:101FB00010B520214A4801F064FA642000F0F9FFCE
:101FC0002021474801F05FFA642000F0F2FF202151
:101FD000434801F056FA10BD08B50121042001F074
:101FE0005FFCF820ADF8000010208DF803000320FE
:101FF0008DF8020069463A4801F096F9F821384810
:1020000001F03FFA08BD10B5FFF7E6FFC82000F069
:10201000D0FFFFF7CDFF0021AE20FFF707FF002123
:102020000846FFF703FF00211020FFF7FFFE002105
:102030004020FFF7FBFE0021B020FFF7F7FE002154
:102040008120FFF7F3FE0021FF20FFF7EFFE0021C4
:10205000A120FFF7EBFE0021A620FFF7E7FE0021FD
:10206000A820FFF7E3FE00213F20FFF7DFFE00215D
:10207000C820FFF7DBFE0021D320FFF7D7FE0021A9
:102080000846FFF7D3FE0021D520FFF7CFFE002141
:102090008020FFF7CBFE0021D920FFF7C7FE0021EB
:1020A000F120FFF7C3FE0021DA20FFF7BFFE002179
:1020B0001220FFF7BBFE0021DB20FFF7B7FE002157
:1020C0003020FFF7B3FE00218D20FFF7AFFE002187
:1020D0001420FFF7ABFE0021AF20FFF7A7FE10BDD5
:1020E000000801407C15002070B504460025082535
:1020F00017E004F0800020B140210B4801F0C1F945
:1021000003E04021084801F0BEF98021064801F0B3
:10211000BAF98021044801F0B4F96006040E681E83
:10212000C5B2002DE5DC70BD0008014010B5624865
:10213000006820F47060604908600846006840F458
:102140004070086000205D490860142000F031FFF5
:1021500001205B49C1F888011E2000F006FF10BD78
:1021600010B500245448006820F47060524908609B
:102170000846006840F40060086004E0601CC4B2D7
:10218000012000F0F2FE4D488038006808B1642C50
:10219000F4DB642C01DB012010BD002404E0601C92
:1021A000C4B2012000F0E1FE44488038006808B95C
:1021B000642CF4DB642C01DB0120EDE70020EBE76D
:1021C00010B5002404E0601CC4B2012000F0CDFE74
:1021D0003A488038006808B1642CF4DB002404E03D
:1021E000601CC4B2012000F0C0FE34488038006892
:1021F00008B9642CF4DB282000F0B7FE2F488038A3
:10220000006808B1012010BD0020FCE770B5002473
:10221000002506E06006040EFFF7D2FF0443681CA9
:10222000C5B2082DF6DB204670BD7CB505460E46CE
:10223000FFF77CFFFFF794FFF8B9002405E0FFF7F4
:10224000E5FF0DF80400601CC4B2052CF7DB9DF817
:1022500000009DF8011008449DF8021008449DF804
:10226000031008449DF80410884208D19DF800002E
:1022700030709DF80200287001E001207CBD002034
:10228000FCE708B50121042001F00AFB0420ADF8A9
:10229000000010208DF8030003208DF8020069462D
:1022A000054801F041F80421034801F0EAF8FFF77E
:1022B0003DFFFFF755FF08BD00080140880121429E
:1022C0000000214208B501210C2001F0E9FA0120AB
:1022D000ADF8000048208DF8030003208DF80200BF
:1022E0006946184801F020F80320ADF800004820A6
:1022F0008DF8030003208DF802006946124801F0B2
:1023000013F808BD10B500241048006858B90A2019
:1023100000F04FFE0D48006828B900BF0B48006868
:102320000028FBD00124204610BD00200849096880
:1023300031B90749091F096809B1012000E00220ED
:1023400070470000000C014000080140008121425C
:102350000401214210B5022001F07AFB002844D08C
:102360000A2000F026FEFFF7E0FF01281BD13448C9
:102370000078012809D1324840780A2832D83048FC
:102380004078401C2E4948702CE02D4800780228E7
:1023900028D12B4840782B49085C401C28494978B3
:1023A000284A50541EE0FFF7C0FF02281AD12448E3
:1023B0000078012809D122484078002805DD20480E
:1023C0004078401E1E4948700CE01D4800780228E5
:1023D00008D11B4840781B49085C401E18494978C1
:1023E000184A5054022001F044FB10BD0EB50121E3
:1023F000084601F055FA0121002001F0ABF8022057
:10240000019000208DF808000C208DF809000120B3
:102410008DF80A0001A801F0B5FA07208DF8000038
:1024200002208DF801008DF8020001208DF80300D4
:10243000684600F0B0FE0EBD10B5FFF78BFF10BD73
:1024400038150020EC14002008B503208DF800009A
:1024500000208DF801008DF8020001208DF80300A6
:10246000684600F098FE08BDF0B503460C461546D8
:10247000642093FBF0F0C6B2642093FBF0F700FBFE
:102480001730C1B2132E02DD01F16400C1B208465B
:10249000CF1701EB977701EBA707BAB2072092FBA2
:1024A000F0F700FB172082B25719601EDFF8A0C3B7
:1024B0001CF80000384482B2CF1701EB9777BF10A9
:1024C000A1EB87071FB9032C01DA501E82B2072047
:1024D00092FBF0F700FB1720C0B2F0BD0146CA170F
:1024E00001EB92729210A1EB820292B9642091FBEF
:1024F000F0F200FB121050B94FF4C87091FBF0F2EB
:1025000000FB121008B9012070470020FCE70120F1
:10251000FAE70020F8E770B500260024002501F056
:10252000D1FA0646CB48B6FBF0F4CB480088A0426F
:102530003CD0C9490C8040F2B27510E02846FFF744
:10254000CDFF40B1B4F5B77F02D3A4F5B77404E072
:10255000681C85B206E0A4F26D14681C85B2B4F55F
:10256000B67FEBD800BFBD488580002516E0BB498B
:102570008888FFF7B3FF30B1012D04D11D2C01D3A2
:102580001D3C09E00CE0B648405DA04203D8B448C9
:10259000405D241A00E003E0681C85B21C2CE6D2E2
:1025A00000BF681CAD498871601CC871A948B6FBA2
:1025B000F0F100FB11644FF46160B4FBF0F0A74947
:1025C00008704FF46160B4FBF0F100FB11403C2156
:1025D000B0FBF1F0A14948704FF46160B4FBF0F139
:1025E00000FB11403C21B0FBF1F201FB12009B49C2
:1025F00088700B46DA7999799888FFF735FF974903
:102600000872002070BD2DE9F05F06460F46904627
:102610009946DDE90AAB002440F2B270864203DB42
:1026200040F63300864202DD0120BDE8F09F40F213
:10263000B2750AE02846FFF751FF10B189480444FB
:1026400001E089480444681C85B2B542F2DB781E7B
:10265000C7B2002510E08248405D40F2A321484304
:1026600004EBC0143046FFF739FF18B1012D01D13A
:1026700078480444681C85B2BD42ECDBA8F1010037
:1026800040F2A321484304EBC014C9EB4910C0EB4E
:10269000092004EB0014CAEB0A1004EB80045C442C
:1026A00001214FF0C05001F008F9012001F0FFFCBA
:1026B000204601F010FA01F041FA0020B5E71CB500
:1026C000002401214FF0C05001F0F7F8012001F083
:1026D000EEFC042001F0B3FC45F2500188423FD0EB
:1026E00001F078FC012001F048F804E0601CC4B25D
:1026F0000A2000F05EFC412000F0A7FF08B9FA2C88
:10270000F4DBFA2C01DB01201CBD4FF4807001F0DA
:1027100050F8012001F053F801F010FA01F017FA17
:102720000121084601F0AEF901F008FA01F0B7F90D
:1027300047F6FF7001F0DCF901F000FA002000908C
:10274000034601221146019040F2E670FFF75BFF5D
:1027500001F0AEF945F25001042001F064FC07E0FD
:1027600001F0F5F90121084601F08CF901F0E6F9D4
:10277000FFF76AFEFFF7CFFE0020C5E710B5012086
:1027800001F00AFA08B1FFF7C6FE052001F014FABD
:1027900001F0D4F910BD2DE9F05F06460F469046D2
:1027A0009946DDE90AAB002440F2B270864203DBB1
:1027B00040F63300864202DD0120BDE8F09F40F282
:1027C000B2750AE02846FFF789FE10B12548044497
:1027D00001E025480444681C85B2B542F2DB781E4E
:1027E000C7B2002510E01E48405D40F2A3214843D7
:1027F00004EBC0143046FFF771FE18B1012D01D172
:1028000014480444681C85B2BD42ECDBA8F1010009
:1028100040F2A321484304EBC014C9EB4910C0EBBC
:10282000092004EB0014CAEB0A1004EB80045C449A
:1028300001214FF0C05001F040F8012001F037FCB9
:10284000204601F063F901F079F90020B5E70000B6
:10285000FE6B000880510100E81400207C19002064
:102860000A6C00080085E2018033E10108B540F6FA
:10287000B830E64BE6A2E8A10090E94800F03EFB44
:1028800008B1012008BD40F6B830E04BE0A2E5A158
:102890000090E34800F032FB08B10120F2E740F677
:1028A000B830DA4BDAA2E1A10090DD4800F026FB57
:1028B00008B10120E6E70020E4E708B540F6B830AB
:1028C000D24BD3A2D4A10090D54800F017FB08B199
:1028D000012008BD40F6B830CC4BD74AD7A10090B4
:1028E000CF4800F00BFB08B10120F2E70020F0E731
:1028F00000B58FB0D5A0D8A3D9A23221009002A8EC
:1029000001F0F2FD40F6B830C04BC1A2C2A1009068
:10291000C34800F0F3FA10B101200FB000BD4FF42E
:10292000FA50BA4BD4A202A90090BD4800F0E6FAD2
:1029300008B10120F1E70020EFE770B58EB020214B
:1029400006A801F065FF40F6B830B04BB0A2B2A1C6
:102950000090B34800F0D2FA10B101200EB070BD63
:1029600040F6B830A94BAAA2C7A10090AC4800F02D
:10297000C5FA08B10120F1E74FF47A7000F019FBB5
:102980000024ABE040F6B830A04BA1A2C3A1009058
:10299000A34800F0B3FA00287DD1C5A19B4801F0FF
:1029A00039FE002878D19948001F008801B20D2314
:1029B000C1A2964801F021FC45B2B5F1FF3F6BD0B2
:1029C000924805F10D028118182206A801F07FFE39
:1029D0009DF82C0000F00F004FF47A7148439DF8E9
:1029E0002D1001F00F0101EBC10202EB011100EB10
:1029F00081009DF82E1001F00F0101EB810100EB29
:102A000041009DF82F1001F00F01084480B2ADF88D
:102A10001000032107A801F00CFC8DF812009DF8AE
:102A2000210000F00F009DF8201001F00F0101EBD4
:102A3000810100EB4100C0B28DF81300032106A80C
:102A400001F016FC8DF814009DF8240000F00F0032
:102A50009DF8231001F00F0101EB810100EB410013
:102A6000C0B28DF80C009DF8270000F00F009DF813
:102A7000261001F00F0101EB810100EB4100C0B213
:102A80008DF80D009DF82A0000F00F009DF8291028
:102A900001F00F0101E019E01AE001EB810100EB08
:102AA0004100C0B28DF80E009DF80E009DF80D108B
:102AB000CDE900109DF80C309DF813209DF8121000
:102AC000BDF81000FFF79FFD002047E7012045E714
:102AD0004FF47A7000F06DFA601CC4B2082CFFF657
:102AE00051AF01203AE710B58EB077A077A37CA252
:102AF0003221009001A801F0F7FC40F6B830434BBA
:102B000043A245A10090464800F0F8F910B1012019
:102B10000EB010BD40F6B8303C4B3DA201A900906C
:102B20003F4800F0EBF908B10120F1E740F6B8307A
:102B3000364B37A271A10090394800F0DFF908B197
:102B40000120E5E740F6B830304B31A26FA100908C
:102B5000334800F0D3F908B10120D9E740F6B83086
:102B60002A4B6EA26F4900902D4800F0C7F908B1BA
:102B70000120CDE72548001F008801B2042367A289
:102B8000224801F03AFBB0F1FF3F28D01F48001F58
:102B9000008801B2042361A21C4801F02EFBC4B2DC
:102BA0001A4804F10801405C222807D11748E11DAA
:102BB000405C00F00F005C49C87010E0134804F15D
:102BC0000801405C00F00F021048E11D405C00F07D
:102BD0000F0000EB800002EB40005349C8706420F6
:102BE00000F0E7F940F6B830084B50A251A1009030
:102BF0000B4800F083F908B1012089E74FF4FA701F
:102C000000F0D7F9002083E7704700008A19002000
:102C10004F4B0D0A0000000041540D0A0000000057
:102C200000480040415445300D0A000041542B52E9
:102C300053540D0A00000000EC14002041542B43B3
:102C4000574A41505F4445463F0D0A0051574531B0
:102C500032333332310000007465737400000000B9
:102C600041542B43574A41503D222573222C2225A3
:102C700073220D0A000000005749464920474F546F
:102C80002049500D0A00000041542B434950534E37
:102C900054504346473D312C380D0A0041542B43D4
:102CA0004950534E545054494D453F0D0A000000C1
:102CB00031393730000000002B434950534E5450F7
:102CC00054494D453A000000383000006170692ECB
:102CD00073656E6976657273652E636F6D000000B3
:102CE00041542B43495053544152543D2254435074
:102CF000222C222573222C25730D0A0041542B43CC
:102D000049504D4F44453D310D0A000041542B437D
:102D1000495053454E440D0A00000000636F64653E
:102D200000000000D06C00080C150020434C4F53ED
:102D3000454400002B2B2B0010B540F225517B4859
:102D400001F004F970B340F22551784801F028F9F8
:102D5000764801F07BF8C4B275480088B0F5967FDC
:102D600020DA734801880088401C714A1080101DC9
:102D700044540A2C05D00D2C0BD155201146C87097
:102D80000FE06B48C078552802D1AA206849C87066
:102D900007E06748C078AA2802D000206449C870BC
:102DA00000BF00BF10BD10B586B004460121082049
:102DB00000F076FD0121880400F07FFD5B4800F003
:102DC00005FF4FF48060ADF8140003208DF8160065
:102DD00018208DF8170005A9564800F0A5FA4FF401
:102DE0000060ADF8140004208DF8170005A95148C3
:102DF00000F09AFA01940020ADF80800ADF80A003E
:102E0000ADF80C00ADF810000C20ADF80E0001A9D3
:102E1000464800F01EFF27208DF8000001208DF8A5
:102E200001008DF802008DF80300684600F0B3F948
:102E3000012240F225513D4800F0A3FF01213B480B
:102E400000F093FF06B010BD2DE9F04107460D4696
:102E5000164600240CE000BF4021384601F060F81F
:102E60000128F9D1295D384600F0ECFF601C84B2DE
:102E7000B442F0DB00BF4021384601F051F8012890
:102E8000F9D1BDE8F0812DE9F04106460C46204617
:102E900001F0FEFB87B200250CE000BF4021304668
:102EA00001F03EF80128F9D1615D304600F0CAFF1B
:102EB000681C85B2BD42F0DB00BF4021304601F006
:102EC0002FF80128F9D1BDE8F0812DE9F041044641
:102ED0000D46164600270DE0142000F06AF8214642
:102EE000284601F097FB10B10020BDE8F08107F102
:102EF000140087B2B742EFDB0120F6E72DE9F0417D
:102F000006460F4614461D46DDF818804FF49871AA
:102F1000074801F05BFC39463046FFF7B4FF4246F4
:102F200029462046FFF7D1FFBDE8F0810048004068
:102F300086190020000C014010B56FF0040000F06D
:102F400074F92E4800682E49B0FBF1F02D49087045
:102F50000846007800EB4001C1EBC0104FF6FF714E
:102F600001EAC0002849088010BD0146254A1278B0
:102F70004A434FF0E0235A6100229A611A461269CF
:102F800042F001021A6100BF4FF0E022106900F028
:102F900001021AB100F48032002AF5D04FF0E0228D
:102FA000126922F001024FF0E0231A6100229A61B7
:102FB00070470146144A12884A434FF0E0235A6191
:102FC00000229A611A46126942F001021A6100BF9A
:102FD0004FF0E022106900F001021AB100F48032D3
:102FE000002AF5D04FF0E022126922F001024FF0E2
:102FF000E0231A6100229A6170470000040000205B
:1030000000127A00101500201215002000BF704732
:1030100000BF4A4A128802F04002002AF9D0C2B228
:10302000464B1B1D1A80704710B586B0044601211F
:1030300044F2040000F034FC4FF40070ADF81400CA
:1030400003208DF8160018208DF8170005A93C48BC
:1030500000F06AF94FF48060ADF8140004208DF898
:10306000170005A9364800F05FF925208DF800000B
:1030700003208DF801008DF8020001208DF8030077
:10308000684600F088F801940020ADF80800ADF81B
:103090000A00ADF80C00ADF810000C20ADF80E00E1
:1030A00001A9264800F0D5FD012240F22551234810
:1030B00000F067FE0121214800F057FE06B010BD68
:1030C00010B540F225511D4800F040FF10B31B48D9
:1030D00000F0BCFEC4B21B48008800F40040C8B930
:1030E0001848008800F4804060B10A2C03D000200A
:1030F0001449088020E01348008840F4004011493A
:10310000088019E00D2C06D10E48008840F480405C
:103110000C49088010E00B480088C0F30D000A49F4
:103120000C5408480088401C06490880084600885E
:10313000C72801DD0020088010BD000000380140D4
:103140000008014018150020B61A002009488047E1
:1031500009480047FEE7FEE7FEE7FEE7FEE7FEE779
:10316000FEE7FEE7FEE7FEE704480549054A064B91
:103170007047000007040008ED000008C81C00208C
:10318000C8220020C81E0020C81E0020314901436B
:10319000314A1160704770B5002100230F22C478B6
:1031A00004B32D4C246804F4E064C4F5E064210AFF
:1031B000C1F10403CA40447804FA03F1847814404E
:1031C00021430901254C0678A155047804F01F0518
:1031D0000124AC4005786D11AD0005F1E025C5F87E
:1031E000004109E0047804F01F050124AC401C4DA7
:1031F0000678761145F8264070BD1A4A0A40024307
:10320000154B1B1F1A60704739B1134A121D126803
:103210000243114B1B1D1A6006E00F4A121D126873
:1032200082430D4B1B1D1A607047042808D14FF0D4
:10323000E021096941F004014FF0E022116107E04B
:103240004FF0E021096921F004014FF0E022116103
:10325000704700000000FA050CED00E000E400E01B
:1032600080E100E080FFFF1F10B50446CC48844297
:1032700008D10121042000F02DFB0021042000F0E2
:1032800029FB46E0C748844208D10121082000F00C
:1032900021FB0021082000F01DFB3AE0C2488442D7
:1032A00008D10121102000F015FB0021102000F0B2
:1032B00011FB2EE0BD48844208D10121202000F0FE
:1032C00009FB0021202000F005FB22E0B8488442E1
:1032D00008D10121402000F0FDFA0021402000F03B
:1032E000F9FA16E0B348844208D10121802000F0A9
:1032F000F1FA0021802000F0EDFA0AE0AE488442A5
:1033000007D10121801500F0E5FA0021A01500F099
:10331000E1FA10BD10B50121084600F0DBFA0021EA
:10332000012000F0D7FA10BD2DE9F041024600253A
:103330000026002000230024002791F803C00CF091
:103340000F0591F803C00CF0100CBCF1000F03D076
:1033500091F802C04CEA050591F800C0BCF1000FDD
:1033600031D0146800202BE04FF0010C0CFA00F370
:10337000B1F800C00CEA03069E4220D183004FF052
:103380000F0C0CFA03F7BC4305FA03FC4CEA0404E7
:1033900091F803C0BCF1280F06D14FF0010C0CFAD4
:1033A00000FCC2F814C00AE091F803C0BCF1480F59
:1033B00005D14FF0010C0CFA00FCC2F810C0401C03
:1033C0000828D1D31460B1F800C0BCF1FF0F34DD80
:1033D000546800202EE000F1080C4FF0010808FAB4
:1033E0000CF3B1F800C00CEA03069E4221D1830021
:1033F0004FF00F0C0CFA03F7BC4305FA03FC4CEA40
:10340000040491F803C0BCF1280F05D100F1080CA9
:1034100008FA0CF8C2F8148091F803C0BCF1480F08
:1034200007D100F1080C4FF0010808FA0CF8C2F8B7
:103430001080401C0828CED35460BDE8F0814FF6C0
:10344000FF710180022181700421C1707047024622
:10345000002093680B400BB1012000E00020704772
:103460000146886880B2704702460020D3680B404E
:103470000BB1012000E0002070470146C86880B20F
:10348000704701617047416170470AB1016100E016
:1034900041617047C16070474FF480320A438261D6
:1034A0008161826182698269704702460020434BD4
:1034B00018684FF68073184040EA021008433F4BEB
:1034C000186070473E49C8617047F0B50A4600234E
:1034D00000240021002500F00046B6F1004F02D183
:1034E000364EF16901E0354E7168C0F3034583B291
:1034F00000F44016B6F5401F08D121F070612F4E40
:10350000766826F070662D4F7E6012E000F480161B
:10351000B6F5801F06D1032606FA05F4A14341F053
:10352000706106E0460D360103FA06F6B14341F03C
:10353000706122B1460D360103FA06F6314300F000
:103540000046B6F1004F02D11C4EF16101E01B4E66
:103550007160F0BD30B500228B071C0F0F2303FAFA
:1035600004F2164B08338C1053F824309343134C59
:1035700008348D1044F8253023468C1053F824303D
:103580008C07240F00FA04F423430C4C08348D10EC
:1035900044F8253030BD0A49DC310860704700002E
:1035A00000080140000C01400010014000140140DF
:1035B00000180140001C01400020014000000140B3
:1035C00000002042DF48006840F00100DD4908604B
:1035D00008464068DC490840DA4948600846006807
:1035E000DA490840D74908600846006820F480207E
:1035F00008600846406820F4FE0048604FF41F0051
:1036000088607047CF49096821F48031CD4A116044
:103610001146096821F480211160B0F5803F03D084
:10362000B0F5802F0ED106E0C649096841F480311B
:10363000C44A116007E0C349096841F4A021C14AA6
:10364000116000E000BF00BF704710B501460022C6
:10365000002300204A11012A02D1BA4C236806E057
:10366000022A02D1B74C236A01E0B64C636A01F02A
:103670001F02012494401C400CB1012000E00020F6
:1036800010BD38B5002000900024002500BF312077
:10369000FFF7DBFF05460098401C00900098B0F54E
:1036A000A06F01D0002DF2D03120FFF7CEFF08B17E
:1036B000012400E00024204638BD01460020A14A34
:1036C000106820F0F80040EAC10010607047A0497F
:1036D00008607047024600209A4B586820F47C101E
:1036E00042EA01031843974B5860704798490866AF
:1036F000704701460020934A506820F003000843B9
:10370000506070478F48406800F00C0070470146D9
:1037100000208C4A506820F0F00008435060704749
:1037200001460020874A506820F4E060084350605A
:10373000704701460020834A506820F4605040EAF8
:10374000C1005060704729B17E4A527A02437D4BD6
:103750005A7204E07B4A527A82437A4B5A7270471B
:103760007B49D8310860704701460020754A50688F
:1037700020F440400843506070470021714A2032D5
:103780001170704A82F82010012802D004280AD152
:1037900004E001216B4A2032117005E00521694ADD
:1037A0002032117000E000BF00BF70476949086017
:1037B00070476449096A0143624A1162704765496A
:1037C00044390860704730B50021002200240023EE
:1037D0005C4D6D6805F00C0121B1042905D0082964
:1037E00023D105E05C4D056022E05B4D05601FE0E4
:1037F000544D6D6805F47012524D6D6805F48034B7
:10380000022505EB92421CB9544D554305600BE06F
:103810004C4D6D6805F400351DB1504D55430560A4
:1038200002E04D4D5543056002E04B4D056000BF81
:1038300000BF444D6D6805F0F0010909484D6B5C0F
:103840000568DD4045603F4D6D6805F4E061090A9B
:10385000434D6B5C4568DD4085603A4D6D6805F40D
:103860006051C90A3E4D6B5C4568DD40C560354D11
:103870006D6805F44041890B3A4D6B5CC568B5FB3A
:10388000F3F5056130BD29B12E4A526902432D4B33
:103890005A6104E02B4A526982432A4B5A617047AD
:1038A00029B1284A92690243264B9A6104E0254ACD
:1038B00092698243234B9A61704729B1214AD269A8
:1038C0000243204BDA6104E01E4AD26982431D4B59
:1038D000DA61704729B11B4AD2680243194BDA609A
:1038E00004E0184AD2688243164BDA60704729B167
:1038F000144A12690243134B1A6104E0114A126917
:103900008243104B1A617047124940390860704772
:103910000F49C86470470B49C87170470948406A2D
:1039200040F0807007494862704701460020054A10
:1039300092680A400AB1012000E000207047014966
:1039400088727047001002400000FFF8FFFFF6FE8B
:10395000000042428004424200127A0000093D0009
:103960001A1500202A150020002044490860091D6E
:103970000860091D0860091D086041483F4914316D
:103980000860704700213D498279002A3AD00A46F2
:10399000126803689A430B461A600A1D126803688E
:1039A0009A430B1D1A60027911440A6803681A438E
:1039B0000A60324A0832126803689A432F4B083370
:1039C0001A601A1D126803689A432C4B0C331A6054
:1039D0004279102A0ED11A1F126803681A43274B26
:1039E00008331A601A1D126803681A43234B0C33FC
:1039F0001A600DE02149427911440A6803681A43AC
:103A00000A6005E0027911440A6803689A430A6073
:103A100070470021016001710C2141710021817109
:103A200070471649103109680143144A1032116079
:103A3000704701460020114A143212680A400AB148
:103A4000012000E0002070470C49143108607047E5
:103A5000014600200022094B1B6803EA0102074BC4
:103A600014331B680B4013B10AB1012000E00020A1
:103A7000704702491431086070470000000401409B
:103A8000FFFF0F0029B1504A128802434E4B1A80A3
:103A900004E04D4A128882434B4B1A8070474A48D3
:103AA000001D008840F010004749091D088070473C
:103AB0004548001D00884FF6EF7108404249091D36
:103AC00008807047002140481C300188001F008892
:103AD00041EA0040704700B50246FFF7E0FF100CD6
:103AE000394918310880091D0A80FFF7E1FF00BD40
:103AF00000B50246FFF7D3FFC2F303403249083155
:103B00000880091D0A80FFF7D3FF00BD00B50246FB
:103B1000FFF7C5FF100C2C4920310880091D0A80D1
:103B2000FFF7C6FF00BD00202749103109880907AB
:103B3000080B2549143109880843704700BF224803
:103B4000001D008800F020000028F8D070471E48B3
:103B5000001D00884FF6F77108401B49091D0880B9
:103B600000BF1948001D008800F008000028F8D0A8
:103B7000704701460020144A121D12880A400AB1FB
:103B8000012000E0002070470F49091D098881438A
:103B90000D4A121D11807047014600200A4A121D6D
:103BA00012880A40D0B2084A12880A4012B108B1FD
:103BB000012000E0002070470349091D0988814366
:103BC000014A121D118070470028004010B50446BC
:103BD000FB48844209D101218803FFF77BFE0021C5
:103BE0004FF48040FFF776FE32E0F648844209D178
:103BF00001214804FFF77BFE00214FF40030FFF75E
:103C000076FE25E0F048844209D101218804FFF7BF
:103C10006EFE00214FF48020FFF769FE18E0EB48AC
:103C2000844209D10121C804FFF761FE00214FF44D
:103C30000020FFF75CFE0BE0E548844208D101213B
:103C40000805FFF754FE00214FF48010FFF74FFEE8
:103C500010BD2DE9F04786B005460E460024A24669
:103C600000BFA1460027B08900B100BF2F462C8AB3
:103C70004CF6FF700440F08804432C82AC894EF669
:103C8000F3100440B0883189084371890843044324
:103C9000AC81AC8A4FF6FF400440B0890443AC824B
:103CA00001A8FFF790FDC648874202D1DDF810A0B9
:103CB00001E0DDF80CA0A88900F4004040B10AEB57
:103CC000CA0000EB0A1031684900B0FBF1F807E0C8
:103CD0000AEBCA0000EB0A1031688900B0FBF1F86A
:103CE0006420B8FBF0F004012009642101FB108975
:103CF000A88900F4004040B1322000EBC900B0FBBD
:103D0000F1F000F00700044308E0322000EB091056
:103D10006421B0FBF1F000F00F0004432C8106B0E9
:103D2000BDE8F0874FF41651016000218180C18009
:103D300001810C21418100218181704710B502462B
:103D40000020108A4FF2FF0318400B884C88234351
:103D50008C882343CC8823431843108210BD002154
:103D6000018041808180C180704721B1828942F405
:103D70000052828104E082894DF6FF731A408281ED
:103D80007047F0B50346002400260025002040F6C9
:103D90006A17B94200D100BF1846C1F3421401F0BE
:103DA0001F06012707FA06F5012C01D10C3004E0AB
:103DB000022C01D1103000E014301AB107682F43F3
:103DC000076002E00768AF430760F0BD1AB1838A5D
:103DD0000B43838202E0838A8B4383827047028A8B
:103DE0004FF6F0731A400282028A0A430282704739
:103DF00082894FF2FF731A40828182890A4382814D
:103E0000704721B1828942F00202828104E08289F6
:103E10004FF6FD731A4082817047028A4FF6DF73B6
:103E20001A400282028A0A430282704721B1028A42
:103E300042F48042028204E0028A4BF6FF731A4089
:103E400002827047C1F30802828070470146888869
:103E5000C0F308007047818941F0010181817047FA
:103E6000028BD2B20283028B42EA012202837047A4
:103E7000028B02F47F420283028B0A430283704763
:103E800021B1828A42F02002828204E0828A4FF6C7
:103E9000DF731A408282704721B1828A42F0100299
:103EA000828204E0828A4FF6EF731A408282704762
:103EB00021B1828A42F00802828204E0828A4FF6AF
:103EC000F7731A408282704721B1828942F400421E
:103ED000828103E08289C2F30E028281704721B1A0
:103EE000828A42F40062828204E0828A4FF2FF7387
:103EF0001A4082827047828A4FF6FB731A40828290
:103F0000828A0A438282704721B1828A42F0020289
:103F1000828204E0828A4FF6FD731A4082827047E3
:103F200002460020B1F5007F00D100BF13880B408E
:103F30000BB1012000E00020704701F40072B2F5DF
:103F4000007F00D100BFCA430280704770B50246AF
:103F5000002400230025002040F66A16B14200D15B
:103F600000BFC1F3421501F01F03012606FA03F357
:103F7000012D02D19689334006E0022D02D1168A26
:103F8000334001E0968A33400C12012606FA04F40D
:103F90001688344013B10CB1012000E0002070BD40
:103FA00010B50022002340F66A14A14200D100BFE0
:103FB0000A1201249440A3B2DC43048010BD000027
:103FC000003801400044004000480040004C0040E0
:103FD0000050004010B50120FFF796FC0020FFF7CD
:103FE00093FC10BD2A49086070472949091F0860E1
:103FF0007047274984310860704701460020254AF0
:1040000010884FF67F4210400843224A10807047C4
:10401000014600201F4A10884FF680721040084366
:104020001C4A1080704708B500220092194A2C3AA9
:104030000092009A02440092009A116008BD08B5EF
:1040400001460020009013482C3800900098084446
:1040500000900098008808BD0D489C300068C0B2F0
:1040600070470C480830008840F0010009490831C9
:10407000088070470648A0300068C0B27047054805
:104080000830008840F0020002490831088070477B
:1040900004860D422C6C004010B501210807FFF783
:1040A00026FC00214FF08050FFF721FC10BD2A496B
:1040B0000862704728490861704701460020274A76
:1040C000106820F0E0000843106070472249A031DA
:1040D0000860704710B502460020204B186820F099
:1040E0000300104318601E4B1B6843F004031C4C74
:1040F0002360012901D130BF00E020BF184B1B68AD
:1041000023F00403164C236010BD1448006840F0EF
:104110000400124908600846006840F00200086088
:104120000F48006840F004000D49086000BF00BF60
:1041300030BF704701460020084A52680A400AB161
:10414000012000E0002070470449096841EA80012D
:10415000024A11607047000000000E4200700040EB
:1041600010ED00E02DE9F041044654B1204601F085
:1041700013F9054600F00AFE074601F0C9F8401C95
:1041800000E00120C0B2BDE8F0812DE9F047804693
:104190000E46914626B94046FFF7E4FF044600E08C
:1041A00034464746254600BF681EC5B20A20B7FB05
:1041B000F0F100FB1170303009F805000A20B7FB60
:1041C000F0F7002DF0D12046BDE8F08701460A2027
:1041D00091FBF0F200FB12100A2291FBF2F240EA8E
:1041E0000210C0B27047014601F00F000A1102EB45
:1041F000820200EB4200C0B270472DE9F04706464C
:104200000F4690461D46781B401C0FFA80F900248B
:104210000AE030192A46414600F00EFA10B920464D
:10422000BDE8F087601C04B24C45F2DB4FF0FF3074
:10423000F6E7F0B58DB005460E46002730221D4941
:1042400001A800F089FA00240EE0781CC7B201A989
:1042500051F824003246294600F0EEF910B93846EC
:104260000DB0F0BD601CC4B20C2CEEDB0020F7E7F3
:10427000F0B593B005460E4648220E49303101A8EC
:1042800000F06AFA002410E0781CC7B204EB840145
:1042900001AA02EB41003246294600F0CDF910B9DF
:1042A000384613B0F0BD601CC4B2072CECDB002014
:1042B000F7E70000186C000810B5002403E0FCF7D5
:1042C000C7FA601CC4B2052CF9DB10BD00B589B07B
:1042D00000200790089006900590049003900290AB
:1042E000FCF748FC6E49888807AA0421FFF74DFFB8
:1042F0006B49887906AA0221FFF747FF6849C87908
:1043000005AA0221FFF741FF0120082307AA194649
:1043100000900020FDF7E0FA0120082361A2194671
:1043200000901820FDF7D8FA0120082306AA1946A4
:1043300000901E20FDF7D0FA0120082359A219464B
:1043400000902A20FDF7C8FA0120082305AA194683
:1043500000903020FDF7C0FAFCF794FB524A02218E
:1043600052480078FFF711FF514A02215148007866
:10437000FFF70BFF012008234B4A12210090692010
:10438000FDF7AAFA01200823494A1F21009069205D
:10439000FDF7A2FAFDF7D8FD09B000BD1CB54648EF
:1043A0004078AA2848D0AA20434948700020FDF749
:1043B000EDFD012041A31022002100900846FDF7E9
:1043C000A8FC01203FA31022114600900020FDF719
:1043D000A0FC012010233DA2202100900020FDF729
:1043E0007BFA012010233AA2302100900020FDF733
:1043F00073FA01201023384A002100902820FDF78D
:104400006BFA01201023344A0A3219460090282002
:10441000FDF762FA012000902F48102320218269C5
:104420001820FDF759FA012000902B481023302165
:10443000C2690846FDF750FA2848007870B327484B
:10444000407827490978884215D0234824490978BB
:10445000405C01900120224900900978282202EB5B
:10446000C101C8B2102301AA1946FDF735FA1B484D
:1044700040781B490870194840781749085C01903A
:1044800016488078154900904978282202EBC1012E
:10449000C8B2102301AA1946FDF71EFA1CBD000080
:1044A0007C1900202D000000301500202E15002062
:1044B000331500202F15002036150020C3FBB3C68E
:1044C000A3BA0000C3DCC2EBA3BA0000543A200038
:1044D000506F72743A200000EC1400203815002050
:1044E0003B150020704700000FB41CB50C0007AA54
:1044F000009001D02044401E074B7B446946019048
:10450000069800F0C0F9002C03D06946002000F0A6
:10451000CDF91CBC5DF814FBB90300002DE9F04196
:104520000E460446002020622046E168884730B3EA
:10453000252805D0D4E901219047206A401CF2E7E4
:10454000E168204600278847050018D0A5F1410002
:10455000192802D820354FF40067324629462046F4
:104560002760FBF721FE40B1012804D0F61D26F09C
:1045700007060836D8E7361DD6E72846DAE7206A68
:10458000BDE8F08170B50C460546012A05D02878B3
:10459000800600D5EA69002302E0012305E05B1CE8
:1045A000934202D2E05C0028F9D1A869E618C01A4B
:1045B000A861286A184428622846AFF3008004E006
:1045C000D5E9012114F8010B9047B442F8D32846ED
:1045D000AFF3008070BD00000B4910B5A1F17C0263
:1045E0000A4CC2E93712372106E000EB104342F8CB
:1045F0002130074B00FB03400B1EA1F10101F4DC4D
:1046000010BD0120E8E70000FC1B0020E119D66680
:10461000CD0D010030B505460B462A4613F8014B77
:1046200012F8010B08B1A042F8D01CB1002802D04A
:104630006D1CF1E7284630BD40EA010310B59B0729
:104640000FD1042A0DD310C808C9121F9C42F8D0FC
:1046500020BA19BA884201D9012010BD4FF0FF30AD
:1046600010BD1AB1D30703D0521C07E0002010BDC3
:1046700010F8013B11F8014B1B1B07D110F8013B4F
:1046800011F8014B1B1B01D1921EF1D1184610BD30
:1046900010B5431C02E010F8011B71B18107FAD17B
:1046A0004FF0013202C88C1A8C4314EAC211F9D0BF
:1046B000C01A0A0603D0C01E10BDC01A10BD0A04DD
:1046C00001D0801E10BD0902FCD0401E10BD032A7F
:1046D00040F2308010F0030C00F0158011F8013B1F
:1046E000BCF1020F624498BF11F801CB00F8013B06
:1046F00038BF11F8013BA2F1040298BF00F801CBCA
:1047000038BF00F8013B11F0030300F02580083AA0
:10471000C0F0088051F8043B083A51F804CBA0E8F7
:104720000810F5E7121D5CBF51F8043B40F8043B4C
:10473000AFF30080D20724BF11F8013B11F801CB81
:1047400048BF11F8012B24BF00F8013B00F801CB52
:1047500048BF00F8012B704710B5203AC0F00B801D
:10476000B1E81850203AA0E81850B1E81850A0E875
:104770001850BFF4F5AF5FEA027C24BFB1E81850CF
:10478000A0E8185044BF18C918C0BDE810405FEA3F
:10479000827C24BF51F8043B40F8043B08BF7047BB
:1047A000D20728BF31F8023B48BF11F8012B28BFC0
:1047B00020F8023B48BF00F8012B704702F0FF03CE
:1047C00043EA032242EA024200F002B84FF000023C
:1047D0000429C0F0128010F0030C00F01B80CCF113
:1047E000040CBCF1020F18BF00F8012BA8BF20F881
:1047F000022BA1EB0C0100F00DB85FEAC17C24BFD5
:1048000000F8012B00F8012B48BF00F8012B70477E
:104810004FF0000200B5134694469646203922BF59
:10482000A0E80C50A0E80C50B1F12001BFF4F7AFA4
:10483000090728BFA0E80C5048BF0CC05DF804EB86
:10484000890028BF40F8042B08BF704748BF20F8F4
:10485000022B11F0804F18BF00F8012B70477047F2
:1048600070477047704710B500F044F8006810BDFD
:1048700010B5044600F03EF8046010BD01694A1C02
:1048800002610878704700B58FB0CDE90131002191
:10489000059105497944CDE9031011466846FFF7B3
:1048A0003DFE0FB000BD0000E5FFFFFF0A6802F803
:1048B000010B0A607047D1E900239A4202D2531CCF
:1048C0000B601070704710B5436913B1AFF30080EF
:1048D00001E0FFF757FE012010BD127800F124011E
:1048E0000A7000224A700122EDE711684FF0FF3292
:1048F000E9E7000000487047641C0020004870474A
:10490000641C00207546FFF7F9FFAE4605006946B6
:10491000534620F00700854618B020B5FEF724FC6A
:10492000BDE820404FF000064FF000074FF00008B0
:104930004FF0000B21F00701AC46ACE8C009ACE831
:10494000C009ACE8C009ACE8C0098D46704710B595
:104950000446AFF300802046BDE81040FBF738BCAA
:104960002DE9F0414F1E00EBC7010446D1E90001DB
:1049700015461E4637F006020DD02A46334600F093
:104980001FFD7F1E04EBC703D3E9002300F070FA7C
:1049900037F00602F1D1022F25D0042F13D0062FB5
:1049A00018BFBDE8F0812A46334600F009FDD4E97E
:1049B0000A2300F05DFA2A46334600F001FDD4E9EF
:1049C000082300F055FA2A46334600F0F9FCD4E9F2
:1049D000062300F04DFA2A46334600F0F1FCD4E9F4
:1049E000042300F045FA2A46334600F0E9FCD4E9F6
:1049F000022300F03DFA2A46334600F0E1FCD4E9F8
:104A00000023BDE8F04100F033BA00000022134655
:104A10001046014900F0E8BA0000F03F012200F022
:104A2000F5BE002213461046114600F0DDBA000024
:104A30002DE9F04DC84A002490B0914205DA21F0EA
:104A40000043934201D805D120B110B0BDE8F04D2C
:104A5000FFF7E4BFB1F5801F1BDA53EA000209D06B
:104A6000002911DA0120FFF703FF10B0BDE8F04D77
:104A7000FFF7D7BF0220FFF7FBFEFFF7C7FF10B01D
:104A800081F00041BDE8F08D6FF03504362200F072
:104A9000BDFE04EB2152C1F31308B049A2F2FF336B
:104AA000414401F4801282F07F6103EB225281F0D5
:104AB0004051009241EA08010022A94B00F08AFD12
:104AC000044608F10200A74EC0F313000D467E44D1
:104AD000032867D2D6E90023204600F0DDFB1ED173
:104AE0000098002802BFD6E9000110B0BDE8F08DA3
:104AF00000F03BFC07460C469B4A9C4B00F060FCD8
:104B000006460D469A4A9B4B3846214600F058FC13
:104B100010B032462B46BDE8F04D00F0A9B94FF079
:104B20005532954B2046294600F04AFC0022934B13
:104B300000F044FD06460F4622462B461046194615
:104B400000F03EFC32463B4600F03AFC0646009838
:104B50000F46F0B100F009FC80468A46824A834B3A
:104B600000F02EFC32463B4600F028FD22462B4644
:104B700000F030FD05460C467D4A7E4B40465146CE
:104B800000F01EFC10B02A462346BDE8F04D00F0B0
:104B900021BD0B4610B0324620462946BDE8F04DF7
:104BA00000F018BD00224FF08043204600F060F96D
:104BB00002460B462046294600F016FA06460F46E6
:104BC000009800F0D2FBCDE9040132463B46104686
:104BD000394600F0F5FB0C9069480C9A404401906E
:104BE00009910B46104600F0EBFB824602466548F1
:104BF0008B46C8F151080B4608F5D72803217844A5
:104C0000FFF7AEFE52465B4600F0DAFB0A905E48C4
:104C10000D9152465B4604217844FFF7A1FE099BA3
:104C20000C9A00F0CDFB844601980D9B40EA0808E1
:104C300060460A9A00F01CF983460891B8F1000F0B
:104C40004EDD4FF0FF322046294600F0DFFD2246C0
:104C50002B4600F0B5FB804600988A4660B3DDE93C
:104C60000401414A414B00F0ABFB099100905A46C8
:104C700040465146089B00F0FBF832463B4600F0A8
:104C80009FFB099B009A00F0F3F84246534600F060
:104C900095FC22462B4600F09DFC04460D46DDE9BE
:104CA0000401334A334B00F08BFB10B022462B46F5
:104CB000BDE8F04D00F08EBC5A464046089B00F01F
:104CC000D7F832463B4600F07BFB4246534600F0A5
:104CD00075FC10B022462B46BDE8F04D00F06EBCCE
:104CE000009840B3DDE904011F4A204B00F068FB47
:104CF00080468A465A4620462946089B00F06AFCB0
:104D000032463B4600F05CFB4246534600F062FCF4
:104D100022462B4600F05EFC04460D46DDE9040108
:104D2000134A144B00F04CFB10B022462B46BDE852
:104D3000F04D00F04FBC0B465A462046294600F085
:104D400049FC32463B4600F03BFB10B022462B4666
:104D5000BDE8F04D00F032BC0000F07F645F090058
:104D60000000F03FF6210000763C7935EF39EA3D4E
:104D70000000E0FE422EE63F5555D53F0000E03FE3
:104D800086EBF9FF8E2000008C2000002DE9F04119
:104D9000044630480025814205DA21F00042824273
:104DA00001D805D124B12046BDE8F041FFF736BE59
:104DB000B1F5801F1BDA52EA040008D000290FDA8F
:104DC0000120FFF755FDBDE8F041FFF72ABE0220A4
:104DD000FFF74EFDFFF71AFE81F00041BDE8F081BC
:104DE0006FF035053622204600F010FD044605EB35
:104DF0002150A0F2FF32D00F40F2FF331B1A0D46B4
:104E000063F31F55104400F0B0FA06460F462946DA
:104E10002046FFF70DFE104A104B00F0D1FA044671
:104E20000D460F4A0F4B3046394600F0C9FA22466C
:104E30002B4600F01DF805460C460B4A0B4B30463E
:104E4000394600F0BDFA2A462346BDE8F04100F09D
:104E50000FB800000000F07F0EE526157BCBDB3F8E
:104E6000362BF111F3FE593D00609F501344D33FA0
:104E700010B591EA030F48BF83F0004300F1B283FD
:104E8000841A71EB030C05D2121943EB0C03001BBF
:104E900061EB0C01DFF824E14FEA1154A4EB135C41
:104EA0001EEA430F18BF9EEA445F73D023EA0E0345
:104EB000DCF1200E21EA045143F4801332D322FAAC
:104EC0000CFE10EB0E0023FA0CFE41EB0E01CCF1B0
:104ED000200E03FA0EFE10EB0E0051F10001B1F5A9
:104EE000801FCCF1200E32D201EB045112FA0EF2E7
:104EF000BDE8104058BF7047401C38BF5FEA42020F
:104F000018BF7047002814BF20F0010041F10001D4
:104F10004FEA410313F5001F38BF7047A1F1C041AC
:104F200000F046BB012A43EB0302ACF1200CDCF19C
:104F30001F0E32BF4FF0000E23FA0CF310EB0300EC
:104F400041EB0451B4EB115FD0D0A1EB045101F55A
:104F5000801149085FEA300001EB04510ED350F193
:104F6000000038BF12FA0EFE08D1BDE81040C9E7B4
:104F7000401C38BF5FEA4202CAD1C3E7BDE8104017
:104F80004FEA410313F5001F38BF7047A1F1C0413C
:104F900000F00EBB9EEA445F08D011EA5E0FBDE848
:104FA000104004BF01F0004100207047BDE81040F0
:104FB00070B500F0AFFA00BF64FBBE3E0000E0FF3A
:104FC00002494FF0000000F0EFBB00BF0000F87F87
:104FD000491058BFC1F140415B1058BFC3F1404375
:104FE0008B42EFF3008070472DE9C04130B4DFF809
:104FF000A0C23CEA111418BF3CEA131400F0EC8084
:1050000081EA03051CEA111444EAD57418BF1CEAAE
:10501000131500F0C780A4EB05044FF0004545EAE6
:10502000C12145EAC32341EA505143EA525304F1F6
:105030007F74994204F500344FEAC0204FEAC2223F
:1050400008BF904200F09C804FEA13650FF24016B3
:10505000765D4FEA134506FB05F7C7F1807706FB3F
:1050600007F74FEAD737A7FB03687642C8F58038C1
:10507000A7FB06CE38BFA8F1010807FB08E64FF0F2
:10508000000EA6FB028CE6FB03CEDCF1000CCEF199
:10509000004E38BFAEF1010EA6FB0C584FF00007D2
:1050A0004FF00005E6FB0E87A1FB08C6A0FB07CE6C
:1050B00016EB0E0645F10005E1FB076515F1E04E24
:1050C0007EBFA4F580345FEA46066D4116F1800785
:1050D00045F100054FEA17274FEA066647EA0567DC
:1050E000A6F1DE46B6F1805F4FEA15251FD9384696
:1050F00024F0010C05EBC471BCF1FE6F01EB0C1147
:1051000002D8F0BCBDE8008124425CBF01F5801EDE
:105110009EEAC47F02D4F0BCBDE80081244238D4AA
:10512000F0BCA1F1C041BDE8004100F041BA4FEA36
:10513000D22242EA43524FEAD323A7FB02864FEA28
:10514000D02040EA415007FB03661EEA0E0F4FEAEB
:10515000D12105FB026658BFA6EB0056B6EB005600
:105160004FEA520E4EEAC37E18EB0E0E56EB530E6C
:10517000BDD518EB02085E417F1C55F10005B6E76E
:105180004FF480154FF000074FF000064FF0000875
:10519000ADE7F0BC4FF0000001F1C04101F000416B
:1051A000BDE8008111EA0C1F0CEA131500D00CE0D9
:1051B00013EA0C1F00F025804FF00000F0BC81EADC
:1051C000030101F00041BDE80081F0BCBDE80041F1
:1051D00081EA030100F0ECB9F0BCBDE8004170B514
:1051E00000F098F9097EFC3E00F007B881EA03015F
:1051F0004FF0000001F00041704781EA030100F028
:10520000D7B9F0BCBDE800414FF00000214970471C
:10521000FFFDFBF9F7F5F4F2F0EEEDEBE9E8E6E47B
:10522000E3E1E0DEDDDBDAD8D7D5D4D3D1D0CFCD02
:10523000CCCBCAC8C7C6C5C4C2C1C0BFBEBDBCBB3B
:10524000BAB9B8B7B6B5B4B3B2B1B0AFAEADACAB36
:10525000AAA9A8A8A7A6A5A4A3A3A2A1A09F9F9E10
:105260009D9C9C9B9A9999989797969595949393C2
:10527000929191908F8F8E8E8D8C8C8B8B8A898959
:1052800088888787868585848483838282818180DC
:105290000000FF070000F87F51EA030C17D41CF54B
:1052A000801F58BFBCF5801F00F10680994218BFCF
:1052B000704708BF9042704707D711F5801F58BF4D
:1052C00013F5801F19D499427047894270471CF525
:1052D000801F08D5BCF5801FF7D58B4218BF7047DB
:1052E00008BF824270474FF4001C1CEB410F38BFCF
:1052F0001CEB430F01D28B42704770B500F00AF9E6
:10530000922449004FF000514FF08053FFF760BEE8
:105310004FEA1153A3F58063D3F11E03A8BFD3F165
:10532000200C08DB4FF0004242EAC12252EA505200
:1053300032FA03F0704709420BD4102BC4BF00208F
:10534000704703F5787CBCF1FF3F05D04FF0FF308C
:1053500070474FF00000704770B500F0DBF800BFF9
:105360004992248000207047F0E710F0004248BFC7
:105370004042B0FA80F310FA03F10AD0C3F11D03E2
:1053800003F580634FEA415002EB035202EBD12157
:1053900070474FF000007047B0FA80F310FA03F145
:1053A0000AD0C3F11D0303F580634FEA41504FEA71
:1053B000035202EBD12170474FF00000704700000C
:1053C000DFF848C170B51CEA111E1EBF1CEA131598
:1053D0009EEA0C0F95EA0C0F00F06F8081EA03043F
:1053E00023EA4C134EEAD47E21EA4C1141F4801199
:1053F00043F48013AE44A1FB024CA0FB0365AEF165
:105400007F7E361955EB0C05A1FB034C4CF10003D4
:10541000A0FB021C16EB0C06654153F10003094288
:1054200018BF46F0010613F4007F0BD14FEA033199
:105430004FEA0530340341EA155140EA16506FF047
:1054400003020AE04FEAC3214FEAC520F40241EA11
:10545000555140EA56506FF0020202EB2E4201EB2A
:10546000025585EACE710AD05FEA440C18BF24F0D9
:10547000004450F1000041F1000120EAD47040F2F4
:10548000FE7C624500D270BDA84214BF4FF080443C
:105490004FF04044002E08BF0024BEF1806FA8BF2B
:1054A000A1F1C041BDE8704080F282804FF0000061
:1054B00001F1C04101F0004170479EEA0C0F0CEA77
:1054C000131518BF95EA0C0F06D04FF0000081EAC3
:1054D000030E0EF0004170BD00F01CF88900013E83
:1054E00000F007B800F009B84FEA430C5FEA5C5CD3
:1054F00008D081EA030100F05BB84FEA410C5FEA93
:105500005C5CF6D14FF00000014970470000FF07D6
:105510000000F87F0EF1020E2EF0030E5EF8046B11
:10552000364205D4012A43EB030515F5001F12D8B6
:10553000012841EB010C1CF5001F0CD80ED14FEADD
:10554000D17C15F5001F0CEB4C0C0CF1020C08BFC4
:105550004CEBD37C04E04FF0080C01E04FEAD37C25
:105560000CEB4C0526FA05F606F00706B6F1040C1E
:1055700006D20EEB860CBDE870404CF0010C604783
:10558000DFE80CF0090B02024FF000414FF0000081
:10559000A1F5002170BD19461046012851EB010408
:1055A00018BFD4F5001484BF002001F0004170BD85
:1055B0000808A0F500114FEA3101704791EA030F86
:1055C00010B581F000413FF55BAC83F0004300F083
:1055D00009B8000010B591EA030F48BF83F00043FB
:1055E0003FF54EAC841A71EB030C07D212198CF004
:1055F000004C43EB0C03001B61EB0C01DFF8A4E152
:105600004FEA1154A4EB135C1EEA430F18BF9EEA45
:10561000445F00F0B08023EA6E03524221EA045155
:10562000C3EB6E0338BF5B1EDCF1200E25D322FADC
:105630000CFE10EB0E0043FA0CFE41EB0E01CCF118
:10564000200E03FA0EFE10EB0E0051F10001CCF11A
:10565000200E29D412FA0EF201EB0451BDE81040DD
:1056600058BF7047401C1CBFB2F1004F7047002864
:105670000CBF491C20F00100704712EB020E43EBF7
:10568000030218BF4FF0010E4EEA4202ACF1200CAB
:10569000DCF11E0E54D943FA0CFE10EB0E0051F152
:1056A000FF31CCF11E0ED5D50EF1010E12FA0EFE11
:1056B000404141EB010101EB445C5FEA5C5C10D9C5
:1056C00010EBDE7001EB045138BFBEF1004FBDE8B6
:1056D000104018BF704700280CBF491C20F0010083
:1056E000704730D24FEAD42C11F5001124F4006435
:1056F0001BD0B1FA81F20B3AA41AA41ED2F12003F6
:10570000914030FA03F31943904001EBCC71002C27
:1057100001EB0451BDE81040A8BF704701F1C04142
:105720004FF0000001F000417047B0FA80F310FA2A
:1057300003F100D110BDE41A173C4805C90AE4E79B
:1057400001EB045110BD491001EB0451BDE81040BC
:105750004FEA300002E04FF0000170474A0008BFF6
:105760000042F8D0B2F5001F28BF704701F0004199
:105770004FF0000070479EEA445F07D011EA5E0FC9
:10578000BDE8104004BF002100207047BDE8104074
:1057900070B5FFF7BFFE00BF40DFF63E83F000416B
:1057A000104670470000E0FF0CF00F03092B08BF04
:1057B000082000F059800A2B0BD0082B18BF704727
:1057C00008BF1CF0400F0AD04FF000004FF000015E
:1057D00070471CF0400F18BF4FF0004070471CF09E
:1057E000100F08D020F0704300F07F4242EAD3014E
:1057F0004FEA4370704700F0604021F07F4242EA78
:10580000000201F07F4040EA727070474FF0FF0CD9
:105810004CF4E06C1CEA11531CBF9CEA030C944549
:10582000C2BFDA4201EB02517047002B0DD0BCF130
:10583000000F0FD0002A01F00041A4BF41F0E04169
:1058400041F07F614FF00000704701F000414FF0E0
:105850000000704750EA01334FF09B0C18BF4CF02A
:10586000806C7FF4ADAB70471CF4801F11D01CF42A
:10587000E02F03D06FEACC31490070474FF0405021
:10588000EFF3008222F0704242EA000282F30088C5
:1058900070474FF00000704700000000000000005B
:1058A0001010101000100000282828000000000030
:1058B00028287C287C282800103C503814781000B8
:1058C000004C2C10086060003048502054483400D0
:1058D00030102000000000000810202020100800D8
:1058E0002010080808102000001054385410000040
:1058F0000010107C101000000000000000180810BC
:10590000000000007C0000000000000000303000BB
:10591000000408102040000038444C54644438000F
:1059200010301010101038003844040810207C008B
:105930007C08100804443800081828487C0808002F
:105940007C407804044438001820407844443800EF
:105950007C04081020202000384444384444380097
:105960003844443C0408300000303000303000003F
:1059700000303000301020000810204020100800B7
:1059800000007C007C0000002010080408102000AB
:105990003844040810001000384404345C443800D3
:1059A000102844447C4444007844447844447800BB
:1059B00038444040404438007048444444487000F3
:1059C0007C40407840407C007C4040784040400033
:1059D0003844405C44443C004444447C44444400D7
:1059E00038101010101038001C0808080848300043
:1059F00044485060504844004040404040407C0093
:105A0000446C545444444400444464544C4444005E
:105A1000384444444444380078444478404040008A
:105A2000384444445448340078444478504844004E
:105A30003C404038040478007C1010101010100016
:105A400044444444444438004444444444281000FA
:105A500044444454545428004444281028444400E6
:105A600044444428101010007C04081020407C009E
:105A7000382020202020380000402010080400009A
:105A80003808080808083800102844000000000002
:105A90000000000000007C00201008000000000052
:105AA000000038043C443C004040586444447800C2
:105AB00000003840404438000404344C44443C0066
:105AC000000038447C40380038242070202020001A
:105AD00000003C44443C0438404058644444440082
