:020000040800F2
:100000001823002035300008850200088702000808
:100010008B0200088F020008930200080000000015
:10002000000000000000000000000000970200082F
:1000300099020008000000009B0200089D020008D1
:100040004F3000084F3000084F3000084F30000894
:100050004F3000084F3000084F3000084F30000884
:100060004F3000084F3000084F3000084F30000874
:100070004F3000084F3000084F3000084F30000864
:100080004F3000084F3000084F3000084F30000854
:100090004F3000084F3000084F3000084F30000844
:1000A0004F3000084F3000084F3000084F30000834
:1000B0004F300008C52D00084F3000084F300008B1
:1000C0004F3000084F3000084F3000084F30000814
:1000D0004F300008A92F00084F30000831260008D3
:1000E0004F3000084F3000084F30000800F002F891
:1000F00000F060F80AA090E8000C82448344AAF162
:100100000107DA4501D100F055F8AFF2090EBAE85F
:100110000F0013F0010F18BFFB1A43F0010318473B
:100120003C7600005C76000010F8013B0A4413F0B6
:10013000030408BF10F8014B1D1108BF10F8015B44
:10014000641E05D010F8016B641E01F8016BF9D133
:10015000002D15D010F8014B03F00C030C2BA1EB74
:1001600004040ABF10F8013BA4EB8314A4EB03249E
:1001700005F1010314F8016B5B1E01F8016BF9D561
:10018000914238BF10F8013BD1D3704700230024BF
:1001900000250026103A28BF78C1FBD8520728BF97
:1001A00030C148BF0B6070471FB504F0AEFF1FBDE4
:1001B00010B510BD05F0AAF81146FFF7F5FF00F0E5
:1001C00023F805F0C8F803B4FFF7F2FF03BC02F010
:1001D00091FE00000B49D1F800C04A685CF8043B6E
:1001E0001068184442F8040B8C4528BFA1F1DC0CC0
:1001F0008A4228BFA1F1DC02C1F800C04A6020F0A9
:1002000000407047B01C002002F00AFE01F0B7FE6B
:100210004FF4A06002F02EFF02F04BF901F0EDFF69
:100220004FF4E13002F03BFA02F09EFD02F049FD8E
:10023000002001F067FE04F033FE002001F062FEB2
:100240000BA10E4802F09BFA11E00D488078AA2815
:1002500004D100200A49887002F055FD0848C07892
:10026000AA2804D100200649C87001F029FEECE755
:1002700074657374207374617274000000480040E8
:1002800022150020704700BFFEE700BFFEE700BF59
:10029000FEE700BFFEE770477047704770470000F9
:1002A0000CB50020019000906C48006840F480304C
:1002B0006A49086000BF6948006800F40030009097
:1002C0000198401C0190009818B90198B0F5A06FF2
:1002D000F1D16248006800F4003010B101200090B4
:1002E00001E0002000900098012843D15C4800689C
:1002F00040F010005A4908600846006820F00300EA
:1003000008600846006840F00200086053484068F2
:10031000524948600846406848600846406840F4D2
:10032000806048600846406820F47C1048600846B9
:10033000406840F4E81048600846006840F080706B
:10034000086000BF4548006800F000700028F9D040
:100350004248406820F00300404948600846406831
:1003600040F00200486000BF3C48406800F00C00CC
:100370000828F9D10CBD10B5FFF792FF10BD10B5DC
:100380003648006840F0010034490860084640687B
:1003900034490840314948600846006832490840FD
:1003A0002E4908600846006820F48020086008464E
:1003B000406820F4FE0048604FF41F008860FFF79B
:1003C000DAFF4FF000602949086010BD10B5002128
:1003D00000200022214B5B6803F00C0121B10429AD
:1003E00006D0082928D107E0214B224C236027E0C2
:1003F0001F4B204C236023E0184B5B6803F4701004
:10040000164B5B6803F48032022303EB904022B961
:10041000194B4343174C23600DE0104B5B6803F40A
:10042000003323B1144B4343124C236003E0104BC1
:100430004343104C236003E00D4B0E4C236000BF80
:1004400000BF064B5B68C3F303130C4CE15C094B24
:100450001B68CB40074C236010BD00000010024019
:10046000002002400000FFF8FFFFF6FE08ED00E06C
:1004700000127A000000002000093D000400002066
:1004800008B500201023FEA2014600901C2001F0B8
:10049000DFF901201023FDA2194600900C2001F085
:1004A000D7F901200823FDA227210090282001F080
:1004B000CFF901201023FBA230210090042001F08D
:1004C000C7F940F2DC5002F0E8FC40F2DC5002F0E8
:1004D000E4FC08BD08B500203F237F2201460090C0
:1004E00000F05AFE01201023F2A20A2100900846D3
:1004F00001F0AEF94FF47A7002F0CFFC01203F23F7
:100500007F2200210090084600F046FE40F2DC50B9
:1005100002F0C3FC08BD08B500203F231A4601467F
:10052000009000F039FE01203F237F22002100903F
:10053000402000F031FE01203A231A4605210090A8
:10054000084600F0A8FE01203A237A2205210090F7
:10055000442000F0A0FE4FF47A7002F09EFC0120CF
:100560003A231A4605210090084600F0B9FE002003
:100570003A237A2205210090442000F0B1FE40F297
:10058000DC5002F08AFC08BD08B500203F231A4663
:100590000146009000F000FE01203F237F22002151
:1005A0000090402000F0F8FD1B2301221F21084687
:1005B00000F0EAFE1B2300221F215F2000F0E4FE72
:1005C0004FF47A7002F069FC1B2301221F210846B8
:1005D00000F003FF1B2300221F215F2000F0FDFE1F
:1005E00040F2DC5002F059FC08BD0EB500203F235C
:1005F0001A460146009000F0CFFD01203F237F22E4
:1006000000210090402000F0C7FD01203A21009118
:1006100005231F22CDE90110184600F00EFF00202F
:100620003A217A220523CDE9002102905F2244205D
:1006300000F003FF4FF47A7002F02FFC01203A2102
:10064000009105231F22CDE90110184600F02EFF6E
:1006500000203A217A220523CDE9002102905F2271
:10066000442000F023FF40F2DC5002F016FC0EBDE7
:1006700008B50120082391A205210090002001F077
:10068000E7F80120102395A219210090002001F025
:10069000DFF84FF47A7002F000FC0120082397A2E3
:1006A00005210090002001F0D3F8012010239BA227
:1006B00019210090002001F0CBF840F2DC5002F04C
:1006C000ECFB08BD1CB500201F237F2201460090D3
:1006D00000F062FD0120082398A200210090084646
:1006E00001F0B6F8012008210A239E4ACDE9001046
:1006F00010211E2001F0FAF84FF47A7002F0CDFBC1
:10070000002001F0FFFB0120102397A200210090A0
:10071000084601F09DF8012010210A23914ACDE9F5
:1007200000102021282001F0E1F840F2DC5002F016
:10073000B4FB002001F0E6FB1CBD08B50120082336
:1007400093A2002100902D2001F082F8012092A3B5
:10075000102214210090104601F097FA4FF47A709D
:1007600002F09BFB002001F0CDFB012008238EA2AC
:10077000002100902D2001F06BF801208CA318229D
:1007800014210090102001F080FA4FF47A7002F0EA
:1007900084FB002001F0B6FB0120082387A2002182
:1007A00000902D2001F054F8012081A32022142173
:1007B0000090002001F069FA4FF47A7002F06DFBAE
:1007C000002001F09FFB08BD1CB501207D4940239E
:1007D0003C22CDE900100021222001F08BFA01F02B
:1007E0006FFB642002F059FB0120774940233C2233
:1007F000CDE900100021222001F07CFA01F060FB1D
:10080000642002F04AFB0120704940233C22CDE9DC
:1008100000100021222001F06DFA01F051FB64204C
:1008200002F03BFB01206A4940233C22CDE9001045
:100830000021222001F05EFA01F042FB642002F068
:100840002CFB0120634940233C22CDE9001000210C
:10085000222001F04FFA01F033FB642002F01DFB6F
:1008600001205D4940233C22CDE9001000212220D7
:1008700001F040FA01F024FB642002F00EFBADE031
:100880004F4C45442054455354000000302E393617
:10089000222053534431333036000000363458316F
:1008A000323800007777772E6C636477696B692E36
:1008B000636F6D00424C41434B0000003678383A7C
:1008C0006162636465666768696A6B6C6D6E6F70A0
:1008D0007172737475767778797A0000387831366A
:1008E0003A6162636465666768696A6B6C6D6E6FB6
:1008F000707172737475767778797A003678383AD1
:100900004142434445464748494A4B4C4D4E4F505F
:100910005152535455565758595A00003878313669
:100920003A4142434445464748494A4B4C4D4E4F55
:10093000505152535455565758595A003678383AF0
:100940002122232425262728292A2B2C2D2E2F3A15
:100950003B3C3D3E3F405B5D5C5E5F607E7B7D7C03
:1009600000000000D2029649387831363A2122231D
:100970002425262728292A2B2C2D2E2F3A3B3C3D97
:100980003E3F405B5D5C5E5F607E7B7D7C00000087
:100990003136783136000000C8ABB6AFB5E7D7D3F3
:1009A000BCBCCAF5000000003234783234000000CC
:1009B000C8ABB6AFB5E7D7D3000000003332783309
:1009C00032000000E4060020E4080020E40A0020D1
:1009D000E40C0020E40E0020E41000200120FE4979
:1009E00040233C22CDE900100021222001F082F9B1
:1009F00001F066FA642002F050FA1CBD1CB5F748FD
:100A000000780A2190FBF1F0C0EBC00000EB400041
:100A1000F34901EB800401201C2314221A21CDE9A3
:100A20000040002001F066F9EC4800780A2190FBB4
:100A3000F1F201FB1200C0EBC00000EB4000E849FE
:100A400001EB800401201C2314221A21CDE900406F
:100A5000162001F04FF9E149887800EBD071491078
:100A6000A0EB410151B10121DE481C230422CDE954
:100A700000011A212C2001F03DF90AE00121D9489A
:100A800054381C230422CDE900011A212C2001F046
:100A900031F9D24840780A2190FBF1F0C0EBC00058
:100AA00000EB4000CE4901EB800401201C231422FE
:100AB0001A21CDE90040322001F01CF9C7484078E6
:100AC0000A2190FBF1F201FB1200C0EBC00000EB29
:100AD0004000C34901EB800401201C2314221A2189
:100AE000CDE90040482001F005F91CBD1CB5BE4809
:100AF0000078AA280AD10120BC4910231A46CDE962
:100B0000001000215C2001F0F5F809E00120B8494F
:100B100010231A46CDE9001000215C2001F0EAF80C
:100B20000120B44910231A46CDE9001000216F209E
:100B300001F0E0F80120B0490A231A46CDE900107F
:100B400010215F2001F0D6F80120AC490A231A4693
:100B5000CDE900101C215F2001F0CCF80120A8494C
:100B600008231A46CDE900101221772001F0C2F8BF
:100B70000120A44908231A46CDE900101F2177203F
:100B800001F0B8F89848C0781A2850D2DFE800F091
:100B90000D0E0F101B1C1D1E1F202B2C2D2E2F3059
:100BA0003132333435404142434400BF00BF00BFBF
:100BB0000120954918231A46CDE90010272163200A
:100BC00001F098F83EE000BF00BF00BF00BF00BFCB
:100BD00001208E4918231A46CDE9001027216320F1
:100BE00001F088F82EE000BF00BF00BF00BF00BFCB
:100BF00000BF00BF00BF00BF00BF01208449182311
:100C00001A46CDE900102721632001F073F819E09E
:100C100000BF00BF00BF00BF01207E4918231A4655
:100C2000CDE900102721632001F064F80AE00120DB
:100C3000754918231A46CDE900102721632001F0D9
:100C400059F800BF00BF1CBD0EB501200F237F2245
:100C500000210090084600F09FFA00206EA31022A9
:100C600001460090202001F010F8062301221821EF
:100C70000A2000F089FB0323012218210A2000F03A
:100C800083FB0623012228210A2000F07DFB032399
:100C9000012228210A2000F077FB062301223821B7
:100CA0000A2000F071FB0323012238210A2000F002
:100CB0006BFB012010235BA219460090142000F06A
:100CC000C7FD012058A3102211460090242000F0F7
:100CD000DCFF0120102357A220210090142000F0F7
:100CE000B7FD012054A3102220210090242000F001
:100CF000CCFF0120102353A230210090142000F0DB
:100D0000A7FD012050A3102230210090242000F0E4
:100D1000BCFF01203F237F2200210090084600F005
:100D2000BAFA01203F2375220F210090104600F0EF
:100D30005AFA012014217E221023CDE900210290CD
:100D40007A22762000F0B2FB01203A217E223E2357
:100D5000CDE9002102907A22762000F0A7FB032340
:100D6000012218210A2000F038FB01201F236322F2
:100D700010210090142000F00FFA0020102329A267
:100D800019460090142000F063FD002026A31022D5
:100D900011460090242000F078FF01201C237E22C1
:100DA00017210090762000F0F7F940F2DC5002F0B5
:100DB00074F80323002218210A2000F00EFB0323FD
:100DC000012218210A2000F0DFFA00201F236322ED
:100DD0001021009014203DE0E4120020941900201E
:100DE00014020020B00500201C1500207C0100200A
:100DF00054150020BC010020DC010020F00100207F
:100E0000040200200C020020140000205C000020DE
:100E1000A400002034010020CFB5CDB3C9E8D6C36B
:100E200000000000412E0000D2F4C1BFC9E8D6C3C3
:100E300000000000422E0000D1D5C9ABC9E8D6C3DE
:100E400000000000432E0000CDF8C2E7C9E8D6C379
:100E50000000000000F0A0F901201023AFF23C02D6
:100E600019460090142000F0F3FC0120AFF2480373
:100E7000102211460090242000F007FF00201C23C0
:100E80007E2217210090762000F086F903230122AC
:100E900028210A2000F0A1FA01202F23632220211B
:100EA0000090142000F078F900201023AFF27C02AB
:100EB00020210090142000F0CBFC0020AFF288032A
:100EC000102220210090242000F0DFFE01202A23A0
:100ED0007E2225210090762000F05EF940F2DC5061
:100EE00001F0DBFF0323002228210A2000F075FA1D
:100EF0000323012228210A2000F046FA00202F2394
:100F0000632220210090142000F046F901201023D4
:100F1000AFF2E00220210090142000F099FC0120A3
:100F2000AFF2EC03102220210090242000F0ADFE4F
:100F300000202A237E2225210090762000F02CF923
:100F40000323012238210A2000F047FA01203F2321
:100F5000632230210090142000F01EF9002010239D
:100F6000AFF2201230210090142000F071FC00201C
:100F7000AFF22C13102230210090242000F085FEC7
:100F8000012037237E2232210090762000F004F9E0
:100F900040F2DC5001F081FF0EBD7CB5654804F0E5
:100FA0009FF801200A237F2219460090002000F0BC
:100FB0001AF901203F231A460B210090184600F031
:100FC00012F9012024237F22194600903F2000F0CF
:100FD0000AF90120082358A201460090002000F0E1
:100FE00037FC0120082357A2014600904E2000F054
:100FF0002FFC0120082356A2352100900E2000F07E
:1010000027FC0120082354A20D210090412000F06C
:101010001FFC0223012219216C2000F0B5F90120E8
:1010200010234FA214210090712000F011FC012028
:1010300010234CA214210090482000F009FC01204C
:1010400008234AA227210090412000F001FC012042
:10105000102348A22E210090442000F0F9FB01202B
:10106000464920233322CDE900101021062000F04C
:1010700041FE00255BE0FFF7ADF80446012010219A
:10108000CDE90010E01704EB90708010A4EB800213
:1010900001231421482000F029FCFFF79BF80A21C6
:1010A00090FBF1F201FB12040120102103462246BD
:1010B000CDE900101421502000F018FCFFF78AF849
:1010C0000A2190FBF1F201FB1204012010210346DA
:1010D0002246CDE900101421602000F007FCFFF744
:1010E00079F80A2190FBF1F201FB12040120102192
:1010F00003462246CDE900102E21442000F0F6FBE5
:10110000FFF768F80A2190FBF1F201FB12040120BD
:10111000102103462246CDE900102E214C2000F07C
:10112000E5FB4FF4FA7001F0B8FE681CC5B20F2D54
:10113000A1DB7CBD40E20100323031392D30382D49
:1011400031370000536174757264617900000000EA
:10115000436C6F756479000054454D5000000000E9
:101160004300000033322E3500000000504D322E77
:1011700035000000393075672F6D330004060020FC
:1011800070B504460D46164632462946204600F004
:101190005AFE00F095FE70BD2DE9F05F04460D4645
:1011A00090469946A8EB0400401C00F0FF0AA9EB0A
:1011B0000500401C00F0FF0B00260EE0002708E0B1
:1011C000AA19D1B2E219D0B20A9A00F03CFE781CFA
:1011D000C7B25745F4DB701CC6B25E45EEDB00F0CB
:1011E0006FFEBDE8F09F2DE9FF4F85B081468A462E
:1011F0000020039083460798A0EB09050898A0EB10
:101200000A06CDF80890CDF804A0002D01DD0127D5
:1012100005E00DB9002702E04FF0FF376D42002EC8
:1012200002DD4FF0010806E016B94FF0000802E0B9
:101230004FF0FF387642B54201DD2C4600E03446DF
:10124000002004901EE0019AD1B2029AD0B2129A04
:1012500000F0F9FD039828440390B3440398A0429A
:1012600005DD0398001B0390029838440290A345C3
:1012700004DDABEB040B0198404401900498401C42
:1012800080B20490611C04988842DCDD00F018FEF6
:1012900009B0BDE8F08F2DE9F84305460E46174624
:1012A0009846089C33463A46314628460094FFF754
:1012B0009AFF43462A46314628460094FFF793FF9B
:1012C00043463A46414628460094FFF78CFF434682
:1012D0003A46314638460094FFF785FFBDE8F8836B
:1012E0002DE9F84304460D4616461F46DDF82080DA
:1012F0003B46324629462046CDF80080FFF74CFF9A
:10130000BDE8F8832DE9F04104460D4616461F4618
:10131000DDF81880EA19D1B2A219D0B2424600F025
:1013200092FDEA19D1B2A21BD0B2424600F08BFD69
:10133000EA1BD1B2A219D0B2424600F084FDEA1BEA
:10134000D1B2A21BD0B2424600F07DFDAA19D1B2A3
:10135000E219D0B2424600F076FDAA19D1B2E21BE2
:10136000D0B2424600F06FFDAA1BD1B2E219D0B252
:10137000424600F068FDAA1BD1B2E21BD0B2424641
:1013800000F061FDBDE8F0812DE9F84F81468A4605
:1013900090461E46002435467000C0F1030716E053
:1013A000EBB2E2B251464846CDF80080FFF7AAFF03
:1013B000002F04DA042000FB0470871D06E0601B88
:1013C000042101FB007000F10A076D1E641CAC4291
:1013D000E6DD00F075FDBDE8F88F2DE9F84F824697
:1013E0008B4691461E46002435467000C0F1030826
:1013F0001DE0274608E0FBB2E2B259465046CDF860
:101400000090FFF77FFF7F1CAF42F4DDB8F1000FC3
:1014100005DA042000FB048000F1060806E0601BEA
:10142000042101FB008000F10A086D1E641CAC421F
:10143000DFDD00F045FDBDE8F88F2DE9F84F0546EA
:101440000E4617469846DDE90A9A0C9C43463A46F2
:10145000314628460094FFF7C6FE53464A464146A9
:1014600038460094FFF7BFFE33462A4651464846A9
:101470000094FFF7B8FEBDE8F88F02780B78037090
:101480000A7070472DE9F04105460E46174698460A
:1014900000242C4606E042463946204600F0D3FCA4
:1014A000601CC4B2B442F6DDBDE8F0812DE9FF4F07
:1014B00085B0002600279DF818009DF8201088426E
:1014C00007DD08A906A8FFF7D8FF07A905A8FFF7B9
:1014D000D4FF9DF820009DF84C10884207DD08A934
:1014E00013A8FFF7CAFF07A912A8FFF7C6FF9DF8C8
:1014F00018009DF82010884207DD08A906A8FFF70C
:10150000BCFF07A905A8FFF7B8FF9DF818009DF8D4
:101510004C10884235D19DF81400039004909DF83A
:101520001C009DF81010884203DA9DF81C000490FE
:1015300008E09DF81C009DF80C10884202DD9DF823
:101540001C0003909DF848009DF81010884203DAB3
:101550009DF84800049008E09DF848009DF80C10A4
:10156000884202DD9DF8480003909DF818209DF800
:101570000C109DF81000149BFFF784FF09B0BDE824
:10158000F08F9DF81C009DF81410A0EB010B9DF846
:1015900020009DF81810401A02909DF848009DF810
:1015A0001410451A9DF84C009DF81810A0EB010985
:1015B0009DF848009DF81C10A0EB010A9DF84C0016
:1015C0009DF82010401A01909DF820009DF84C10C5
:1015D000884202D19DF8208004E09DF82000401E42
:1015E00000F0FF089DF8184024E0029896FBF0F008
:1015F0009DF814100844C0B2049097FBF9F09DF8D0
:1016000014100844C0B203905E442F449DF81000AB
:101610009DF80C10884203DD03A904A8FFF72DFFF5
:1016200022469DF80C109DF81000149BFFF72AFF2E
:10163000601CC4B24445D8DD9DF82000201A00FB90
:101640000AF69DF81800201A00FB05F724E001981F
:1016500096FBF0F09DF81C100844C0B2049097FB74
:10166000F9F09DF814100844C0B2039056442F447A
:101670009DF810009DF80C10884203DD03A904A812
:10168000FFF7FBFE22469DF80C109DF81000149BFE
:10169000FFF7F8FE601CC4B29DF84C008442D6DD12
:1016A00000F00EFC00BF69E72DE9FC5F06460F461F
:1016B000934699464FF0000800240025B9F1120F17
:1016C00004D1ABF1300000F0FF0803E0ABF12000E3
:1016D00000F0FF087F2E02DD0026B81CC7B2B9F16A
:1016E000120F4BD1002446E00C9838B108EBC8002B
:1016F00004EB8000FB49085C019008E008EBC8009F
:1017000004EB8000F749085CC043C0B2019000259B
:101710002DE0802028410199084098B1A24604EBB1
:10172000DA7207EB6202D1B204EBD4725210A4EB6E
:10173000420206EBC2022A44D0B20122009400F019
:1017400082FB12E0A24604EBDA7207EB6202D1B22E
:1017500004EBD4725210A4EB420206EBC2022A44FC
:10176000D0B20022009400F06EFB681CC5B2082DB8
:10177000CFDB601CC4B2242CB6DB67E0B9F1100FDC
:101780002FD100242AE00C9828B104EB0810D64988
:10179000085C019006E004EB0810D349085CC043E4
:1017A000C0B20190002515E0802028410199084031
:1017B00038B13A19D1B27219D0B2012200F043FB0C
:1017C00006E03A19D1B27219D0B2002200F03BFB08
:1017D000681CC5B2082DE7DB601CC4B2102CD2DB3C
:1017E00034E0B9F1080F2FD100242AE00C9828B179
:1017F000BE4800EBC800005D019006E0BB4800EB6E
:10180000C800005DC043C0B20190002515E08020F3
:1018100028410199084038B13A19D1B27219D0B2B1
:10182000012200F010FB06E03A19D1B27219D0B2D1
:10183000002200F008FB681CC5B2082DE7DB601C25
:10184000C4B2082CD2DB01E0BDE8FC9F00BFFBE77F
:101850002DE9F84F0646894617461C46DDF828A0B4
:101860004FF00008122C06D1204604EBD07149102D
:10187000C91DCDB212E0102C05D1204604EBD07169
:10188000C1F347050AE0082C06D1204604EBD071CD
:101890004910891CCDB201E0BDE8F88F15E0CDF804
:1018A00000A017F80820234649463046FFF7FCFE03
:1018B0007019C6B2782E04DD002609EB040000F092
:1018C000FF0908F1010000F0FF0817F808000028E0
:1018D000E5D100BFE0E710B50246012000E050432B
:1018E0000B1EA1F10104E1B2F9D110BD2DE9FF4FAA
:1018F00083B0804692461E46DDE9104B00200290E0
:10190000102C05D1204604EBD071C1F347070BE042
:10191000082C06D1204604EBD0714910891CCFB2A7
:1019200002E007B0BDE8F08F002530E0701B401EDC
:10193000C1B20A20FFF7CFFFBAFBF0F00A21B0FBDB
:10194000F1F201FB1209029890B9701EA8420FDD56
:10195000B9F1000F0AD107FB0581C8B22346202246
:10196000CDF800B00499FFF79FFE0EE00120029031
:1019700009F13001CAB207FB0581C8B22346CDF890
:1019800000B00499FFF790FE00BF681CC5B2B542D5
:10199000CCDB00BFC5E72DE9FF4F83B08046894609
:1019A00092460A200190002562E005EB051050499F
:1019B00011F810009AF80010884257D105EB051075
:1019C0004B4901EB400040789AF8011088424DD114
:1019D000002448E0069840B105EB0510444901EBAE
:1019E0004000801C005D029009E005EB05104049B5
:1019F00001EB4000801C005DC043C0B20290002695
:101A00002DE0802030410299084098B1274604EB30
:101A1000D77209EB6202D1B2A34604EBDB7252101B
:101A2000A4EB420208EBC2023244D0B2012200F021
:101A30000AFA12E0274604EBD77209EB6202D1B230
:101A4000A34604EBDB725210A4EB420208EBC20285
:101A50003244D0B2002200F0F6F9701CC6B2082E53
:101A6000CFDB601CC4B2202CB4DB04E0681CC5B220
:101A70000198854299DB00BF00F022FA07B0BDE86B
:101A8000F08F2DE9FE4F0746884691469B4606207B
:101A90000290002577E005EB850000EB4510154925
:101AA00011F8100099F8001088426AD105EB850002
:101AB00000EB45100F4901EB4000407899F8011008
:101AC00088425ED1002459E0BBF1000F14D005EB31
:101AD000850000EB4510074901EB4000801C10F821
:101AE00004A015E0886B000898650008A062000853
:101AF000EA6F00083E71000805EB850000EB451019
:101B0000A64901EB4000801C005DC04300F0FF0AC5
:101B100000262FE08020304100EA0A00A0B1032017
:101B200094FBF0F04044C0B20190032094FBF0F12C
:101B300000FB114007EBC0003044C0B2012200900E
:101B4000019900F080F913E0032094FBF0F0404489
:101B5000C0B20190032094FBF0F100FB114007EBB1
:101B6000C0003044C0B200220090019900F06BF92F
:101B7000701CC6B2082ECDDB601CC4B2482CA3DB9F
:101B800004E0681CC5B20298854284DB00BF00F007
:101B900097F9BDE8FE8F2DE9FF4F83B08046894657
:101BA000924606200190002566E005EB85107C49F1
:101BB00011F810009AF8001088425BD105EB8510EF
:101BC000774901EB400040789AF80110884251D1E2
:101BD00000244CE0069840B105EB8510704901EBFC
:101BE0004000801C005D029009E005EB85106C4907
:101BF00001EB4000801C005DC043C0B20290002792
:101C000031E08020384102990840A8B12646E21709
:101C100004EB927209EBA202D1B2A346E21704EBE5
:101C200092729210A4EB820208EBC2023A44D0B244
:101C3000012200F008F914E02646E21704EB927244
:101C400009EBA202D1B2A346E21704EB9272921002
:101C5000A4EB820208EBC2023A44D0B2002200F0A8
:101C6000F2F8781CC7B2082FCBDB601CC4B2802C02
:101C7000B0DB04E0681CC5B20198854295DB00BF6B
:101C800000F01EF907B0BDE8F08F2DE9F0410646DF
:101C90000F4614461D46DDF8188026E0102C06D1AC
:101CA00043462A4639463046FFF775FE13E0182CA6
:101CB00006D143462A4639463046FFF7E2FE0AE09F
:101CC000202C06D143462A4639463046FFF763FFAB
:101CD00001E0BDE8F0813019C6B2C4F18000B04225
:101CE00002DA00263819C7B2AD1C28780028D5D1F1
:101CF00000BFEEE72DE9F84F8046894617469A4621
:101D0000DDF828B0002545E000243AE00B9850B1FA
:101D1000F81DC11700EB5171C91005FB01411BF8FB
:101D2000011000910BE0F81DC11700EB5171C910B3
:101D300005FB01411BF80110C943C9B200910026FF
:101D40001BE0802030410099084050B109EB0502AA
:101D5000D1B208EBC4023244D0B2012200F073F8D1
:101D600009E009EB0502D1B208EBC4023244D0B25B
:101D7000002200F068F8701CC6B2082EE1DB601C7F
:101D8000C4B2F81DC11700EB5171B4EBE10FBDDB1C
:101D9000681CC5B25545B7DBBDE8F88F3E71000839
:101DA000FA72000870B504460D4625B11021AA4804
:101DB00001F0DBFA03E01021A74801F0D8FA08216E
:101DC000A54801F0D4FAE0B200F04AF90821A2488F
:101DD00001F0CBFA70BD70B505460C462646E117FA
:101DE00004EB5171C91001F1B0000021FFF7DAFFD7
:101DF000A91CC1F3031141F010000021FFF7D2FF2D
:101E0000A91C01F00F000021FFF7CCFF70BD10B539
:101E100000218D20FFF7C6FF00211420FFF7C2FF2D
:101E20000021AF20FFF7BEFF10BD10B500218D20AF
:101E3000FFF7B8FF00211020FFF7B4FF0021AE200C
:101E4000FFF7B0FF10BDF0B503461446E4B1CD175F
:101E500001EB5575ED1003EBC515804E755D0A4617
:101E6000CE1701EB5676F610A1EBC6070126BE4051
:101E7000F6B235430846CE1701EB5676F61003EB63
:101E8000C616764FBD551AE0CD1701EB5575ED100E
:101E900003EBC515714E755D0A46CE1701EB5676FC
:101EA000F610A1EBC6070126BE40B5430846CE1783
:101EB00001EB5676F61003EBC616684FBD55F0BD24
:101EC00070B500241BE004F1B0000021FFF76AFFA9
:101ED00000210846FFF766FF00211020FFF762FF90
:101EE000002508E005EBC4115C4A505C0121FFF7B6
:101EF00059FF681CC5B2802DF4DB601CC4B2082CED
:101F0000E1DB70BD10B5044634B1FF224FF48061AF
:101F1000524803F092F904E04FF480614F4803F017
:101F200094F9FFF7CDFF10BD10B520214A4801F00C
:101F30001CFA642000F0B1FF2021474801F017FA95
:101F4000642000F0AAFF2021434801F00EFA10BDE2
:101F500008B50121042001F017FCF820ADF80000BD
:101F600010208DF8030003208DF8020069463A48DE
:101F700001F04EF9F821384801F0F7F908BD10B525
:101F8000FFF7E6FFC82000F088FFFFF7CDFF002134
:101F9000AE20FFF707FF00210846FFF703FF0021EF
:101FA0001020FFF7FFFE00214020FFF7FBFE00217D
:101FB000B020FFF7F7FE00218120FFF7F3FE00219C
:101FC000FF20FFF7EFFE0021A120FFF7EBFE00212D
:101FD000A620FFF7E7FE0021A820FFF7E3FE00217F
:101FE0003F20FFF7DFFE0021C820FFF7DBFE0021C6
:101FF000D320FFF7D7FE00210846FFF7D3FE0021CC
:10200000D520FFF7CFFE00218020FFF7CBFE002177
:10201000D920FFF7C7FE0021F120FFF7C3FE002102
:10202000DA20FFF7BFFE00211220FFF7BBFE0021E0
:10203000DB20FFF7B7FE00213020FFF7B3FE0021C1
:102040008D20FFF7AFFE00211420FFF7ABFE00212B
:10205000AF20FFF7A7FE10BD000801409415002037
:1020600070B504460025082517E004F0800020B173
:1020700040210B4801F079F903E04021084801F0C4
:1020800076F98021064801F072F98021044801F0B8
:102090006CF96006040E681EC5B2002DE5DC70BD4B
:1020A0000008014010B56248006820F47060604983
:1020B00008600846006840F44070086000205D49F0
:1020C0000860142000F0E9FE01205B49C1F8880196
:1020D0001E2000F0BEFE10BD10B50024544800685C
:1020E00020F47060524908600846006840F40060BF
:1020F000086004E0601CC4B2012000F0AAFE4D4854
:102100008038006808B1642CF4DB642C01DB01200A
:1021100010BD002404E0601CC4B2012000F099FE50
:1021200044488038006808B9642CF4DB642C01DB77
:102130000120EDE70020EBE710B5002404E0601C6F
:10214000C4B2012000F085FE3A488038006808B12A
:10215000642CF4DB002404E0601CC4B2012000F015
:1021600078FE34488038006808B9642CF4DB2820F5
:1021700000F06FFE2F488038006808B1012010BDC4
:102180000020FCE770B50024002506E06006040E80
:10219000FFF7D2FF0443681CC5B2082DF6DB2046CA
:1021A00070BD7CB505460E46FFF77CFFFFF794FF38
:1021B000F8B9002405E0FFF7E5FF0DF80400601C06
:1021C000C4B2052CF7DB9DF800009DF8011008440F
:1021D0009DF8021008449DF8031008449DF804106F
:1021E000884208D19DF8000030709DF802002870E8
:1021F00001E001207CBD0020FCE708B5012104209E
:1022000001F0C2FA0420ADF8000010208DF80300A0
:1022100003208DF802006946054800F0F9FF04210B
:10222000034801F0A2F8FFF73DFFFFF755FF08BD97
:1022300000080140880121420000214208B5032026
:102240008DF8000000208DF801008DF802000120BB
:102250008DF80300684600F012FF08BDF0B5034694
:102260000C461546642093FBF0F0C6B2642093FB45
:10227000F0F700FB1730C1B2132E02DD01F164004C
:10228000C1B20846CF1701EB977701EBA707BAB2A7
:10229000072092FBF0F700FB172082B25719601E4F
:1022A000DFF870C31CF80000384482B2CF1701EB8E
:1022B0009777BF10A1EB87071FB9032C01DA501ED7
:1022C00082B2072092FBF0F700FB1720C0B2F0BDEE
:1022D0000146CA1701EB92729210A1EB820292B9E9
:1022E000642091FBF0F200FB121050B94FF4C8705B
:1022F00091FBF0F200FB121008B90120704700209A
:10230000FCE70120FAE70020F8E770B5002600247A
:10231000002501F0BDFA0646BF48B6FBF0F4BF4801
:102320000088A0423CD0BD490C8040F2B27510E05C
:102330002846FFF7CDFF40B1B4F5B77F02D3A4F52F
:10234000B77404E0681C85B206E0A4F26D14681C42
:1023500085B2B4F5B67FEBD800BFB14885800025C3
:1023600016E0AF498888FFF7B3FF30B1012D04D1E3
:102370001D2C01D31D3C09E00CE0AA48405DA042A1
:1023800003D8A848405D241A00E003E0681C85B229
:102390001C2CE6D200BF681CA1498871601CC87162
:1023A0009D48B6FBF0F100FB11644FF46160B4FB93
:1023B000F0F09B4908704FF46160B4FBF0F100FB52
:1023C00011403C21B0FBF1F0954948704FF4616039
:1023D000B4FBF0F100FB11403C21B0FBF1F201FB3A
:1023E00012008F4988700B46DA7999799888FFF73F
:1023F00035FF8B490872002070BD2DE9F05F06465D
:102400000F4690469946DDE90AAB002440F2B270CF
:10241000864203DB40F63300864202DD0120BDE840
:10242000F09F40F2B2750AE02846FFF751FF10B165
:102430007D48044401E07D480444681C85B2B542EF
:10244000F2DB781EC7B2002510E07648405D40F20E
:10245000A321484304EBC0143046FFF739FF18B1FD
:10246000012D01D16C480444681C85B2BD42ECDBEF
:10247000A8F1010040F2A321484304EBC014C9EBCA
:102480004910C0EB092004EB0014CAEB0A1004EB5E
:1024900080045C4401214FF0C05001F082F901201A
:1024A00001F0EBFC204601F0FCF901F02DFA0020D0
:1024B000B5E71CB5002401214FF0C05001F071F9BF
:1024C000012001F0DAFC042001F09FFC45F25001EC
:1024D00088423BD001F064FC012001F0C2F804E026
:1024E000601CC4B20A2000F0D8FC412001F021F8A1
:1024F00008B9FA2CF4DBFA2C01DB01201CBD4FF4E7
:10250000807001F0CAF8012001F0CDF801F0FCF96B
:1025100001F003FA01F0F8F901F0A7F947F6FF70AE
:1025200001F0CCF901F0F0F90020009003460122FF
:102530001146019040F2E670FFF75FFF01F09EF94F
:1025400045F25001042001F054FC03E001F0E5F9EC
:1025500001F0DAF9FFF7D9FE0020CFE72DE9F05FAF
:1025600006460F4690469946DDE90AAB002440F244
:10257000B270864203DB40F63300864202DD012062
:10258000BDE8F09F40F2B2750AE02846FFF7A0FED2
:1025900010B12548044401E024480444681C85B275
:1025A000B542F2DB781EC7B2002510E01D48405D41
:1025B00040F2A321484304EBC0143046FFF788FEE5
:1025C00018B1012D01D114480444681C85B2BD42E4
:1025D000ECDBA8F1010040F2A321484304EBC01456
:1025E000C9EB4910C0EB092004EB0014CAEB0A1038
:1025F00004EB80045C4401214FF0C05001F0D1F89D
:10260000012001F03AFC204601F066F901F07CF966
:102610000020B5E70676000880510100E414002090
:1026200094190020127600080085E2018033E10150
:1026300010B540F225517B4801F06EFB70B340F2BB
:102640002551784801F092FB764801F0E5FAC4B2D2
:1026500075480088B0F5967F20DA734801880088B5
:10266000401C714A1080101D44540A2C05D00D2CBA
:102670000BD155201146C8700FE06B48C078552823
:1026800002D1AA206849C87007E06748C078AA2824
:1026900002D000206449C87000BF00BF10BD10B553
:1026A00086B004460121082001F06EF8012188045B
:1026B00001F077F85B4801F06FF94FF48060ADF8F6
:1026C000140003208DF8160018208DF8170005A9B6
:1026D000564800F09DFD4FF40060ADF81400042052
:1026E0008DF8170005A9514800F092FD01940020D3
:1026F000ADF80800ADF80A00ADF80C00ADF8100018
:102700000C20ADF80E0001A9464801F088F92720F9
:102710008DF8000001208DF801008DF802008DF881
:102720000300684600F0ABFC012240F225513D4811
:1027300001F00DFA01213B4801F0FDF906B010BD92
:102740002DE9F04107460D46164600240CE000BF77
:102750004021384601F0CAFA0128F9D1295D3846EE
:1027600001F056FA601C84B2B442F0DB00BF402195
:10277000384601F0BBFA0128F9D1BDE8F0812DE916
:10278000F04106460C46204602F006FD87B20025C1
:102790000CE000BF4021304601F0A8FA0128F9D131
:1027A000615D304601F034FA681C85B2BD42F0DB51
:1027B00000BF4021304601F099FA0128F9D1BDE867
:1027C000F0812DE9F04104460D46164600270DE044
:1027D000142000F062FB2146284602F09FFC10B155
:1027E0000020BDE8F08107F1140087B2B742EFDBAB
:1027F0000120F6E72DE9F04106460F4614461D4636
:10280000DDF818804FF49871074802F01EFD394634
:102810003046FFF7B4FF424629462046FFF7D1FF76
:10282000BDE8F081004800409E190020000C0140E6
:10283000014600200A46D37B23B1012B06D0022B90
:102840000DD107E0FC4B1B68D8B209E0FB4B1B68BD
:10285000D8B205E0F94B1B1F1B68D8B200E000BFDF
:1028600000BF7047002051E000EB8001F44A02EB0A
:102870008101C873F34900EB8002F14B43F8221049
:10288000002100EB800203EB8202117100EB800259
:1028900003EB82025171012100EB800203EB820203
:1028A000D180322100EB800203EB820211814FF4D0
:1028B000967100EB800203EB82025181002100EB54
:1028C000800203EB8202117400EB800203EB8202B0
:1028D000918100EB800203EB8202917300EB800296
:1028E00003EB82025174012801D002280CD142F27C
:1028F0000F7100EB8002D24B03EB8202118100EBDF
:10290000800203EB82025181411CC8B20328ABDB79
:10291000704770B50025002414E004EB8402C84B16
:1029200003EB820004EB840253F82210884704EB87
:102930008401C34A02EB8101097C4840A040054361
:10294000601CC4B2032CE8DB284670BD30B50246DB
:10295000002000216BE101EB8103B94C04EB830300
:102960005B79012B20D101EB810304EB83039B896D
:102970005B1C01EB8104B24D05EB8404A38101EBE8
:1029800081032C4604EB83039B894FF6FF74A3421B
:102990000ADB01EB81032C4604EB83035B8901EB2B
:1029A000810405EB8404A38101EB8103A44C04EBB7
:1029B00083031B7933B1012B75D0022B71D0032B0C
:1029C00070D1CDE022FA01F303F0010373B301EB00
:1029D00081039B4C04EB83035B7993B9002301EBE8
:1029E0008104974D05EB8404A38101EB810405EB81
:1029F0008404A373012301EB810405EB8404637158
:102A00004DE001EB81038E4C04EB83039B8901EBCA
:102A100081048B4D05EB8404E488A3423FDB012352
:102A200001EB810405EB8404237138E001EB8103A1
:102A3000834C04EB83039B7B012B10DD002301EB14
:102A400081047F4D05EB8404A373032301EB810410
:102A500005EB8404637101238B4018431FE001EBF5
:102A60008103774C04EB83039B7B012B10D1002364
:102A700001EB8104724D05EB8404A373022301EB87
:102A8000810405EB8404637101238B40184306E045
:102A9000002301EB81046A4D05EB84046371C3E0FC
:102AA00001E0B3E0BFE022FA01F303F00103E3B376
:102AB00001EB8103624C04EB83039B7B002B16DD4F
:102AC000002301EB81045E4D05EB8404A373032313
:102AD00001EB810405EB84046371022301EB8104A3
:102AE00005EB8404237101238B40184337E001EB8D
:102AF0008103534C04EB83039B8901EB8104504D0C
:102B000005EB84046489A34229DB042301EB8104DF
:102B100005EB84046371022301EB810405EB84045B
:102B2000237101238B40184319E0FFE7002301EBD9
:102B30008104434D05EB8404A38101EB81032C4602
:102B400004EB83039B7B5B1C01EB810405EB84049A
:102B5000A373032301EB810405EB8404237163E079
:102B600022FA01F303F0010393B1002301EB810486
:102B7000334D05EB8404A38101EB810405EB840450
:102B80002371012301EB810405EB840463713CE0B4
:102B900001EB81032A4C04EB83039B8901EB810445
:102BA000274D05EB84042489A3422EDB01EB81032E
:102BB0002C4604EB83039B7B012B0FDD002301EBF1
:102BC000810405EB8404A373032301EB810405EB6B
:102BD0008404637101238B4018430FE0002301EB51
:102BE0008104174D05EB8404A373022301EB8104D8
:102BF00005EB8404637101238B401843002301EB30
:102C000081040F4D05EB840423710DE022FA01F3DA
:102C100003F0010333B9002301EB8104084D05EBF8
:102C20008404237100BF00BF00BF4B1CD9B203292D
:102C3000FFF691AE30BD0000008121420401214227
:102C4000D01A00203128000800203449497E02298A
:102C500007D1324991F82D10022901D1AA2000E0B4
:102C60005520704710B52D48407E022803D12CA175
:102C70002F48FFF784FD2948407E032803D12DA16A
:102C80002B48FFF77CFD2548407E042803D12DA169
:102C90002748FFF774FD2148407E022803D12CA16C
:102CA0002348FFF76CFD002408E0002004EB8401BA
:102CB0001A4A02EB81014871601CC4B2032CF4DB98
:102CC00010BD08B501210C2000F05EFD0320ADF819
:102CD000000048208DF8030003208DF802006946AB
:102CE0001F4800F095FA0120ADF8000048208DF84B
:102CF000030003208DF8020069461A4800F088FAA4
:102D0000FFF7B0FD08BD10B5FFF703FE04462046EF
:102D1000FFF71CFE08B1FFF7A5FF10BDD01A002079
:102D200053494E474C455F434C49434B000000001C
:102D300000480040444F55424C455F434C49434B8B
:102D4000000000004C4F4E475F434C49434B00008E
:102D5000415F53494E474C455F434C49434B00004C
:102D600000080140000C01401FB50121022000F0C5
:102D700018FD6420ADF8080040F2CF20ADF8040043
:102D80000020ADF80A00ADF8060001A9214801F0C5
:102D9000A3F91D208DF8000000208DF8010003200C
:102DA0008DF8020001208DF80300684600F067F9F5
:102DB00001221146174801F006FD0121154801F0D6
:102DC000E7FC1FBD10B50121124801F0AAFFF8B1C0
:102DD0000121104801F0B6FF0F480088401C0E4941
:102DE0000880084600880A2190FBF1F201FB1200DE
:102DF00010B9AA2009498870074800884FF47A71F1
:102E000090FBF1F201FB120010B9AA200349C8702F
:102E100010BD0000000400402015002022150020F5
:102E200010B56FF0040000F074F92E4800682E49C8
:102E3000B0FBF1F02D4908700846007800EB400126
:102E4000C1EBC0104FF6FF7101EAC00028490880AD
:102E500010BD0146254A12784A434FF0E0235A61DB
:102E600000229A611A46126942F001021A6100BFFB
:102E70004FF0E022106900F001021AB100F4803234
:102E8000002AF5D04FF0E022126922F001024FF043
:102E9000E0231A6100229A6170470146144A1288A1
:102EA0004A434FF0E0235A6100229A611A461269A0
:102EB00042F001021A6100BF4FF0E022106900F0F9
:102EC00001021AB100F48032002AF5D04FF0E0225E
:102ED000126922F001024FF0E0231A6100229A6188
:102EE000704700000000002000127A002615002024
:102EF0002815002000BF704700BF4A4A128802F020
:102F00004002002AF9D0C2B2464B1B1D1A807047FE
:102F100010B586B00446012144F2040000F034FCF0
:102F20004FF40070ADF8140003208DF8160018203F
:102F30008DF8170005A93C4800F06AF94FF480604D
:102F4000ADF8140004208DF8170005A9364800F0EC
:102F50005FF925208DF8000003208DF801008DF821
:102F6000020001208DF80300684600F088F8019403
:102F70000020ADF80800ADF80A00ADF80C00ADF87F
:102F800010000C20ADF80E0001A9264800F047FD06
:102F9000012240F22551234800F0D9FD01212148AA
:102FA00000F0C9FD06B010BD10B540F225511D4816
:102FB00000F0B2FE10B31B4800F02EFEC4B21B4856
:102FC000008800F40040C8B91848008800F4804028
:102FD00060B10A2C03D000201449088020E0134877
:102FE000008840F400401149088019E00D2C06D1FA
:102FF0000E48008840F480400C49088010E00B48DF
:103000000088C0F30D000A490C5408480088401C91
:103010000649088008460088C72801DD002008808E
:1030200010BD0000003801400008014030150020AC
:103030000C1B00200948804709480047FEE7FEE7CF
:10304000FEE7FEE7FEE7FEE7FEE7FEE7FEE7FEE758
:1030500004480549054A064B704700007F030008F5
:10306000ED000008181D002018230020181F002064
:10307000181F002031490143314A1160704770B573
:10308000002100230F22C47804B32D4C246804F4DB
:10309000E064C4F5E064210AC1F10403CA40447845
:1030A00004FA03F18478144021430901254C067881
:1030B000A155047804F01F050124AC4005786D117A
:1030C000AD0005F1E025C5F8004109E0047804F001
:1030D0001F050124AC401C4D0678761145F82640AA
:1030E00070BD1A4A0A400243154B1B1F1A607047F5
:1030F00039B1134A121D12680243114B1B1D1A608D
:1031000006E00F4A121D126882430D4B1B1D1A6008
:103110007047042808D14FF0E021096941F004010B
:103120004FF0E022116107E04FF0E021096921F042
:1031300004014FF0E0221161704700000000FA0521
:103140000CED00E000E400E080E100E080FFFF1F04
:1031500010B50446CC48844208D10121042000F077
:103160002DFB0021042000F029FB46E0C7488442E3
:1031700008D10121082000F021FB0021082000F0E7
:103180001DFB3AE0C248844208D10121102000F022
:1031900015FB0021102000F011FB2EE0BD488442F9
:1031A00008D10121202000F009FB0021202000F09F
:1031B00005FB22E0B848844208D10121402000F0FC
:1031C000FDFA0021402000F0F9FA16E0B3488442ED
:1031D00008D10121802000F0F1FA0021802000F0C8
:1031E000EDFA0AE0AE48844207D10121801500F0D3
:1031F000E5FA0021A01500F0E1FA10BD10B501219B
:10320000084600F0DBFA0021012000F0D7FA10BDDB
:103210002DE9F0410246002500260020002300246D
:10322000002791F803C00CF00F0591F803C00CF0D3
:10323000100CBCF1000F03D091F802C04CEA050558
:1032400091F800C0BCF1000F31D0146800202BE0D1
:103250004FF0010C0CFA00F3B1F800C00CEA0306C1
:103260009E4220D183004FF00F0C0CFA03F7BC43B1
:1032700005FA03FC4CEA040491F803C0BCF1280FE2
:1032800006D14FF0010C0CFA00FCC2F814C00AE0A1
:1032900091F803C0BCF1480F05D14FF0010C0CFAB6
:1032A00000FCC2F810C0401C0828D1D31460B1F84B
:1032B00000C0BCF1FF0F34DD546800202EE000F1A7
:1032C000080C4FF0010808FA0CF3B1F800C00CEA42
:1032D00003069E4221D183004FF00F0C0CFA03F736
:1032E000BC4305FA03FC4CEA040491F803C0BCF1AA
:1032F000280F05D100F1080C08FA0CF8C2F8148068
:1033000091F803C0BCF1480F07D100F1080C4FF051
:10331000010808FA0CF8C2F81080401C0828CED327
:103320005460BDE8F0814FF6FF7101800221817089
:103330000421C17070470246002093680B400BB116
:10334000012000E0002070470146886880B2704785
:1033500002460020D3680B400BB1012000E00020A2
:1033600070470146C86880B270470161704741618B
:1033700070470AB1016100E041617047C160704768
:103380004FF480320A43826181618261826982697D
:10339000704702460020434B18684FF68073184070
:1033A00040EA021008433F4B186070473E49C8612D
:1033B0007047F0B50A46002300240021002500F0E4
:1033C0000046B6F1004F02D1364EF16901E0354EAC
:1033D0007168C0F3034583B200F44016B6F5401F90
:1033E00008D121F070612F4E766826F070662D4F5F
:1033F0007E6012E000F48016B6F5801F06D1032629
:1034000006FA05F4A14341F0706106E0460D36016D
:1034100003FA06F6B14341F0706122B1460D360160
:1034200003FA06F6314300F00046B6F1004F02D130
:103430001C4EF16101E01B4E7160F0BD30B5002201
:103440008B071C0F0F2303FA04F2164B08338C1062
:1034500053F824309343134C08348D1044F825302E
:1034600023468C1053F824308C07240F00FA04F400
:1034700023430C4C08348D1044F8253030BD0A49E4
:10348000DC3108607047000000080140000C01407A
:10349000001001400014014000180140001C0140D0
:1034A000002001400000014000002042DF48006889
:1034B00040F00100DD49086008464068DC490840EA
:1034C000DA49486008460068DA490840D749086088
:1034D0000846006820F4802008600846406820F410
:1034E000FE0048604FF41F0088607047CF490968AC
:1034F00021F48031CD4A11601146096821F4802100
:103500001160B0F5803F03D0B0F5802F0ED106E0FA
:10351000C649096841F48031C44A116007E0C349D3
:10352000096841F4A021C14A116000E000BF00BF5A
:10353000704710B501460022002300204A11012ADD
:1035400002D1BA4C236806E0022A02D1B74C236AA2
:1035500001E0B64C636A01F01F02012494401C4054
:103560000CB1012000E0002010BD38B50020009013
:103570000024002500BF3120FFF7DBFF054600983F
:10358000401C00900098B0F5A06F01D0002DF2D043
:103590003120FFF7CEFF08B1012400E000242046CF
:1035A00038BD01460020A14A106820F0F80040EA2A
:1035B000C10010607047A0490860704702460020B3
:1035C0009A4B586820F47C1042EA01031843974B49
:1035D0005860704798490866704701460020934A32
:1035E000506820F003000843506070478F484068DF
:1035F00000F00C007047014600208C4A506820F013
:10360000F00008435060704701460020874A506828
:1036100020F4E06008435060704701460020834A70
:10362000506820F4605040EAC1005060704729B1F2
:103630007E4A527A02437D4B5A7204E07B4A527AA8
:1036400082437A4B5A7270477B49D8310860704781
:1036500001460020754A506820F4404008435060FD
:1036600070470021714A20321170704A82F8201090
:10367000012802D004280AD104E001216B4A20323B
:10368000117005E00521694A2032117000E000BF89
:1036900000BF70476949086070476449096A01437F
:1036A000624A11627047654944390860704730B515
:1036B00000210022002400235C4D6D6805F00C0100
:1036C00021B1042905D0082923D105E05C4D05600E
:1036D00022E05B4D05601FE0544D6D6805F47012EB
:1036E000524D6D6805F48034022505EB92421CB9F9
:1036F000544D554305600BE04C4D6D6805F40035A5
:103700001DB1504D5543056002E04D4D55430560D8
:1037100002E04B4D056000BF00BF444D6D6805F0F1
:10372000F0010909484D6B5C0568DD4045603F4D7F
:103730006D6805F4E061090A434D6B5C4568DD4046
:1037400085603A4D6D6805F46051C90A3E4D6B5C69
:103750004568DD40C560354D6D6805F44041890B15
:103760003A4D6B5CC568B5FBF3F5056130BD29B119
:103770002E4A526902432D4B5A6104E02B4A52698A
:1037800082432A4B5A61704729B1284A9269024301
:10379000264B9A6104E0254A92698243234B9A6141
:1037A000704729B1214AD2690243204BDA6104E013
:1037B0001E4AD26982431D4BDA61704729B11B4A08
:1037C000D2680243194BDA6004E0184AD268824397
:1037D000164BDA60704729B1144A12690243134B41
:1037E0001A6104E0114A12698243104B1A61704752
:1037F00012494039086070470F49C86470470B4947
:10380000C87170470948406A40F0807007494862B3
:10381000704701460020054A92680A400AB101201B
:1038200000E0002070470149887270470010024094
:103830000000FFF8FFFFF6FE000042428004424213
:1038400000127A0000093D003215002042150020C8
:1038500029B1504A128802434E4B1A8004E04D4A67
:10386000128882434B4B1A8070474A48001D0088DB
:1038700040F010004749091D088070474548001D69
:1038800000884FF6EF7108404249091D08807047D3
:10389000002140481C300188001F008841EA004098
:1038A000704700B50246FFF7E0FF100C39491831A8
:1038B0000880091D0A80FFF7E1FF00BD00B5024640
:1038C000FFF7D3FFC2F30340324908310880091DD6
:1038D0000A80FFF7D3FF00BD00B50246FFF7C5FF22
:1038E000100C2C4920310880091D0A80FFF7C6FF03
:1038F00000BD00202749103109880907080B254918
:10390000143109880843704700BF2248001D008811
:1039100000F020000028F8D070471E48001D0088E5
:103920004FF6F77108401B49091D088000BF194870
:10393000001D008800F008000028F8D070470146FC
:103940000020144A121D12880A400AB1012000E02A
:10395000002070470F49091D098881430D4A121D37
:1039600011807047014600200A4A121D12880A4041
:10397000D0B2084A12880A4012B108B1012000E012
:10398000002070470349091D09888143014A121D1F
:10399000118070470028004010B50446FB4884425F
:1039A00009D101218803FFF709FF00214FF480406E
:1039B000FFF704FF32E0F648844209D101214804B0
:1039C000FFF709FF00214FF40030FFF704FF25E067
:1039D000F048844209D101218804FFF7FCFE002150
:1039E0004FF48020FFF7F7FE18E0EB48844209D13E
:1039F0000121C804FFF7EFFE00214FF40020FFF77C
:103A0000EAFE0BE0E548844208D101210805FFF7F2
:103A1000E2FE00214FF48010FFF7DDFE10BD2DE91E
:103A2000F04786B005460E460024A24600BFA146D8
:103A30000027B08900B100BF2F462C8A4CF6FF70DA
:103A40000440F08804432C82AC894EF6F310044005
:103A5000B08831890843718908430443AC81AC8A3A
:103A60004FF6FF400440B0890443AC8201A8FFF741
:103A70001EFEC648874202D1DDF810A001E0DDF845
:103A80000CA0A88900F4004040B10AEBCA0000EB8A
:103A90000A1031684900B0FBF1F807E00AEBCA00F0
:103AA00000EB0A1031688900B0FBF1F86420B8FB24
:103AB000F0F004012009642101FB1089A88900F4B9
:103AC000004040B1322000EBC900B0FBF1F000F043
:103AD0000700044308E0322000EB09106421B0FB2A
:103AE000F1F000F00F0004432C8106B0BDE8F08730
:103AF0004FF41651016000218180C18001810C21A9
:103B0000418100218181704710B502460020108A52
:103B10004FF2FF0318400B884C8823438C882343C3
:103B2000CC8823431843108210BD002101804180BE
:103B30008180C180704721B1828942F40052828124
:103B400004E082894DF6FF731A4082817047F0B518
:103B50000346002400260025002040F66A17B942DB
:103B600000D100BF1846C1F3421401F01F0601271F
:103B700007FA06F5012C01D10C3004E0022C01D12A
:103B8000103000E014301AB107682F43076002E0DC
:103B90000768AF430760F0BD1AB1838A0B43838285
:103BA00002E0838A8B4383827047028A4FF6F07368
:103BB0001A400282028A0A430282704782894FF2C7
:103BC000FF731A40828182890A438281704721B142
:103BD000828942F00202828104E082894FF6FD73FD
:103BE0001A4082817047028A4FF6DF731A400282C0
:103BF000028A0A430282704721B1028A42F480425B
:103C0000028204E0028A4BF6FF731A400282704778
:103C1000C1F308028280704701468888C0F308001B
:103C20007047818941F0010181817047028BD2B2D6
:103C30000283028B42EA012202837047028B02F464
:103C40007F420283028B0A430283704721B1828A3A
:103C500042F02002828204E0828A4FF6DF731A402B
:103C60008282704721B1828A42F01002828204E08F
:103C7000828A4FF6EF731A408282704721B1828A9E
:103C800042F00802828204E0828A4FF6F7731A40FB
:103C90008282704721B1828942F40042828103E02E
:103CA0008289C2F30E028281704721B1828A42F476
:103CB0000062828204E0828A4FF2FF731A4082829D
:103CC0007047828A4FF6FB731A408282828A0A43C7
:103CD0008282704721B1828A42F00202828204E02D
:103CE000828A4FF6FD731A40828270470246002096
:103CF000B1F5007F00D100BF13880B400BB101204C
:103D000000E00020704701F40072B2F5007F00D19E
:103D100000BFCA430280704770B5024600240023EA
:103D20000025002040F66A16B14200D100BFC1F361
:103D3000421501F01F03012606FA03F3012D02D1FB
:103D40009689334006E0022D02D1168A334001E005
:103D5000968A33400C12012606FA04F41688344081
:103D600013B10CB1012000E0002070BD10B500229D
:103D7000002340F66A14A14200D100BF0A120124B8
:103D80009440A3B2DC43048010BD00000038014021
:103D90000044004000480040004C004000500040FB
:103DA00010B50120FFF724FD0020FFF721FD10BD15
:103DB0002A49086070472949091F08607047274948
:103DC00084310860704701460020254A10884FF66C
:103DD0007F4210400843224A10807047014600206D
:103DE0001F4A10884FF68072104008431C4A10800A
:103DF000704708B500220092194A2C3A0092009AA6
:103E000002440092009A116008BD08B501460020E6
:103E1000009013482C3800900098084400900098B7
:103E2000008808BD0D489C300068C0B270470C483F
:103E30000830008840F001000949083108807047C7
:103E40000648A0300068C0B27047054808300088B6
:103E500040F00200024908310880704704860D4294
:103E60002C6C004010B501210807FFF7B4FC0021BD
:103E70004FF08050FFF7AFFC10BD2A490862704731
:103E800028490861704701460020274A106820F041
:103E9000E0000843106070472249A0310860704775
:103EA00010B502460020204B186820F00300104394
:103EB00018601E4B1B6843F004031C4C236001294F
:103EC00001D130BF00E020BF184B1B6823F0040372
:103ED000164C236010BD1448006840F004001249DD
:103EE00008600846006840F0020008600F4800685B
:103EF00040F004000D49086000BF00BF30BF7047AC
:103F000001460020084A52680A400AB1012000E038
:103F1000002070470449096841EA8001024A1160A3
:103F20007047000000000E420070004010ED00E0FD
:103F300010B50446FE48844208D10121C014FFF7A1
:103F40003DFC0021E014FFF739FCC4E0B4F1804FE0
:103F500008D101210846FFF73EFC00210120FFF7B0
:103F60003AFCB8E0F348844208D101210220FFF76F
:103F700032FC00210220FFF72EFCACE0EE48844228
:103F800008D101210420FFF726FC00210420FFF7BF
:103F900022FCA0E0E948844208D101210820FFF773
:103FA0001AFC00210820FFF716FC94E0E448844244
:103FB00008D101211020FFF70EFC00211020FFF78F
:103FC0000AFC88E0DF48844208D101212020FFF765
:103FD00002FC00212020FFF7FEFB7CE0DA4884424F
:103FE00008D101214014FFF7E9FB00216014FFF71D
:103FF000E5FB70E0D548844209D10121C804FFF7F0
:10400000DDFB00214FF40020FFF7D8FB63E0D04830
:10401000844209D101210805FFF7D0FB00214FF4AC
:104020008010FFF7CBFB56E0CA48844209D101213A
:104030004805FFF7C3FB00214FF40010FFF7BEFB5C
:1040400049E0C548844208D101214020FFF7C3FB65
:1040500000214020FFF7BFFB3DE0C048844208D16B
:1040600001218020FFF7B7FB00218020FFF7B3FB81
:1040700031E0BB48844208D101218015FFF7ABFB3A
:104080000021A015FFF7A7FB25E0B648844209D11F
:1040900001210804FFF792FB00214FF48030FFF765
:1040A0008DFB18E0B048844209D101214804FFF794
:1040B00085FB00214FF40030FFF780FB0BE0AB489D
:1040C000844208D101218804FFF778FB00214FF4D6
:1040D0008020FFF773FB10BD00220288944B9842AA
:1040E0000ED0994B98420BD0B0F1804F08D0914B35
:1040F000984205D0904B984202D0904B984204D100
:104100004FF68F731A404B881A438D4B984207D055
:104110008C4B984204D04FF6FF431A40CB881A4389
:1041200002808B8883850B880385814B98420BD056
:10413000854B984208D08B4B984205D08A4B9842C9
:1041400002D08A4B984201D10B7A038601238382E5
:10415000704770B5002400220023058C4FF6FE76D0
:1041600035400584028C8388048B4FF68F752C4074
:10417000B51E2C400D882C43751E2A400D892A43FC
:104180004D882A436A4DA8420BD06F4DA84208D0F3
:10419000744DA84205D0744DA84202D0734DA84278
:1041A00013D14FF6F7752A404D892A434FF6FB7518
:1041B0002A408D882A434FF6FF652B404FF6FF5566
:1041C0002B408D892B43CD892B4383800483CD885D
:1041D0008586028470BD70B5002400220023058C02
:1041E0004FF6EF7635400584028C8388048B48F6C1
:1041F000FF752C404FF6FF452C400D884FF6FF769B
:1042000006EA05252C434FF6DF752A400D8906EA9C
:1042100005152A434D8806EA05152A43444DA84250
:1042200002D0494DA8421DD14FF67F752A404D89D5
:104230004FF6FF7606EA05152A434FF6BF752A406A
:104240008D8806EA05152A434FF6FF352B404FF2BD
:10425000FF752B408D8906EA85052B43CD8906EA3B
:1042600085052B4383800483CD880587028470BD38
:1042700070B5002400220023058C4FF6FF66354000
:104280000584028C8388848B4FF68F752C404FF603
:10429000FC752C400D882C434FF6FF552A400D89A4
:1042A0004FF6FF7606EA05252A434D8806EA0525DE
:1042B0002A431F4DA84202D0234DA8421DD14FF2E0
:1042C000FF752A404D894FF6FF7606EA05252A43F9
:1042D0004FF6FF352A408D8806EA05252A434EF61B
:1042E000FF752B404DF6FF752B408D8906EA0515AD
:1042F0002B43CD8906EA05152B4383808483CD8823
:104300008587028470BD70B5002200230024058CCF
:104310004EF6FF7635400584038C8488828B48F600
:10432000FF752A404FF6FF452A400D8820E0000027
:10433000002C01400004004000080040000C004038
:10434000001000400014004000340140004C0140C7
:10435000005001400054014000180040001C004083
:10436000002000400040014000440140004801405E
:104370004FF6FF7606EA05252A434DF6FF752B40DA
:104380000D8906EA05352B434D8806EA05352B4392
:10439000FA4DA84202D0FA4DA84208D14BF6FF755B
:1043A0002C408D894FF6FF7606EA85152C438480D4
:1043B0008283CD88A0F84050038470BD828B4FF279
:1043C000FF331A408283828B4FF6FF7303EA012387
:1043D0001A4382837047F0B50C461546002200212F
:1043E0000026078C4EF6FF7C07EA0C070784828BB9
:1043F000018C4FF6FF7707EA043640F6FF473A4054
:104400004FF6FF7707EA05273A434FF6FF7707EAAB
:1044100003373A43D94FB8420ED0D94FB8420BD0E8
:10442000B0F1804F08D0D74FB84205D0D64FB84230
:1044300002D0D64FB84206D14DF6FF77394046F448
:104440008057394305E047F6FF57394044F4805719
:10445000394382830184F0BD828B4FF6F3731A4097
:104460008283828B0A4382837047F0B50C461546DF
:10447000002200210026078C4FF6FF6C07EA0C078C
:104480000784828B018C4FF6FF7707EA04264FF6EC
:104490000C773A404FF6FF7707EA03172F433A436A
:1044A000B64FB8420ED0B64FB8420BD0B0F1804FE5
:1044B00008D0B44FB84205D0B34FB84202D0B34F82
:1044C000B84206D14FF6FF57394046F4807739435A
:1044D00005E04FF2FF57394044F480773943828337
:1044E0000184F0BD028B4FF2FF331A400283028B2E
:1044F0004FF6FF7303EA01231A4302837047F0B5B6
:104500000C461546002200210026078C4FF6EF7C52
:1045100007EA0C070784028B018C4FF6FF7707EA46
:10452000041640F6FF473A404FF6FF7707EA033795
:104530003A434FF6FF7707EA05273A438F4FB842D1
:104540000ED08F4FB8420BD0B0F1804F08D08D4FB6
:10455000B84205D08C4FB84202D08C4FB84206D139
:104560004FF6DF77394046F01007394305E04FF644
:104570005F77394044F01007394302830184F0BD6E
:10458000028B4FF6F3731A400283028B0A430283B5
:104590007047F0B50C46154600220021068C4FF6F8
:1045A000FE773E400684028B018C4FF60C7632403B
:1045B0007E1C06EA03162E433243704EB0420ED0E4
:1045C0006F4EB0420BD0B0F1804F08D06D4EB0426C
:1045D00005D06D4EB04202D06C4EB04206D14FF6BF
:1045E000FD76314044F00106314305E04FF6F576A3
:1045F000314044F00106314302830184F0BD70B5BF
:1046000005460C465D4885420ED05D4885420BD07C
:10461000B5F1804F08D05B48854205D05A488542A5
:1046200002D05A48854200D100E000BF208850B92E
:104630002389A28861882846FFF7ABFFE1882846D6
:10464000FFF79EFF25E0208804280AD12389A2884D
:1046500061882846FFF753FFE1882846FFF742FFAD
:1046600017E0208808280AD12389A2886188284673
:10467000FFF7FBFEE1882846FFF7EEFE09E02389FD
:10468000A28861882846FFF7A6FEE1882846FFF742
:1046900095FE70BD2DE9F04105460C460026012728
:1046A000608808B9022600E00026A088012801D110
:1046B000022700E001272088A0B92389A288618809
:1046C0002846FFF766FFE1882846FFF759FF238950
:1046D0003A4631462846FFF712FFE1882846FFF7A1
:1046E00001FF13E02389A28861882846FFF707FFAE
:1046F000E1882846FFF7F6FE23893A4631462846E8
:10470000FFF747FFE1882846FFF73AFFBDE8F08151
:104710000A884B881A438B881A43CB881A430B8923
:104720001A434B891A438B891A43A0F844207047D7
:104730004FF6FF71818000210180C18041800172AC
:1047400070470021018041808180C18001814181C9
:104750008181C181704700210180418001218180D8
:104760000021C1800181704700210180418081804A
:10477000C18001814181818170470000002C01408E
:10478000003401400004004000080040000C0040DC
:1047900021B1028842F00102028004E002884FF653
:1047A000FE731A400280704731B1B0F8442042F4E1
:1047B0000042A0F8442005E0B0F84420C2F30E0205
:1047C000A0F8442070471AB183890B43838102E02B
:1047D00083898B43838170478182704741EA02035A
:1047E000A0F8483070471AB183890B43838102E0F7
:1047F00083898B438381704701894FF6F87211409A
:10480000018170470A46002101894FF68F731940D4
:1048100011430181704730B504460D4629462046B4
:10482000FFF7F0FF208940F00700208130BD2DE91F
:10483000F04104460D4616461F46602D06D13B4604
:10484000012231462046FFF75AFE05E03B46012291
:1048500031462046FFF79DFE29462046FFF7D2FF4E
:10486000208940F007002081BDE8F08130B50C467A
:1048700000210189C9B24FF6FF7505EA03251543EA
:1048800025432943018130BD2DE9F04105460E46FF
:1048900017469846002443463A4631462846FFF7D5
:1048A000E5FF2C894FF6F870044044F007044FF6FA
:1048B0008F70044044F070042C81BDE8F081F0B5A5
:1048C00004460D4616461F463B46324629462046BC
:1048D000FFF7CCFF208940F480402081F0BD0185A6
:1048E000828270470A46002101884FF68F73194073
:1048F000114301807047F0B50C4615461E46002155
:10490000002200230189028B038C4FF6F87739408F
:1049100021434FF6FC473A4040F201173A434FF625
:10492000DD773B404FF6FF7707EA06172F433B43FF
:10493000018102830384F0BD0A460021018B4FF6FA
:104940008F7319401143018370470A460021018B80
:1049500048F6FF7319404FF6FF7303EA0223194329
:10496000018370470A460021818B4FF68F731940EF
:104970001143818370470A460021818B48F6FF73FB
:1049800019404FF6FF7303EA0223194381837047EE
:1049900021B1028842F08002028004E002884FF6D2
:1049A0007F731A400280704721B1828842F004026E
:1049B000828004E082884FF6FB731A408280704741
:1049C00021B1828842F00802828004E082884FF69A
:1049D000F7731A408280704721B1828842F0010249
:1049E000828004E082884FF6FE731A40828070470E
:1049F0000A460021018B4FF6F773194011430183DA
:104A000070470A460021018B4FF2FF7319404FF6A1
:104A1000FF7303EA02231943018370470A4600210A
:104A2000818B4FF6F77319401143818370470A4613
:104A30000021818B4FF2FF7319404FF6FF7303EA99
:104A400002231943818370470A460021018B4FF6E8
:104A5000FB7319401143018370470A460021018B03
:104A60004FF6FF3319404FF6FF7303EA0223194351
:104A7000018370470A460021818B4FF6FB73194072
:104A80001143818370470A460021818B4FF6FF3323
:104A900019404FF6FF7303EA0223194381837047DD
:104AA0000A460021018B4FF67F73194011430183A1
:104AB00070470A460021018BC1F30E014FF6FF73C8
:104AC00003EA02231943018370470A460021818BC0
:104AD0004FF67F7319401143818370470A460021C6
:104AE000818BC1F30E014FF6FF7303EA02231943D2
:104AF000818370470A460021018C4FF6FD731940EF
:104B00001143018470470A460021018C4FF6F77368
:104B100019401143018470470A460021018C4FF669
:104B2000DF7319404FF6FF7303EA02131943018440
:104B300070470A460021018C4FF67F7319404FF6EB
:104B4000FF7303EA02131943018470470A460021E8
:104B5000018C4FF6FF5319404FF6FF7303EA02230F
:104B60001943018470470A460021018C4FF2FF73FC
:104B700019404FF6FF7303EA02231943018470477B
:104B80000A460021018C4DF6FF7319404FF6FF7362
:104B900003EA023319430184704730B5002301242E
:104BA0008C40A3B2048C9C430484048C02FA01F56B
:104BB000ADB22C43048430BD30B5002304248C40B6
:104BC000A3B2048C9C430484048C02FA01F5ADB2B8
:104BD0002C43048430BD70B50346002000241846E1
:104BE000183001258D40ACB21D8CA5431D8409B140
:104BF000082909D100EB6100056825F07005056002
:104C00000568154305600EE00D1FC5F34E052844E9
:104C1000056825F4E045056005684FF6FF7606EA6D
:104C200002263543056070BD21B1028842F00202C0
:104C3000028004E002884FF6FD731A40028070473C
:104C400021B1028842F00402028004E002884FF69B
:104C5000FB731A400280704721B1828842F08002C3
:104C6000828004E082884FF67F731A40828070470A
:104C700002884FF6F7731A40028002880A430280C6
:104C8000704782884FF68F731A40828082880A4369
:104C90008280704702894FF6F8731A4002810289B8
:104CA0000A430281704702894FF67F731A400281DE
:104CB00002890A4302817047818470478185704769
:104CC000818670470187704781877047A0F8401040
:104CD000704702884FF6FF431A40028002880A4359
:104CE000028070470146888E70470146088F7047E2
:104CF0000146888F70470146B1F840007047014671
:104D0000888C70470146088D704702460020138A40
:104D10000B400BB1012000E000207047CA43028223
:104D2000704730B50246002000230024158A05EAAA
:104D30000103958905EA010413B10CB1012000E0DB
:104D4000002030BDCA430282704700002DE9F041C7
:104D5000044654B1204601F023F8054600F01AFD40
:104D6000074600F0D9FF401C00E00120C0B2BDE8BA
:104D7000F0812DE9F04780460E46914626B940461F
:104D8000FFF7E4FF044600E034464746254600BFEF
:104D9000681EC5B20A20B7FBF0F100FB117030307D
:104DA00009F805000A20B7FBF0F7002DF0D12046E6
:104DB000BDE8F08701460A2091FBF0F200FB1210DB
:104DC0000A2291FBF2F240EA0210C0B2704701469B
:104DD00001F00F000A1102EB820200EB4200C0B2A8
:104DE00070472DE9F04706460F4690461D46781B52
:104DF000401C0FFA80F900240AE030192A46414687
:104E000000F09EF910B92046BDE8F087601C04B29E
:104E10004C45F2DB4FF0FF30F6E7F0B58DB00546BC
:104E20000E46002730221D4901A800F0D4F90024C5
:104E30000EE0781CC7B201A951F824003246294679
:104E400000F07EF910B938460DB0F0BD601CC4B258
:104E50000C2CEEDB0020F7E7F0B593B005460E46CC
:104E600048220E49303101A800F0B5F9002410E0C5
:104E7000781CC7B204EB840101AA02EB4100324660
:104E8000294600F05DF910B9384613B0F0BD601C3A
:104E9000C4B2072CECDB0020F7E700002076000806
:104EA00010B5002403E0FBF78FFC601CC4B2052C96
:104EB000F9DB10BD00B589B000200790089006907E
:104EC000059004900390029073484078AA2805D07A
:104ED000AA20714948700020FDF714F8FBF706FE80
:104EE0006E49888807AA0421FFF743FF6B49887938
:104EF00006AA0221FFF73DFF6849C87905AA0221E9
:104F0000FFF737FF0120082307AA19460090002069
:104F1000FCF79EFC0120082361A21946009018208E
:104F2000FCF796FC0120082306AA194600901E20D3
:104F3000FCF78EFC0120082359A2194600902A2074
:104F4000FCF786FC0120082305AA194600903020B2
:104F5000FCF77EFCFBF752FD524A022152480078D2
:104F6000FFF707FF514A022151480078FFF701FF80
:104F7000012008234B4A122100906920FCF768FCAD
:104F800001200823494A1F2100906920FCF760FC9A
:104F900009B000BD1CB540484078AA2848D0AA20D6
:104FA0003D4948700020FCF7ADFF012041A31022CD
:104FB000002100900846FCF768FE01203FA3102264
:104FC000114600900020FCF760FE012010233DA256
:104FD000202100900020FCF73BFC012010233AA286
:104FE000302100900020FCF733FC01201023384AC8
:104FF000002100902820FCF72BFC01201023344ACC
:105000001532194600902820FCF722FC0120009060
:105010002F4810232021C26A1820FCF719FC012018
:1050200000902B4810233021026B0846FCF710FC3F
:105030002848007870B32748407827490978884283
:1050400015D0234824490978405C01900120224969
:1050500000900978282202EBC101C8B2102301AAEE
:105060001946FCF7F5FB1B4840781B4908701948A6
:1050700040781749085C01901648807815490090DF
:105080004978282202EBC101C8B2102301AA1946AF
:10509000FCF7DEFB1CBD00004E150020941900201B
:1050A0002D00000048150020461500204B1500205B
:1050B00047150020C3FBB3C6A3BA0000C3DCC2EB94
:1050C000A3BA0000543A2000506F72743A200000D6
:1050D000E8140020501500205315002070470000F0
:1050E0000B4910B5A1F17C020A4CC2E937123721F5
:1050F00006E000EB104342F82130074B00FB034071
:105100000B1EA1F10101F4DC10BD0120E8E7000055
:10511000501C0020E119D666CD0D010030B50546C2
:105120000B462A4613F8014B12F8010B08B1A042B6
:10513000F8D01CB1002802D06D1CF1E7284630BD24
:1051400040EA010310B59B070FD1042A0DD310C804
:1051500008C9121F9C42F8D020BA19BA884201D956
:10516000012010BD4FF0FF3010BD1AB1D30703D09E
:10517000521C07E0002010BD10F8013B11F8014B54
:105180001B1B07D110F8013B11F8014B1B1B01D170
:10519000921EF1D1184610BD10B5431C02E010F864
:1051A000011B71B18107FAD14FF0013202C88C1A8C
:1051B0008C4314EAC211F9D0C01A0A0603D0C01EEB
:1051C00010BDC01A10BD0A0401D0801E10BD090216
:1051D000FCD0401E10BD10B5203AC0F00B80B1E8E5
:1051E0001850203AA0E81850B1E81850A0E818501C
:1051F000BFF4F5AF5FEA027C24BFB1E81850A0E825
:10520000185044BF18C918C0BDE810405FEA827C3E
:1052100024BF51F8043B40F8043B08BF7047D20755
:1052200028BF31F8023B48BF11F8012B28BF20F8F6
:10523000023B48BF00F8012B704702F0FF0343EA2E
:10524000032242EA024200F002B84FF000020429B1
:10525000C0F0128010F0030C00F01B80CCF1040CA5
:10526000BCF1020F18BF00F8012BA8BF20F8022BD9
:10527000A1EB0C0100F00DB85FEAC17C24BF00F87F
:10528000012B00F8012B48BF00F8012B70474FF0AD
:10529000000200B5134694469646203922BFA0E886
:1052A0000C50A0E80C50B1F12001BFF4F7AF090792
:1052B00028BFA0E80C5048BF0CC05DF804EB890083
:1052C00028BF40F8042B08BF704748BF20F8022BC6
:1052D00011F0804F18BF00F8012B704770477047DE
:1052E0007047704710B500F009F8006810BD10B5A0
:1052F000044600F003F8046010BD00000048704749
:10530000B81C002000487047B81C00207546FFF705
:10531000F9FFAE4605006946534620F00700854672
:1053200018B020B5FDF794FEBDE820404FF0000610
:105330004FF000074FF000084FF0000B21F007017D
:10534000AC46ACE8C009ACE8C009ACE8C009ACE8C0
:10535000C0098D46704710B50446AFF30080204663
:10536000BDE81040FAF72FBF2DE9F0414F1E00EBCA
:10537000C7010446D1E9000115461E4637F0060272
:105380000DD02A46334600F01FFD7F1E04EBC703F5
:10539000D3E9002300F070FA37F00602F1D1022FB2
:1053A00025D0042F13D0062F18BFBDE8F0812A4660
:1053B000334600F009FDD4E90A2300F05DFA2A46DD
:1053C000334600F001FDD4E9082300F055FA2A46DF
:1053D000334600F0F9FCD4E9062300F04DFA2A46E2
:1053E000334600F0F1FCD4E9042300F045FA2A46E4
:1053F000334600F0E9FCD4E9022300F03DFA2A46E6
:10540000334600F0E1FCD4E90023BDE8F04100F0B0
:1054100033BA0000002213461046014900F0E8BAF2
:105420000000F03F012200F0F5BE002213461046B6
:10543000114600F0DDBA00002DE9F04DC84A002405
:1054400090B0914205DA21F00043934201D805D192
:1054500020B110B0BDE8F04DFFF7E4BFB1F5801FFB
:105460001BDA53EA000209D0002911DA0120FFF704
:105470003EFF10B0BDE8F04DFFF7D7BF0220FFF7A9
:1054800036FFFFF7C7FF10B081F00041BDE8F08D97
:105490006FF03504362200F0BDFE04EB2152C1F35B
:1054A0001308B049A2F2FF33414401F4801282F0A4
:1054B0007F6103EB225281F04051009241EA0801E2
:1054C0000022A94B00F08AFD044608F10200A74E15
:1054D000C0F313000D467E44032867D2D6E90023AB
:1054E000204600F0DDFB1ED10098002802BFD6E95F
:1054F000000110B0BDE8F08D00F03BFC07460C4603
:105500009B4A9C4B00F060FC06460D469A4A9B4B1A
:105510003846214600F058FC10B032462B46BDE814
:10552000F04D00F0A9B94FF05532954B2046294671
:1055300000F04AFC0022934B00F044FD06460F4663
:1055400022462B461046194600F03EFC32463B46AA
:1055500000F03AFC064600980F46F0B100F009FC56
:1055600080468A46824A834B00F02EFC32463B46F8
:1055700000F028FD22462B4600F030FD05460C4683
:105580007D4A7E4B4046514600F01EFC10B02A4634
:105590002346BDE8F04D00F021BD0B4610B0324669
:1055A00020462946BDE8F04D00F018BD00224FF01E
:1055B0008043204600F060F902460B46204629460B
:1055C00000F016FA06460F46009800F0D2FBCDE92F
:1055D000040132463B461046394600F0F5FB0C907C
:1055E00069480C9A4044019009910B46104600F01E
:1055F000EBFB8246024665488B46C8F151080B46D4
:1056000008F5D72803217844FFF7AEFE52465B46E3
:1056100000F0DAFB0A905E480D9152465B46042189
:105620007844FFF7A1FE099B0C9A00F0CDFB84465D
:1056300001980D9B40EA080860460A9A00F01CF9A0
:1056400083460891B8F1000F4EDD4FF0FF3220463F
:10565000294600F0DFFD22462B4600F0B5FB8046D0
:1056600000988A4660B3DDE90401414A414B00F0ED
:10567000ABFB099100905A4640465146089B00F00A
:10568000FBF832463B4600F09FFB099B009A00F076
:10569000F3F84246534600F095FC22462B4600F0B4
:1056A0009DFC04460D46DDE90401334A334B00F00E
:1056B0008BFB10B022462B46BDE8F04D00F08EBCAF
:1056C0005A464046089B00F0D7F832463B4600F069
:1056D0007BFB4246534600F075FC10B022462B4639
:1056E000BDE8F04D00F06EBC009840B3DDE9040168
:1056F0001F4A204B00F068FB80468A465A462046E7
:105700002946089B00F06AFC32463B4600F05CFBF1
:105710004246534600F062FC22462B4600F05EFCF7
:1057200004460D46DDE90401134A144B00F04CFB1E
:1057300010B022462B46BDE8F04D00F04FBC0B46A2
:105740005A462046294600F049FC32463B4600F0C6
:105750003BFB10B022462B46BDE8F04D00F032BCBA
:105760000000F07F645F09000000F03FF6210000B8
:10577000763C7935EF39EA3D0000E0FE422EE63F07
:105780005555D53F0000E03F86EBF9FF8E20000025
:105790008C2000002DE9F04104463048002581426C
:1057A00005DA21F00042824201D805D124B1204619
:1057B000BDE8F041FFF736BEB1F5801F1BDA52EAB3
:1057C000040008D000290FDA0120FFF790FDBDE8A2
:1057D000F041FFF72ABE0220FFF789FDFFF71AFE0E
:1057E00081F00041BDE8F0816FF03505362220469A
:1057F00000F010FD044605EB2150A0F2FF32D00F5F
:1058000040F2FF331B1A0D4663F31F55104400F09E
:10581000B0FA06460F4629462046FFF70DFE104A0D
:10582000104B00F0D1FA04460D460F4A0F4B30469C
:10583000394600F0C9FA22462B4600F01DF805460D
:105840000C460B4A0B4B3046394600F0BDFA2A464F
:105850002346BDE8F04100F00FB800000000F07FE3
:105860000EE526157BCBDB3F362BF111F3FE593DC0
:1058700000609F501344D33F10B591EA030F48BF17
:1058800083F0004300F1B283841A71EB030C05D25C
:10589000121943EB0C03001B61EB0C01DFF824E150
:1058A0004FEA1154A4EB135C1EEA430F18BF9EEAA3
:1058B000445F73D023EA0E03DCF1200E21EA045189
:1058C00043F4801332D322FA0CFE10EB0E0023FABD
:1058D0000CFE41EB0E01CCF1200E03FA0EFE10EB94
:1058E0000E0051F10001B1F5801FCCF1200E32D233
:1058F00001EB045112FA0EF2BDE8104058BF704798
:10590000401C38BF5FEA420218BF7047002814BF2E
:1059100020F0010041F100014FEA410313F5001F9F
:1059200038BF7047A1F1C04100F046BB012A43EBEC
:105930000302ACF1200CDCF11F0E32BF4FF0000E61
:1059400023FA0CF310EB030041EB0451B4EB115FAD
:10595000D0D0A1EB045101F5801149085FEA300075
:1059600001EB04510ED350F1000038BF12FA0EFEC5
:1059700008D1BDE81040C9E7401C38BF5FEA4202C9
:10598000CAD1C3E7BDE810404FEA410313F5001F39
:1059900038BF7047A1F1C04100F00EBB9EEA445FE2
:1059A00008D011EA5E0FBDE8104004BF01F00041CD
:1059B00000207047BDE8104070B500F0AFFA00BF9E
:1059C00064FBBE3E0000E0FF02494FF0000000F023
:1059D000EFBB00BF0000F87F491058BFC1F1404144
:1059E0005B1058BFC3F140438B42EFF30080704718
:1059F0002DE9C04130B4DFF8A0C23CEA111418BF51
:105A00003CEA131400F0EC8081EA03051CEA11144F
:105A100044EAD57418BF1CEA131500F0C780A4EB44
:105A200005044FF0004545EAC12145EAC32341EA98
:105A3000505143EA525304F17F74994204F5003403
:105A40004FEAC0204FEAC22208BF904200F09C807B
:105A50004FEA13650FF24016765D4FEA134506FBD9
:105A600005F7C7F1807706FB07F74FEAD737A7FBA3
:105A700003687642C8F58038A7FB06CE38BFA8F188
:105A8000010807FB08E64FF0000EA6FB028CE6FBC0
:105A900003CEDCF1000CCEF1004E38BFAEF1010EAA
:105AA000A6FB0C584FF000074FF00005E6FB0E87F1
:105AB000A1FB08C6A0FB07CE16EB0E0645F10005BC
:105AC000E1FB076515F1E04E7EBFA4F580345FEA87
:105AD00046066D4116F1800745F100054FEA17278C
